{
  "_format": "hh-sol-artifact-1",
  "contractName": "AdsGateway",
  "sourceName": "contracts/utilities/AdsGateway.sol",
  "abi": [
    {
      "inputs": [
        {
          "internalType": "contract AdsFactory[]",
          "name": "factories",
          "type": "address[]"
        }
      ],
      "name": "contractURIAndOwner",
      "outputs": [
        {
          "internalType": "string[]",
          "name": "",
          "type": "string[]"
        },
        {
          "internalType": "address[]",
          "name": "",
          "type": "address[]"
        }
      ],
      "stateMutability": "view",
      "type": "function"
    },
    {
      "inputs": [
        {
          "internalType": "contract AdsFactory[]",
          "name": "factories",
          "type": "address[]"
        }
      ],
      "name": "contractURIOf",
      "outputs": [
        {
          "internalType": "string[]",
          "name": "",
          "type": "string[]"
        }
      ],
      "stateMutability": "view",
      "type": "function"
    },
    {
      "inputs": [
        {
          "internalType": "contract AdsFactory",
          "name": "factory",
          "type": "address"
        },
        {
          "internalType": "uint256[]",
          "name": "ids",
          "type": "uint256[]"
        }
      ],
      "name": "getAds",
      "outputs": [
        {
          "internalType": "address[]",
          "name": "",
          "type": "address[]"
        },
        {
          "components": [
            {
              "internalType": "uint256",
              "name": "mintPrice",
              "type": "uint256"
            },
            {
              "internalType": "uint32",
              "name": "width",
              "type": "uint32"
            },
            {
              "internalType": "uint32",
              "name": "height",
              "type": "uint32"
            },
            {
              "internalType": "string",
              "name": "ipfsUri",
              "type": "string"
            },
            {
              "internalType": "address",
              "name": "reservedFor",
              "type": "address"
            },
            {
              "internalType": "bool",
              "name": "isLottery",
              "type": "bool"
            }
          ],
          "internalType": "struct AdsFactory.AdData[]",
          "name": "",
          "type": "tuple[]"
        }
      ],
      "stateMutability": "view",
      "type": "function"
    },
    {
      "inputs": [
        {
          "internalType": "contract AdsFactory",
          "name": "factory",
          "type": "address"
        },
        {
          "internalType": "uint256[]",
          "name": "ids",
          "type": "uint256[]"
        }
      ],
      "name": "getFullAds",
      "outputs": [
        {
          "internalType": "address[]",
          "name": "",
          "type": "address[]"
        },
        {
          "components": [
            {
              "internalType": "uint256",
              "name": "mintPrice",
              "type": "uint256"
            },
            {
              "internalType": "uint32",
              "name": "width",
              "type": "uint32"
            },
            {
              "internalType": "uint32",
              "name": "height",
              "type": "uint32"
            },
            {
              "internalType": "string",
              "name": "ipfsUri",
              "type": "string"
            },
            {
              "internalType": "address",
              "name": "reservedFor",
              "type": "address"
            },
            {
              "internalType": "bool",
              "name": "isLottery",
              "type": "bool"
            }
          ],
          "internalType": "struct AdsFactory.AdData[]",
          "name": "",
          "type": "tuple[]"
        },
        {
          "components": [
            {
              "internalType": "uint256",
              "name": "ticketPrice",
              "type": "uint256"
            },
            {
              "internalType": "uint16",
              "name": "ticketAmountToStart",
              "type": "uint16"
            },
            {
              "internalType": "address[]",
              "name": "addresses",
              "type": "address[]"
            }
          ],
          "internalType": "struct AdsFactory.LotteryData[]",
          "name": "",
          "type": "tuple[]"
        }
      ],
      "stateMutability": "view",
      "type": "function"
    },
    {
      "inputs": [
        {
          "internalType": "contract AdsFactory",
          "name": "factory",
          "type": "address"
        },
        {
          "internalType": "uint256[]",
          "name": "ids",
          "type": "uint256[]"
        }
      ],
      "name": "getLotteries",
      "outputs": [
        {
          "components": [
            {
              "internalType": "uint256",
              "name": "ticketPrice",
              "type": "uint256"
            },
            {
              "internalType": "uint16",
              "name": "ticketAmountToStart",
              "type": "uint16"
            },
            {
              "internalType": "address[]",
              "name": "addresses",
              "type": "address[]"
            }
          ],
          "internalType": "struct AdsFactory.LotteryData[]",
          "name": "",
          "type": "tuple[]"
        }
      ],
      "stateMutability": "view",
      "type": "function"
    },
    {
      "inputs": [
        {
          "internalType": "contract AdsFactory",
          "name": "factory",
          "type": "address"
        },
        {
          "internalType": "uint256[]",
          "name": "ids",
          "type": "uint256[]"
        }
      ],
      "name": "infoOf",
      "outputs": [
        {
          "internalType": "address[]",
          "name": "",
          "type": "address[]"
        },
        {
          "internalType": "string[]",
          "name": "",
          "type": "string[]"
        }
      ],
      "stateMutability": "view",
      "type": "function"
    },
    {
      "inputs": [
        {
          "internalType": "contract AdsFactory",
          "name": "factory",
          "type": "address"
        },
        {
          "internalType": "uint256[]",
          "name": "ids",
          "type": "uint256[]"
        }
      ],
      "name": "ownerOf",
      "outputs": [
        {
          "internalType": "address[]",
          "name": "",
          "type": "address[]"
        }
      ],
      "stateMutability": "view",
      "type": "function"
    }
  ],
  "bytecode": "0x608060405234801561001057600080fd5b50611700806100206000396000f3fe608060405234801561001057600080fd5b506004361061007d5760003560e01c8063ac7929911161005b578063ac792991146100ed578063e32e7e961461010d578063e756924b1461012f578063f302f3a21461015057600080fd5b80631d4445ed146100825780634d4ae274146100ac57806374e007d2146100cc575b600080fd5b610095610090366004610f7d565b610170565b6040516100a3929190611107565b60405180910390f35b6100bf6100ba366004611135565b610373565b6040516100a391906111da565b6100df6100da366004611135565b610492565b6040516100a39291906112a1565b6101006100fb366004610f7d565b6106e5565b6040516100a391906112c6565b61012061011b366004611135565b6107f8565b6040516100a393929190611384565b61014261013d366004611135565b610b64565b6040516100a39291906113c7565b61016361015e366004611135565b610d7f565b6040516100a391906113ec565b606080600083516001600160401b0381111561018e5761018e610eb2565b6040519080825280602002602001820160405280156101c157816020015b60608152602001906001900390816101ac5790505b509050600084516001600160401b038111156101df576101df610eb2565b604051908082528060200260200182016040528015610208578160200160208202803683370190505b50905060005b855181101561036857858181518110610229576102296113ff565b60200260200101516001600160a01b031663e8a3d4856040518163ffffffff1660e01b8152600401600060405180830381865afa15801561026e573d6000803e3d6000fd5b505050506040513d6000823e601f3d908101601f191682016040526102969190810190611480565b8382815181106102a8576102a86113ff565b60200260200101819052508581815181106102c5576102c56113ff565b60200260200101516001600160a01b0316638da5cb5b6040518163ffffffff1660e01b8152600401602060405180830381865afa15801561030a573d6000803e3d6000fd5b505050506040513d601f19601f8201168201806040525081019061032e91906114b4565b828281518110610340576103406113ff565b6001600160a01b0390921660209283029190910190910152610361816114d1565b905061020e565b509094909350915050565b6060600082516001600160401b0381111561039057610390610eb2565b6040519080825280602002602001820160405280156103b9578160200160208202803683370190505b50905060005b835181101561048a57846001600160a01b031663a75c05d88583815181106103e9576103e96113ff565b60200260200101516040518263ffffffff1660e01b815260040161040f91815260200190565b602060405180830381865afa15801561042c573d6000803e3d6000fd5b505050506040513d601f19601f8201168201806040525081019061045091906114b4565b828281518110610462576104626113ff565b6001600160a01b0390921660209283029190910190910152610483816114d1565b90506103bf565b509392505050565b606080600083516001600160401b038111156104b0576104b0610eb2565b6040519080825280602002602001820160405280156104d9578160200160208202803683370190505b509050600084516001600160401b038111156104f7576104f7610eb2565b60405190808252806020026020018201604052801561055657816020015b6040805160c081018252600080825260208083018290529282018190526060808301526080820181905260a082015282526000199092019101816105155790505b50905060005b85518110156106d957866001600160a01b031663a75c05d8878381518110610586576105866113ff565b60200260200101516040518263ffffffff1660e01b81526004016105ac91815260200190565b602060405180830381865afa1580156105c9573d6000803e3d6000fd5b505050506040513d601f19601f820116820180604052508101906105ed91906114b4565b8382815181106105ff576105ff6113ff565b60200260200101906001600160a01b031690816001600160a01b031681525050866001600160a01b03166384ebd371878381518110610640576106406113ff565b60200260200101516040518263ffffffff1660e01b815260040161066691815260200190565b600060405180830381865afa158015610683573d6000803e3d6000fd5b505050506040513d6000823e601f3d908101601f191682016040526106ab9190810190611511565b8282815181106106bd576106bd6113ff565b6020026020010181905250806106d2906114d1565b905061055c565b50909590945092505050565b6060600082516001600160401b0381111561070257610702610eb2565b60405190808252806020026020018201604052801561073557816020015b60608152602001906001900390816107205790505b50905060005b83518110156107f157838181518110610756576107566113ff565b60200260200101516001600160a01b031663e8a3d4856040518163ffffffff1660e01b8152600401600060405180830381865afa15801561079b573d6000803e3d6000fd5b505050506040513d6000823e601f3d908101601f191682016040526107c39190810190611480565b8282815181106107d5576107d56113ff565b6020026020010181905250806107ea906114d1565b905061073b565b5092915050565b6060806060600084516001600160401b0381111561081857610818610eb2565b604051908082528060200260200182016040528015610841578160200160208202803683370190505b509050600085516001600160401b0381111561085f5761085f610eb2565b6040519080825280602002602001820160405280156108be57816020015b6040805160c081018252600080825260208083018290529282018190526060808301526080820181905260a0820152825260001990920191018161087d5790505b509050600086516001600160401b038111156108dc576108dc610eb2565b60405190808252806020026020018201604052801561092957816020015b604080516060808201835260008083526020830152918101919091528152602001906001900390816108fa5790505b50905060005b8751811015610b5557886001600160a01b031663a75c05d8898381518110610959576109596113ff565b60200260200101516040518263ffffffff1660e01b815260040161097f91815260200190565b602060405180830381865afa15801561099c573d6000803e3d6000fd5b505050506040513d601f19601f820116820180604052508101906109c091906114b4565b8482815181106109d2576109d26113ff565b60200260200101906001600160a01b031690816001600160a01b031681525050886001600160a01b03166384ebd371898381518110610a1357610a136113ff565b60200260200101516040518263ffffffff1660e01b8152600401610a3991815260200190565b600060405180830381865afa158015610a56573d6000803e3d6000fd5b505050506040513d6000823e601f3d908101601f19168201604052610a7e9190810190611511565b838281518110610a9057610a906113ff565b6020026020010181905250886001600160a01b03166363bb48c5898381518110610abc57610abc6113ff565b60200260200101516040518263ffffffff1660e01b8152600401610ae291815260200190565b600060405180830381865afa158015610aff573d6000803e3d6000fd5b505050506040513d6000823e601f3d908101601f19168201604052610b2791908101906115db565b828281518110610b3957610b396113ff565b602002602001018190525080610b4e906114d1565b905061092f565b50919450925090509250925092565b606080600083516001600160401b03811115610b8257610b82610eb2565b604051908082528060200260200182016040528015610bab578160200160208202803683370190505b509050600084516001600160401b03811115610bc957610bc9610eb2565b604051908082528060200260200182016040528015610bfc57816020015b6060815260200190600190039081610be75790505b50905060005b85518110156106d957866001600160a01b031663a75c05d8878381518110610c2c57610c2c6113ff565b60200260200101516040518263ffffffff1660e01b8152600401610c5291815260200190565b602060405180830381865afa158015610c6f573d6000803e3d6000fd5b505050506040513d601f19601f82011682018060405250810190610c9391906114b4565b838281518110610ca557610ca56113ff565b60200260200101906001600160a01b031690816001600160a01b031681525050866001600160a01b031663c87b56dd878381518110610ce657610ce66113ff565b60200260200101516040518263ffffffff1660e01b8152600401610d0c91815260200190565b600060405180830381865afa158015610d29573d6000803e3d6000fd5b505050506040513d6000823e601f3d908101601f19168201604052610d519190810190611480565b828281518110610d6357610d636113ff565b602002602001018190525080610d78906114d1565b9050610c02565b6060600082516001600160401b03811115610d9c57610d9c610eb2565b604051908082528060200260200182016040528015610de957816020015b60408051606080820183526000808352602083015291810191909152815260200190600190039081610dba5790505b50905060005b835181101561048a57846001600160a01b03166363bb48c5858381518110610e1957610e196113ff565b60200260200101516040518263ffffffff1660e01b8152600401610e3f91815260200190565b600060405180830381865afa158015610e5c573d6000803e3d6000fd5b505050506040513d6000823e601f3d908101601f19168201604052610e8491908101906115db565b828281518110610e9657610e966113ff565b602002602001018190525080610eab906114d1565b9050610def565b634e487b7160e01b600052604160045260246000fd5b60405160c081016001600160401b0381118282101715610eea57610eea610eb2565b60405290565b604051606081016001600160401b0381118282101715610eea57610eea610eb2565b604051601f8201601f191681016001600160401b0381118282101715610f3a57610f3a610eb2565b604052919050565b60006001600160401b03821115610f5b57610f5b610eb2565b5060051b60200190565b6001600160a01b0381168114610f7a57600080fd5b50565b60006020808385031215610f9057600080fd5b82356001600160401b03811115610fa657600080fd5b8301601f81018513610fb757600080fd5b8035610fca610fc582610f42565b610f12565b81815260059190911b82018301908381019087831115610fe957600080fd5b928401925b8284101561101057833561100181610f65565b82529284019290840190610fee565b979650505050505050565b60005b8381101561103657818101518382015260200161101e565b50506000910152565b6000815180845261105781602086016020860161101b565b601f01601f19169290920160200192915050565b600082825180855260208086019550808260051b84010181860160005b848110156110b657601f198684030189526110a483835161103f565b98840198925090830190600101611088565b5090979650505050505050565b600081518084526020808501945080840160005b838110156110fc5781516001600160a01b0316875295820195908201906001016110d7565b509495945050505050565b60408152600061111a604083018561106b565b828103602084015261112c81856110c3565b95945050505050565b6000806040838503121561114857600080fd5b823561115381610f65565b91506020838101356001600160401b0381111561116f57600080fd5b8401601f8101861361118057600080fd5b803561118e610fc582610f42565b81815260059190911b820183019083810190888311156111ad57600080fd5b928401925b828410156111cb578335825292840192908401906111b2565b80955050505050509250929050565b6020815260006111ed60208301846110c3565b9392505050565b600081518084526020808501808196508360051b8101915082860160005b85811015611294578284038952815160c0815186528682015163ffffffff8082168989015260409150808285015116828901525050606080830151828289015261125e8389018261103f565b6080858101516001600160a01b0316908a015260a094850151151594909801939093525050509784019790840190600101611212565b5091979650505050505050565b6040815260006112b460408301856110c3565b828103602084015261112c81856111f4565b6020815260006111ed602083018461106b565b600081518084526020808501808196508360051b810191508286016000805b86811015611376578385038a528251805186528681015161ffff168787015260409081015160609187018290528051918701829052870190608087019084905b808210156113615783516001600160a01b03168352928901929189019160019190910190611338565b50509a87019a955050918501916001016112f8565b509298975050505050505050565b60608152600061139760608301866110c3565b82810360208401526113a981866111f4565b905082810360408401526113bd81856112d9565b9695505050505050565b6040815260006113da60408301856110c3565b828103602084015261112c818561106b565b6020815260006111ed60208301846112d9565b634e487b7160e01b600052603260045260246000fd5b600082601f83011261142657600080fd5b81516001600160401b0381111561143f5761143f610eb2565b611452601f8201601f1916602001610f12565b81815284602083860101111561146757600080fd5b61147882602083016020870161101b565b949350505050565b60006020828403121561149257600080fd5b81516001600160401b038111156114a857600080fd5b61147884828501611415565b6000602082840312156114c657600080fd5b81516111ed81610f65565b6000600182016114f157634e487b7160e01b600052601160045260246000fd5b5060010190565b805163ffffffff8116811461150c57600080fd5b919050565b60006020828403121561152357600080fd5b81516001600160401b038082111561153a57600080fd5b9083019060c0828603121561154e57600080fd5b611556610ec8565b82518152611566602084016114f8565b6020820152611577604084016114f8565b604082015260608301518281111561158e57600080fd5b61159a87828601611415565b606083015250608083015191506115b082610f65565b81608082015260a0830151925082151583146115cb57600080fd5b60a0810192909252509392505050565b600060208083850312156115ee57600080fd5b82516001600160401b038082111561160557600080fd5b908401906060828703121561161957600080fd5b611621610ef0565b825181528383015161ffff8116811461163957600080fd5b8185015260408301518281111561164f57600080fd5b80840193505086601f84011261166457600080fd5b82519150611674610fc583610f42565b82815260059290921b8301840191848101908884111561169357600080fd5b938501935b838510156116ba5784516116ab81610f65565b82529385019390850190611698565b604083015250969550505050505056fea26469706673582212200be482c5626f955371eafeb70adaf1f4ccc31f09df31cab514723baaf31bd8b064736f6c63430008140033",
  "linkReferences": {},
  "deployedLinkReferences": {}
}