{
  "_format": "hh-sol-artifact-1",
  "contractName": "GameManager",
  "sourceName": "contracts/demo-game00/GameManager.sol",
  "abi": [
    {
      "inputs": [],
      "stateMutability": "nonpayable",
      "type": "constructor"
    },
    {
      "inputs": [],
      "name": "EmptySecrets",
      "type": "error"
    },
    {
      "inputs": [],
      "name": "EmptySource",
      "type": "error"
    },
    {
      "inputs": [],
      "name": "NoInlineSecrets",
      "type": "error"
    },
    {
      "inputs": [],
      "name": "OnlyRouterCanFulfill",
      "type": "error"
    },
    {
      "inputs": [
        {
          "internalType": "address",
          "name": "owner",
          "type": "address"
        }
      ],
      "name": "OwnableInvalidOwner",
      "type": "error"
    },
    {
      "inputs": [
        {
          "internalType": "address",
          "name": "account",
          "type": "address"
        }
      ],
      "name": "OwnableUnauthorizedAccount",
      "type": "error"
    },
    {
      "anonymous": false,
      "inputs": [
        {
          "indexed": true,
          "internalType": "address",
          "name": "previousOwner",
          "type": "address"
        },
        {
          "indexed": true,
          "internalType": "address",
          "name": "newOwner",
          "type": "address"
        }
      ],
      "name": "OwnershipTransferred",
      "type": "event"
    },
    {
      "anonymous": false,
      "inputs": [
        {
          "indexed": true,
          "internalType": "bytes32",
          "name": "id",
          "type": "bytes32"
        }
      ],
      "name": "RequestFulfilled",
      "type": "event"
    },
    {
      "anonymous": false,
      "inputs": [
        {
          "indexed": true,
          "internalType": "bytes32",
          "name": "id",
          "type": "bytes32"
        }
      ],
      "name": "RequestSent",
      "type": "event"
    },
    {
      "inputs": [
        {
          "internalType": "bytes",
          "name": "",
          "type": "bytes"
        }
      ],
      "name": "checkUpkeep",
      "outputs": [
        {
          "internalType": "bool",
          "name": "upkeepNeeded",
          "type": "bool"
        },
        {
          "internalType": "bytes",
          "name": "",
          "type": "bytes"
        }
      ],
      "stateMutability": "view",
      "type": "function"
    },
    {
      "inputs": [],
      "name": "donId",
      "outputs": [
        {
          "internalType": "bytes32",
          "name": "",
          "type": "bytes32"
        }
      ],
      "stateMutability": "view",
      "type": "function"
    },
    {
      "inputs": [],
      "name": "encryptedSecretsUrls",
      "outputs": [
        {
          "internalType": "bytes",
          "name": "",
          "type": "bytes"
        }
      ],
      "stateMutability": "view",
      "type": "function"
    },
    {
      "inputs": [],
      "name": "endDate",
      "outputs": [
        {
          "internalType": "uint256",
          "name": "",
          "type": "uint256"
        }
      ],
      "stateMutability": "view",
      "type": "function"
    },
    {
      "inputs": [
        {
          "internalType": "bytes32",
          "name": "",
          "type": "bytes32"
        }
      ],
      "name": "errors",
      "outputs": [
        {
          "internalType": "bytes",
          "name": "",
          "type": "bytes"
        }
      ],
      "stateMutability": "view",
      "type": "function"
    },
    {
      "inputs": [],
      "name": "factory",
      "outputs": [
        {
          "internalType": "contract IERC721",
          "name": "",
          "type": "address"
        }
      ],
      "stateMutability": "view",
      "type": "function"
    },
    {
      "inputs": [],
      "name": "gasLimit",
      "outputs": [
        {
          "internalType": "uint32",
          "name": "",
          "type": "uint32"
        }
      ],
      "stateMutability": "view",
      "type": "function"
    },
    {
      "inputs": [
        {
          "internalType": "bytes32",
          "name": "requestId",
          "type": "bytes32"
        },
        {
          "internalType": "bytes",
          "name": "response",
          "type": "bytes"
        },
        {
          "internalType": "bytes",
          "name": "err",
          "type": "bytes"
        }
      ],
      "name": "handleOracleFulfillment",
      "outputs": [],
      "stateMutability": "nonpayable",
      "type": "function"
    },
    {
      "inputs": [],
      "name": "nftsSended",
      "outputs": [
        {
          "internalType": "bool",
          "name": "",
          "type": "bool"
        }
      ],
      "stateMutability": "view",
      "type": "function"
    },
    {
      "inputs": [
        {
          "internalType": "address",
          "name": "",
          "type": "address"
        },
        {
          "internalType": "address",
          "name": "",
          "type": "address"
        },
        {
          "internalType": "uint256",
          "name": "",
          "type": "uint256"
        },
        {
          "internalType": "bytes",
          "name": "",
          "type": "bytes"
        }
      ],
      "name": "onERC721Received",
      "outputs": [
        {
          "internalType": "bytes4",
          "name": "",
          "type": "bytes4"
        }
      ],
      "stateMutability": "nonpayable",
      "type": "function"
    },
    {
      "inputs": [],
      "name": "owner",
      "outputs": [
        {
          "internalType": "address",
          "name": "",
          "type": "address"
        }
      ],
      "stateMutability": "view",
      "type": "function"
    },
    {
      "inputs": [
        {
          "internalType": "bytes",
          "name": "",
          "type": "bytes"
        }
      ],
      "name": "performUpkeep",
      "outputs": [],
      "stateMutability": "nonpayable",
      "type": "function"
    },
    {
      "inputs": [],
      "name": "renounceOwnership",
      "outputs": [],
      "stateMutability": "nonpayable",
      "type": "function"
    },
    {
      "inputs": [],
      "name": "router",
      "outputs": [
        {
          "internalType": "address",
          "name": "",
          "type": "address"
        }
      ],
      "stateMutability": "view",
      "type": "function"
    },
    {
      "inputs": [],
      "name": "sendRequest",
      "outputs": [],
      "stateMutability": "nonpayable",
      "type": "function"
    },
    {
      "inputs": [],
      "name": "subscriptionId",
      "outputs": [
        {
          "internalType": "uint64",
          "name": "",
          "type": "uint64"
        }
      ],
      "stateMutability": "view",
      "type": "function"
    },
    {
      "inputs": [
        {
          "internalType": "address",
          "name": "newOwner",
          "type": "address"
        }
      ],
      "name": "transferOwnership",
      "outputs": [],
      "stateMutability": "nonpayable",
      "type": "function"
    },
    {
      "inputs": [
        {
          "internalType": "bytes32",
          "name": "donId_",
          "type": "bytes32"
        }
      ],
      "name": "updateDonId",
      "outputs": [],
      "stateMutability": "nonpayable",
      "type": "function"
    },
    {
      "inputs": [
        {
          "internalType": "bytes",
          "name": "encryptedSecretsUrls_",
          "type": "bytes"
        }
      ],
      "name": "updateEncryptedSecretsUrls",
      "outputs": [],
      "stateMutability": "nonpayable",
      "type": "function"
    },
    {
      "inputs": [
        {
          "internalType": "uint256",
          "name": "endDate_",
          "type": "uint256"
        }
      ],
      "name": "updateEndDate",
      "outputs": [],
      "stateMutability": "nonpayable",
      "type": "function"
    },
    {
      "inputs": [
        {
          "internalType": "address",
          "name": "factory_",
          "type": "address"
        }
      ],
      "name": "updateFactory",
      "outputs": [],
      "stateMutability": "nonpayable",
      "type": "function"
    },
    {
      "inputs": [
        {
          "internalType": "uint32",
          "name": "gasLimit_",
          "type": "uint32"
        }
      ],
      "name": "updateGasLimit",
      "outputs": [],
      "stateMutability": "nonpayable",
      "type": "function"
    },
    {
      "inputs": [
        {
          "internalType": "address",
          "name": "router_",
          "type": "address"
        }
      ],
      "name": "updateRouter",
      "outputs": [],
      "stateMutability": "nonpayable",
      "type": "function"
    },
    {
      "inputs": [
        {
          "internalType": "string",
          "name": "source_",
          "type": "string"
        }
      ],
      "name": "updateSource",
      "outputs": [],
      "stateMutability": "nonpayable",
      "type": "function"
    },
    {
      "inputs": [
        {
          "internalType": "uint64",
          "name": "subscriptionId_",
          "type": "uint64"
        }
      ],
      "name": "updateSubscriptionId",
      "outputs": [],
      "stateMutability": "nonpayable",
      "type": "function"
    },
    {
      "inputs": [],
      "name": "winner",
      "outputs": [
        {
          "internalType": "address",
          "name": "",
          "type": "address"
        }
      ],
      "stateMutability": "view",
      "type": "function"
    }
  ],
  "bytecode": "0x636583017060025560038054610100600160e81b0319167605ebd8bdb0e3832607451e351fd2ce8a805e2653598d00179055610160604052609160a0818152906200213660c03960049062000055908262000231565b50600580546001600160a01b03191673a9d587a00a31a52ed70d6026794a8fc5e2f5dcb01790557f66756e2d6176616c616e6368652d66756a692d310000000000000000000000006006556007805463ffffffff1916620493e01790556040805161050081019091526104c9808252620021c76020830139600990620000dc908262000231565b50348015620000ea57600080fd5b506005546001600160a01b031633806200011e57604051631e4fbdf760e01b81526000600482015260240160405180910390fd5b62000129816200013c565b506001600160a01b0316608052620002fd565b600080546001600160a01b038381166001600160a01b0319831681178455604051919092169283917f8be0079c531659141344cd1fd0a4f28419497f9722a3daafe3b4186f6b6457e09190a35050565b634e487b7160e01b600052604160045260246000fd5b600181811c90821680620001b757607f821691505b602082108103620001d857634e487b7160e01b600052602260045260246000fd5b50919050565b601f8211156200022c57600081815260208120601f850160051c81016020861015620002075750805b601f850160051c820191505b81811015620002285782815560010162000213565b5050505b505050565b81516001600160401b038111156200024d576200024d6200018c565b62000265816200025e8454620001a2565b84620001de565b602080601f8311600181146200029d5760008415620002845750858301515b600019600386901b1c1916600185901b17855562000228565b600085815260208120601f198616915b82811015620002ce57888601518255948401946001909101908401620002ad565b5085821015620002ed5787850151600019600388901b60f8161c191681555b5050505050600190811b01905550565b608051611e1662000320600039600081816103fd0152610e6e0152611e166000f3fe608060405234801561001057600080fd5b506004361061018e5760003560e01c8063be41cee3116100de578063dfbf53ae11610097578063f60ce3c411610071578063f60ce3c41461038a578063f68016b71461039d578063f6feca37146103c2578063f887ea40146103df57600080fd5b8063dfbf53ae14610351578063ef2bbbdf14610364578063f2fde38b1461037757600080fd5b8063be41cee3146102e2578063c24a0f8b14610302578063c45a01551461030b578063c851cc3214610323578063d9f165dc14610336578063dab79c401461034957600080fd5b80634585e33b1161014b578063715018a611610125578063715018a61461028b5780638da5cb5b146102935780638dbe7b9d146102b8578063a42f3b2f146102cf57600080fd5b80634585e33b146102445780636df0c747146102575780636e04ff0d1461026a57600080fd5b806309c1ba2e146101935780630ca76175146101ca57806314b1dd1b146101df578063150b7a02146101f25780631bee2f2a1461022957806334303bcd14610231575b600080fd5b6003546101ad90600160a81b90046001600160401b031681565b6040516001600160401b0390911681526020015b60405180910390f35b6101dd6101d836600461171d565b6103f2565b005b6101dd6101ed366004611789565b610476565b6102106102003660046117ce565b630a85bd0160e11b949350505050565b6040516001600160e01b031990911681526020016101c1565b6101dd6104ab565b6101dd61023f366004611835565b6104bd565b6101dd61025236600461185b565b6104e1565b6101dd6102653660046118cc565b610506565b61027d61027836600461185b565b610513565b6040516101c192919061192b565b6101dd610534565b6000546001600160a01b03165b6040516001600160a01b0390911681526020016101c1565b6102c160065481565b6040519081526020016101c1565b6101dd6102dd36600461194e565b610546565b6102f56102f03660046118cc565b61055a565b6040516101c19190611982565b6102c160025481565b6003546102a09061010090046001600160a01b031681565b6101dd610331366004611995565b6105f4565b6101dd610344366004611995565b61061e565b6102f561064e565b6001546102a0906001600160a01b031681565b6101dd6103723660046118cc565b61065b565b6101dd610385366004611995565b610668565b6101dd6103983660046119b0565b6106ab565b6007546103ad9063ffffffff1681565b60405163ffffffff90911681526020016101c1565b6003546103cf9060ff1681565b60405190151581526020016101c1565b6005546102a0906001600160a01b031681565b336001600160a01b037f0000000000000000000000000000000000000000000000000000000000000000161461043b5760405163c6829f8360e01b815260040160405180910390fd5b6104468383836106bf565b60405183907f85e1543bf2f84fe80c6badbce3648c8539ad1df4d2b3d822938ca0538be727e690600090a2505050565b61047e6108b8565b600380546001600160401b03909216600160a81b0267ffffffffffffffff60a81b19909216919091179055565b6104b36108b8565b6104bb6108e5565b565b6104c56108b8565b6007805463ffffffff191663ffffffff92909216919091179055565b600254421180156104f5575060035460ff16155b15610502576105026108e5565b5050565b61050e6108b8565b600655565b600060606002544211801561052b575060035460ff16155b91509250929050565b61053c6108b8565b6104bb6000610aa2565b61054e6108b8565b60046105028282611a80565b60086020526000908152604090208054610573906119f8565b80601f016020809104026020016040519081016040528092919081815260200182805461059f906119f8565b80156105ec5780601f106105c1576101008083540402835291602001916105ec565b820191906000526020600020905b8154815290600101906020018083116105cf57829003601f168201915b505050505081565b6105fc6108b8565b600580546001600160a01b0319166001600160a01b0392909216919091179055565b6106266108b8565b600380546001600160a01b0390921661010002610100600160a81b0319909216919091179055565b60048054610573906119f8565b6106636108b8565b600255565b6106706108b8565b6001600160a01b03811661069f57604051631e4fbdf760e01b8152600060048201526024015b60405180910390fd5b6106a881610aa2565b50565b6106b36108b8565b60096105028282611a80565b60008381526008602052604090206106d78282611a80565b506106e182610af2565b600180546001600160a01b0319166001600160a01b03928316908117909155600354604051632142170760e11b8152610100909104909216916342842e0e9161073291309190600090600401611b3f565b600060405180830381600087803b15801561074c57600080fd5b505af1158015610760573d6000803e3d6000fd5b505060035460018054604051632142170760e11b81526001600160a01b03610100909404841695506342842e0e94506107a193309392169190600401611b3f565b600060405180830381600087803b1580156107bb57600080fd5b505af11580156107cf573d6000803e3d6000fd5b5050600354600154604051632142170760e11b81526001600160a01b03610100909304831694506342842e0e93506108109230921690600290600401611b3f565b600060405180830381600087803b15801561082a57600080fd5b505af115801561083e573d6000803e3d6000fd5b505060038054600154604051632142170760e11b81526001600160a01b03610100909304831695506342842e0e9450610881933093929092169190600401611b3f565b600060405180830381600087803b15801561089b57600080fd5b505af11580156108af573d6000803e3d6000fd5b50505050505050565b6000546001600160a01b031633146104bb5760405163118cdaa760e01b8152336004820152602401610696565b6003805460ff191660011790556109336040805160e0810190915280600081526020016000815260200160008152602001606081526020016060815260200160608152602001606081525090565b6109d060098054610943906119f8565b80601f016020809104026020016040519081016040528092919081815260200182805461096f906119f8565b80156109bc5780601f10610991576101008083540402835291602001916109bc565b820191906000526020600020905b81548152906001019060200180831161099f57829003601f168201915b505050505082610b5390919063ffffffff16565b610a6d600480546109e0906119f8565b80601f0160208091040260200160405190810160405280929190818152602001828054610a0c906119f8565b8015610a595780601f10610a2e57610100808354040283529160200191610a59565b820191906000526020600020905b815481529060010190602001808311610a3c57829003601f168201915b505050505082610b6090919063ffffffff16565b610502610a7982610b91565b600354600754600654600160a81b9092046001600160401b03169163ffffffff90911690610e69565b600080546001600160a01b038381166001600160a01b0319831681178455604051919092169283917f8be0079c531659141344cd1fd0a4f28419497f9722a3daafe3b4186f6b6457e09190a35050565b600080610afe83610f3b565b9050601581511015610b425760405162461bcd60e51b815260206004820152600d60248201526c4f7574206f6620626f756e647360981b6044820152606401610696565b60210151600160601b900492915050565b6105028260008084611063565b8051600003610b825760405163e889636f60e01b815260040160405180910390fd5b60016020830152608090910152565b60606000610ba06101006110e1565b9050610bd96040518060400160405280600c81526020016b31b7b232a637b1b0ba34b7b760a11b8152508261110290919063ffffffff16565b8251610bf7906002811115610bf057610bf0611b63565b8290611120565b6040805180820190915260088152676c616e677561676560c01b6020820152610c21908290611102565b6040830151610c38908015610bf057610bf0611b63565b604080518082019091526006815265736f7572636560d01b6020820152610c60908290611102565b6060830151610c70908290611102565b60a08301515115610d04576040805180820190915260048152636172677360e01b6020820152610ca1908290611102565b610caa81611159565b60005b8360a0015151811015610cfa57610cea8460a001518281518110610cd357610cd3611b79565b60200260200101518361110290919063ffffffff16565b610cf381611ba5565b9050610cad565b50610d048161117d565b60808301515115610dc857600083602001516002811115610d2757610d27611b63565b03610d455760405163a80d31f760e01b815260040160405180910390fd5b60408051808201909152600f81526e39b2b1b932ba39a637b1b0ba34b7b760891b6020820152610d76908290611102565b610d8f83602001516002811115610bf057610bf0611b63565b6040805180820190915260078152667365637265747360c81b6020820152610db8908290611102565b6080830151610dc890829061119b565b60c08301515115610e615760408051808201909152600981526862797465734172677360b81b6020820152610dfe908290611102565b610e0781611159565b60005b8360c0015151811015610e5757610e478460c001518281518110610e3057610e30611b79565b60200260200101518361119b90919063ffffffff16565b610e5081611ba5565b9050610e0a565b50610e618161117d565b515192915050565b6000807f00000000000000000000000000000000000000000000000000000000000000006001600160a01b031663461d27628688600188886040518663ffffffff1660e01b8152600401610ec1959493929190611bbe565b6020604051808303816000875af1158015610ee0573d6000803e3d6000fd5b505050506040513d601f19601f82011682018060405250810190610f049190611c07565b60405190915081907f1131472297a800fee664d1d89cfa8f7676ff07189ecc53f80bbb5f4969099db890600090a295945050505050565b80516060908290610f4e90600290611c36565b15610f5857600080fd5b600060028251610f689190611c4a565b6001600160401b03811115610f7f57610f7f611672565b6040519080825280601f01601f191660200182016040528015610fa9576020820181803683370190505b50905060005b60028351610fbd9190611c4a565b81101561105b57610ffb83610fd3836002611c5e565b610fde906001611c75565b81518110610fee57610fee611b79565b016020015160f81c6111a8565b61100a84610fde846002611c5e565b611015906010611c88565b61101f9190611cab565b60f81b82828151811061103457611034611b79565b60200101906001600160f81b031916908160001a90535061105481611ba5565b9050610faf565b509392505050565b8051600003611085576040516322ce3edd60e01b815260040160405180910390fd5b8383600281111561109857611098611b63565b908160028111156110ab576110ab611b63565b905250604084018280156110c1576110c1611b63565b908180156110d1576110d1611b63565b9052506060909301929092525050565b6110e961163d565b80516110f59083611292565b5060006020820152919050565b61110f8260038351611309565b815161111b9082611428565b505050565b815161112d9060c2611450565b50610502828260405160200161114591815260200190565b60405160208183030381529060405261119b565b6111648160046114b9565b6001816020018181516111779190611c75565b90525050565b6111888160076114b9565b6001816020018181516111779190611cc4565b61110f8260028351611309565b6000600360fc1b60f883901b6001600160f81b031916108015906111de5750603960f81b60f883901b6001600160f81b03191611155b156111f4576111ee603083611cd7565b92915050565b606160f81b60f883901b6001600160f81b031916108015906112285750603360f91b60f883901b6001600160f81b03191611155b1561124457606161123a83600a611cab565b6111ee9190611cd7565b604160f81b60f883901b6001600160f81b031916108015906112785750602360f91b60f883901b6001600160f81b03191611155b1561128a57604161123a83600a611cab565b506000919050565b6040805180820190915260608152600060208201526112b2602083611c36565b156112da576112c2602083611c36565b6112cd906020611cc4565b6112d79083611c75565b91505b6020808401839052604051808552600081529081840101818110156112fe57600080fd5b604052509192915050565b6017816001600160401b03161161133557825161132f9060e0600585901b168317611450565b50505050565b60ff816001600160401b03161161137557825161135d906018611fe0600586901b1617611450565b50825161132f906001600160401b03831660016114d0565b61ffff816001600160401b0316116113b657825161139e906019611fe0600586901b1617611450565b50825161132f906001600160401b03831660026114d0565b63ffffffff816001600160401b0316116113f95782516113e190601a611fe0600586901b1617611450565b50825161132f906001600160401b03831660046114d0565b825161141090601b611fe0600586901b1617611450565b50825161132f906001600160401b03831660086114d0565b60408051808201909152606081526000602082015261144983838451611555565b9392505050565b6040805180820190915260608152600060208201528251516000611475826001611c75565b9050846020015182106114965761149685611491836002611c5e565b611626565b84516020838201018581535080518211156114af578181525b5093949350505050565b815161111b90601f611fe0600585901b1617611450565b60408051808201909152606081526000602082015283515160006114f48285611c75565b905085602001518111156115115761151186611491836002611c5e565b6000600161152186610100611dd4565b61152b9190611cc4565b90508651828101878319825116178152508051831115611549578281525b50959695505050505050565b604080518082019091526060815260006020820152825182111561157857600080fd5b83515160006115878483611c75565b905085602001518111156115a4576115a486611491836002611c5e565b8551805183820160200191600091808511156115be578482525b505050602086015b602086106115fe57805182526115dd602083611c75565b91506115ea602082611c75565b90506115f7602087611cc4565b95506115c6565b51815160001960208890036101000a0190811690199190911617905250849150509392505050565b81516116328383611292565b5061132f8382611428565b6040518060400160405280611665604051806040016040528060608152602001600081525090565b8152602001600081525090565b634e487b7160e01b600052604160045260246000fd5b60006001600160401b03808411156116a2576116a2611672565b604051601f8501601f19908116603f011681019082821181831017156116ca576116ca611672565b816040528093508581528686860111156116e357600080fd5b858560208301376000602087830101525050509392505050565b600082601f83011261170e57600080fd5b61144983833560208501611688565b60008060006060848603121561173257600080fd5b8335925060208401356001600160401b038082111561175057600080fd5b61175c878388016116fd565b9350604086013591508082111561177257600080fd5b5061177f868287016116fd565b9150509250925092565b60006020828403121561179b57600080fd5b81356001600160401b038116811461144957600080fd5b80356001600160a01b03811681146117c957600080fd5b919050565b600080600080608085870312156117e457600080fd5b6117ed856117b2565b93506117fb602086016117b2565b92506040850135915060608501356001600160401b0381111561181d57600080fd5b611829878288016116fd565b91505092959194509250565b60006020828403121561184757600080fd5b813563ffffffff8116811461144957600080fd5b6000806020838503121561186e57600080fd5b82356001600160401b038082111561188557600080fd5b818501915085601f83011261189957600080fd5b8135818111156118a857600080fd5b8660208285010111156118ba57600080fd5b60209290920196919550909350505050565b6000602082840312156118de57600080fd5b5035919050565b6000815180845260005b8181101561190b576020818501810151868301820152016118ef565b506000602082860101526020601f19601f83011685010191505092915050565b821515815260406020820152600061194660408301846118e5565b949350505050565b60006020828403121561196057600080fd5b81356001600160401b0381111561197657600080fd5b611946848285016116fd565b60208152600061144960208301846118e5565b6000602082840312156119a757600080fd5b611449826117b2565b6000602082840312156119c257600080fd5b81356001600160401b038111156119d857600080fd5b8201601f810184136119e957600080fd5b61194684823560208401611688565b600181811c90821680611a0c57607f821691505b602082108103611a2c57634e487b7160e01b600052602260045260246000fd5b50919050565b601f82111561111b57600081815260208120601f850160051c81016020861015611a595750805b601f850160051c820191505b81811015611a7857828155600101611a65565b505050505050565b81516001600160401b03811115611a9957611a99611672565b611aad81611aa784546119f8565b84611a32565b602080601f831160018114611ae25760008415611aca5750858301515b600019600386901b1c1916600185901b178555611a78565b600085815260208120601f198616915b82811015611b1157888601518255948401946001909101908401611af2565b5085821015611b2f5787850151600019600388901b60f8161c191681555b5050505050600190811b01905550565b6001600160a01b039384168152919092166020820152604081019190915260600190565b634e487b7160e01b600052602160045260246000fd5b634e487b7160e01b600052603260045260246000fd5b634e487b7160e01b600052601160045260246000fd5b600060018201611bb757611bb7611b8f565b5060010190565b6001600160401b038616815260a060208201526000611be060a08301876118e5565b61ffff9590951660408301525063ffffffff92909216606083015260809091015292915050565b600060208284031215611c1957600080fd5b5051919050565b634e487b7160e01b600052601260045260246000fd5b600082611c4557611c45611c20565b500690565b600082611c5957611c59611c20565b500490565b80820281158282048414176111ee576111ee611b8f565b808201808211156111ee576111ee611b8f565b60ff8181168382160290811690818114611ca457611ca4611b8f565b5092915050565b60ff81811683821601908111156111ee576111ee611b8f565b818103818111156111ee576111ee611b8f565b60ff82811682821603908111156111ee576111ee611b8f565b600181815b80851115611d2b578160001904821115611d1157611d11611b8f565b80851615611d1e57918102915b93841c9390800290611cf5565b509250929050565b600082611d42575060016111ee565b81611d4f575060006111ee565b8160018114611d655760028114611d6f57611d8b565b60019150506111ee565b60ff841115611d8057611d80611b8f565b50506001821b6111ee565b5060208310610133831016604e8410600b8410161715611dae575081810a6111ee565b611db88383611cf0565b8060001904821115611dcc57611dcc611b8f565b029392505050565b60006114498383611d3356fea26469706673582212205f99656d6501cd9c77e8edfe3be0d4d38b9e6c043fb10c6bdbd2d1e2a5eaa75464736f6c634300081400331e9ce0fe8dc86ffbb0e3511f190d8f7703f26b8a425447b37518e52a69f30ee69395d5d5613761ee019fa13949aea7cd6ca33c7e784895e7229642c52f556297fe4b467dc2014656d4642a7d358fc50735cd038d22aa01b56b3cd1ab3f40c1e472a19ba51d9727caee09f1ff7000586f589205b8eb9d27788488253e5f740770d54ccb9443a8c78b6143c4fd917bbf161a636f6e7374207469746c654964203d20273345413434273b636f6e7374207374617469737469634e616d65203d2027656e656d6965734b696c6c6564273b636f6e7374207374617274506f736974696f6e203d20303b636f6e7374206d6178526573756c7473436f756e74203d20313b636f6e737420656e636f64656450726f66696c65436f6e73747261696e7473203d20656e636f6465555249436f6d706f6e656e74284a534f4e2e737472696e67696679287b2053686f774c696e6b65644163636f756e74733a2074727565207d29293b636f6e7374206765744c6561646572626f61726455726c203d206068747470733a2f2f247b7469746c6549647d2e706c61796661626170692e636f6d2f5365727665722f4765744c6561646572626f6172643f5374617469737469634e616d653d247b7374617469737469634e616d657d265374617274506f736974696f6e3d247b7374617274506f736974696f6e7d264d6178526573756c7473436f756e743d247b6d6178526573756c7473436f756e747d603b636f6e737420676574557365724163636f756e74496e666f55726c203d206068747470733a2f2f247b7469746c6549647d2e706c61796661626170692e636f6d2f5365727665722f476574557365724163636f756e74496e666f603b636f6e7374206c6561646572626f617264526571203d2061776169742046756e6374696f6e732e6d616b654874747052657175657374287b75726c3a206765744c6561646572626f61726455726c2c6d6574686f643a2027504f5354272c686561646572733a207b27436f6e74656e742d54797065273a20276170706c69636174696f6e2f6a736f6e272c274163636570742d456e636f64696e67273a20276964656e74697479272c27582d5365637265744b6579273a20736563726574732e706c61796661624170694b65797d2c7d293b696620286c6561646572626f6172645265712e6572726f7229207468726f77206e6577204572726f722860247b6c6561646572626f6172645265712e6d6573736167657d60293b636f6e737420706c61794661624964203d206c6561646572626f6172645265712e646174612e646174612e4c6561646572626f6172645b305d2e506c617946616249643b636f6e737420617069526573706f6e7365203d2061776169742046756e6374696f6e732e6d616b654874747052657175657374287b75726c3a20676574557365724163636f756e74496e666f55726c2c6d6574686f643a2027504f5354272c686561646572733a207b27436f6e74656e742d54797065273a20276170706c69636174696f6e2f6a736f6e272c274163636570742d456e636f64696e67273a20276964656e74697479272c27582d5365637265744b6579273a20736563726574732e706c61796661624170694b65797d2c706172616d733a7b27506c61794661624944273a20706c617946616249642c7d7d293b69662028617069526573706f6e73652e6572726f7229207468726f77206e6577204572726f722860247b617069526573706f6e73652e6d6573736167657d60293b72657475726e2046756e6374696f6e732e656e636f6465537472696e6728617069526573706f6e73652e646174612e646174612e55736572496e666f2e437573746f6d4964496e666f2e437573746f6d4964293b",
  "linkReferences": {},
  "deployedLinkReferences": {}
}