{
  "_format": "hh-sol-artifact-1",
  "contractName": "GameManager",
  "sourceName": "contracts/demo-game00/GameManager.sol",
  "abi": [
    {
      "inputs": [
        {
          "internalType": "address",
          "name": "factory_",
          "type": "address"
        }
      ],
      "stateMutability": "nonpayable",
      "type": "constructor"
    },
    {
      "inputs": [],
      "name": "EmptySecrets",
      "type": "error"
    },
    {
      "inputs": [],
      "name": "EmptySource",
      "type": "error"
    },
    {
      "inputs": [],
      "name": "NoInlineSecrets",
      "type": "error"
    },
    {
      "inputs": [],
      "name": "OnlyRouterCanFulfill",
      "type": "error"
    },
    {
      "inputs": [
        {
          "internalType": "address",
          "name": "owner",
          "type": "address"
        }
      ],
      "name": "OwnableInvalidOwner",
      "type": "error"
    },
    {
      "inputs": [
        {
          "internalType": "address",
          "name": "account",
          "type": "address"
        }
      ],
      "name": "OwnableUnauthorizedAccount",
      "type": "error"
    },
    {
      "anonymous": false,
      "inputs": [
        {
          "indexed": false,
          "internalType": "address",
          "name": "winner",
          "type": "address"
        },
        {
          "indexed": false,
          "internalType": "bytes",
          "name": "errors",
          "type": "bytes"
        }
      ],
      "name": "ChallengeFulfilled",
      "type": "event"
    },
    {
      "anonymous": false,
      "inputs": [
        {
          "indexed": true,
          "internalType": "address",
          "name": "previousOwner",
          "type": "address"
        },
        {
          "indexed": true,
          "internalType": "address",
          "name": "newOwner",
          "type": "address"
        }
      ],
      "name": "OwnershipTransferred",
      "type": "event"
    },
    {
      "anonymous": false,
      "inputs": [
        {
          "indexed": true,
          "internalType": "bytes32",
          "name": "id",
          "type": "bytes32"
        }
      ],
      "name": "RequestFulfilled",
      "type": "event"
    },
    {
      "anonymous": false,
      "inputs": [
        {
          "indexed": true,
          "internalType": "bytes32",
          "name": "id",
          "type": "bytes32"
        }
      ],
      "name": "RequestSent",
      "type": "event"
    },
    {
      "inputs": [
        {
          "internalType": "bytes",
          "name": "",
          "type": "bytes"
        }
      ],
      "name": "checkUpkeep",
      "outputs": [
        {
          "internalType": "bool",
          "name": "upkeepNeeded",
          "type": "bool"
        },
        {
          "internalType": "bytes",
          "name": "",
          "type": "bytes"
        }
      ],
      "stateMutability": "view",
      "type": "function"
    },
    {
      "inputs": [],
      "name": "donId",
      "outputs": [
        {
          "internalType": "bytes32",
          "name": "",
          "type": "bytes32"
        }
      ],
      "stateMutability": "view",
      "type": "function"
    },
    {
      "inputs": [],
      "name": "encryptedSecretsUrls",
      "outputs": [
        {
          "internalType": "bytes",
          "name": "",
          "type": "bytes"
        }
      ],
      "stateMutability": "view",
      "type": "function"
    },
    {
      "inputs": [],
      "name": "endDate",
      "outputs": [
        {
          "internalType": "uint256",
          "name": "",
          "type": "uint256"
        }
      ],
      "stateMutability": "view",
      "type": "function"
    },
    {
      "inputs": [
        {
          "internalType": "bytes32",
          "name": "",
          "type": "bytes32"
        }
      ],
      "name": "errors",
      "outputs": [
        {
          "internalType": "bytes",
          "name": "",
          "type": "bytes"
        }
      ],
      "stateMutability": "view",
      "type": "function"
    },
    {
      "inputs": [],
      "name": "factory",
      "outputs": [
        {
          "internalType": "contract IERC721",
          "name": "",
          "type": "address"
        }
      ],
      "stateMutability": "view",
      "type": "function"
    },
    {
      "inputs": [],
      "name": "gasLimit",
      "outputs": [
        {
          "internalType": "uint32",
          "name": "",
          "type": "uint32"
        }
      ],
      "stateMutability": "view",
      "type": "function"
    },
    {
      "inputs": [
        {
          "internalType": "bytes32",
          "name": "requestId",
          "type": "bytes32"
        },
        {
          "internalType": "bytes",
          "name": "response",
          "type": "bytes"
        },
        {
          "internalType": "bytes",
          "name": "err",
          "type": "bytes"
        }
      ],
      "name": "handleOracleFulfillment",
      "outputs": [],
      "stateMutability": "nonpayable",
      "type": "function"
    },
    {
      "inputs": [],
      "name": "nftsSended",
      "outputs": [
        {
          "internalType": "bool",
          "name": "",
          "type": "bool"
        }
      ],
      "stateMutability": "view",
      "type": "function"
    },
    {
      "inputs": [
        {
          "internalType": "address",
          "name": "",
          "type": "address"
        },
        {
          "internalType": "address",
          "name": "",
          "type": "address"
        },
        {
          "internalType": "uint256",
          "name": "",
          "type": "uint256"
        },
        {
          "internalType": "bytes",
          "name": "",
          "type": "bytes"
        }
      ],
      "name": "onERC721Received",
      "outputs": [
        {
          "internalType": "bytes4",
          "name": "",
          "type": "bytes4"
        }
      ],
      "stateMutability": "nonpayable",
      "type": "function"
    },
    {
      "inputs": [],
      "name": "owner",
      "outputs": [
        {
          "internalType": "address",
          "name": "",
          "type": "address"
        }
      ],
      "stateMutability": "view",
      "type": "function"
    },
    {
      "inputs": [
        {
          "internalType": "bytes",
          "name": "",
          "type": "bytes"
        }
      ],
      "name": "performUpkeep",
      "outputs": [],
      "stateMutability": "nonpayable",
      "type": "function"
    },
    {
      "inputs": [],
      "name": "renounceOwnership",
      "outputs": [],
      "stateMutability": "nonpayable",
      "type": "function"
    },
    {
      "inputs": [],
      "name": "router",
      "outputs": [
        {
          "internalType": "address",
          "name": "",
          "type": "address"
        }
      ],
      "stateMutability": "view",
      "type": "function"
    },
    {
      "inputs": [],
      "name": "sendRequest",
      "outputs": [],
      "stateMutability": "nonpayable",
      "type": "function"
    },
    {
      "inputs": [],
      "name": "subscriptionId",
      "outputs": [
        {
          "internalType": "uint64",
          "name": "",
          "type": "uint64"
        }
      ],
      "stateMutability": "view",
      "type": "function"
    },
    {
      "inputs": [
        {
          "internalType": "address",
          "name": "newOwner",
          "type": "address"
        }
      ],
      "name": "transferOwnership",
      "outputs": [],
      "stateMutability": "nonpayable",
      "type": "function"
    },
    {
      "inputs": [
        {
          "internalType": "bytes32",
          "name": "donId_",
          "type": "bytes32"
        }
      ],
      "name": "updateDonId",
      "outputs": [],
      "stateMutability": "nonpayable",
      "type": "function"
    },
    {
      "inputs": [
        {
          "internalType": "bytes",
          "name": "encryptedSecretsUrls_",
          "type": "bytes"
        }
      ],
      "name": "updateEncryptedSecretsUrls",
      "outputs": [],
      "stateMutability": "nonpayable",
      "type": "function"
    },
    {
      "inputs": [
        {
          "internalType": "uint256",
          "name": "endDate_",
          "type": "uint256"
        }
      ],
      "name": "updateEndDate",
      "outputs": [],
      "stateMutability": "nonpayable",
      "type": "function"
    },
    {
      "inputs": [
        {
          "internalType": "address",
          "name": "factory_",
          "type": "address"
        }
      ],
      "name": "updateFactory",
      "outputs": [],
      "stateMutability": "nonpayable",
      "type": "function"
    },
    {
      "inputs": [
        {
          "internalType": "uint32",
          "name": "gasLimit_",
          "type": "uint32"
        }
      ],
      "name": "updateGasLimit",
      "outputs": [],
      "stateMutability": "nonpayable",
      "type": "function"
    },
    {
      "inputs": [
        {
          "internalType": "address",
          "name": "router_",
          "type": "address"
        }
      ],
      "name": "updateRouter",
      "outputs": [],
      "stateMutability": "nonpayable",
      "type": "function"
    },
    {
      "inputs": [
        {
          "internalType": "string",
          "name": "source_",
          "type": "string"
        }
      ],
      "name": "updateSource",
      "outputs": [],
      "stateMutability": "nonpayable",
      "type": "function"
    },
    {
      "inputs": [
        {
          "internalType": "uint64",
          "name": "subscriptionId_",
          "type": "uint64"
        }
      ],
      "name": "updateSubscriptionId",
      "outputs": [],
      "stateMutability": "nonpayable",
      "type": "function"
    },
    {
      "inputs": [],
      "name": "winner",
      "outputs": [
        {
          "internalType": "address",
          "name": "",
          "type": "address"
        }
      ],
      "stateMutability": "view",
      "type": "function"
    }
  ],
  "bytecode": "0x6365830f8060025560038054600160a81b600160e81b03191661036b60a91b179055610160604052609160a0818152906200220460c03960049062000045908262000262565b50600580546001600160a01b03191673a9d587a00a31a52ed70d6026794a8fc5e2f5dcb01790557f66756e2d6176616c616e6368652d66756a692d310000000000000000000000006006556007805463ffffffff1916620493e017905560408051610480810190915261045e808252620022956020830139600990620000cc908262000262565b50348015620000da57600080fd5b50604051620026f3380380620026f3833981016040819052620000fd916200032e565b6005546001600160a01b031633806200013057604051631e4fbdf760e01b81526000600482015260240160405180910390fd5b6200013b816200016d565b506001600160a01b0390811660805260038054610100600160a81b031916610100939092169290920217905562000360565b600080546001600160a01b038381166001600160a01b0319831681178455604051919092169283917f8be0079c531659141344cd1fd0a4f28419497f9722a3daafe3b4186f6b6457e09190a35050565b634e487b7160e01b600052604160045260246000fd5b600181811c90821680620001e857607f821691505b6020821081036200020957634e487b7160e01b600052602260045260246000fd5b50919050565b601f8211156200025d57600081815260208120601f850160051c81016020861015620002385750805b601f850160051c820191505b81811015620002595782815560010162000244565b5050505b505050565b81516001600160401b038111156200027e576200027e620001bd565b62000296816200028f8454620001d3565b846200020f565b602080601f831160018114620002ce5760008415620002b55750858301515b600019600386901b1c1916600185901b17855562000259565b600085815260208120601f198616915b82811015620002ff57888601518255948401946001909101908401620002de565b50858210156200031e5787850151600019600388901b60f8161c191681555b5050505050600190811b01905550565b6000602082840312156200034157600080fd5b81516001600160a01b03811681146200035957600080fd5b9392505050565b608051611e8162000383600039600081816103fd0152610eb50152611e816000f3fe608060405234801561001057600080fd5b506004361061018e5760003560e01c8063be41cee3116100de578063dfbf53ae11610097578063f60ce3c411610071578063f60ce3c41461038a578063f68016b71461039d578063f6feca37146103c2578063f887ea40146103df57600080fd5b8063dfbf53ae14610351578063ef2bbbdf14610364578063f2fde38b1461037757600080fd5b8063be41cee3146102e2578063c24a0f8b14610302578063c45a01551461030b578063c851cc3214610323578063d9f165dc14610336578063dab79c401461034957600080fd5b80634585e33b1161014b578063715018a611610125578063715018a61461028b5780638da5cb5b146102935780638dbe7b9d146102b8578063a42f3b2f146102cf57600080fd5b80634585e33b146102445780636df0c747146102575780636e04ff0d1461026a57600080fd5b806309c1ba2e146101935780630ca76175146101ca57806314b1dd1b146101df578063150b7a02146101f25780631bee2f2a1461022957806334303bcd14610231575b600080fd5b6003546101ad90600160a81b90046001600160401b031681565b6040516001600160401b0390911681526020015b60405180910390f35b6101dd6101d8366004611764565b6103f2565b005b6101dd6101ed3660046117d0565b610476565b610210610200366004611815565b630a85bd0160e11b949350505050565b6040516001600160e01b031990911681526020016101c1565b6101dd6104ab565b6101dd61023f36600461187c565b6104bd565b6101dd6102523660046118a2565b6104e1565b6101dd610265366004611913565b610506565b61027d6102783660046118a2565b610513565b6040516101c1929190611972565b6101dd610534565b6000546001600160a01b03165b6040516001600160a01b0390911681526020016101c1565b6102c160065481565b6040519081526020016101c1565b6101dd6102dd366004611995565b610546565b6102f56102f0366004611913565b61055a565b6040516101c191906119c9565b6102c160025481565b6003546102a09061010090046001600160a01b031681565b6101dd6103313660046119dc565b6105f4565b6101dd6103443660046119dc565b61061e565b6102f561064e565b6001546102a0906001600160a01b031681565b6101dd610372366004611913565b61065b565b6101dd6103853660046119dc565b610668565b6101dd6103983660046119f7565b6106ab565b6007546103ad9063ffffffff1681565b60405163ffffffff90911681526020016101c1565b6003546103cf9060ff1681565b60405190151581526020016101c1565b6005546102a0906001600160a01b031681565b336001600160a01b037f0000000000000000000000000000000000000000000000000000000000000000161461043b5760405163c6829f8360e01b815260040160405180910390fd5b6104468383836106bf565b60405183907f85e1543bf2f84fe80c6badbce3648c8539ad1df4d2b3d822938ca0538be727e690600090a2505050565b61047e6108ff565b600380546001600160401b03909216600160a81b0267ffffffffffffffff60a81b19909216919091179055565b6104b36108ff565b6104bb61092c565b565b6104c56108ff565b6007805463ffffffff191663ffffffff92909216919091179055565b600254421180156104f5575060035460ff16155b156105025761050261092c565b5050565b61050e6108ff565b600655565b600060606002544211801561052b575060035460ff16155b91509250929050565b61053c6108ff565b6104bb6000610ae9565b61054e6108ff565b60046105028282611ac7565b6008602052600090815260409020805461057390611a3f565b80601f016020809104026020016040519081016040528092919081815260200182805461059f90611a3f565b80156105ec5780601f106105c1576101008083540402835291602001916105ec565b820191906000526020600020905b8154815290600101906020018083116105cf57829003601f168201915b505050505081565b6105fc6108ff565b600580546001600160a01b0319166001600160a01b0392909216919091179055565b6106266108ff565b600380546001600160a01b0390921661010002610100600160a81b0319909216919091179055565b6004805461057390611a3f565b6106636108ff565b600255565b6106706108ff565b6001600160a01b03811661069f57604051631e4fbdf760e01b8152600060048201526024015b60405180910390fd5b6106a881610ae9565b50565b6106b36108ff565b60096105028282611ac7565b60008381526008602052604090206106d78282611ac7565b506106e182610b39565b600180546001600160a01b0319166001600160a01b03928316908117909155600354604051632142170760e11b8152610100909104909216916342842e0e9161073291309190600090600401611b86565b600060405180830381600087803b15801561074c57600080fd5b505af1158015610760573d6000803e3d6000fd5b505060035460018054604051632142170760e11b81526001600160a01b03610100909404841695506342842e0e94506107a193309392169190600401611b86565b600060405180830381600087803b1580156107bb57600080fd5b505af11580156107cf573d6000803e3d6000fd5b5050600354600154604051632142170760e11b81526001600160a01b03610100909304831694506342842e0e93506108109230921690600290600401611b86565b600060405180830381600087803b15801561082a57600080fd5b505af115801561083e573d6000803e3d6000fd5b505060038054600154604051632142170760e11b81526001600160a01b03610100909304831695506342842e0e9450610881933093929092169190600401611b86565b600060405180830381600087803b15801561089b57600080fd5b505af11580156108af573d6000803e3d6000fd5b50506001546040517f8b78bce071b02f296d7efee39b7ca0f3180fb1212df820d3f4c28bfd5dba5c4a93506108f292506001600160a01b03909116908490611baa565b60405180910390a1505050565b6000546001600160a01b031633146104bb5760405163118cdaa760e01b8152336004820152602401610696565b6003805460ff1916600117905561097a6040805160e0810190915280600081526020016000815260200160008152602001606081526020016060815260200160608152602001606081525090565b610a176009805461098a90611a3f565b80601f01602080910402602001604051908101604052809291908181526020018280546109b690611a3f565b8015610a035780601f106109d857610100808354040283529160200191610a03565b820191906000526020600020905b8154815290600101906020018083116109e657829003601f168201915b505050505082610b9a90919063ffffffff16565b610ab460048054610a2790611a3f565b80601f0160208091040260200160405190810160405280929190818152602001828054610a5390611a3f565b8015610aa05780601f10610a7557610100808354040283529160200191610aa0565b820191906000526020600020905b815481529060010190602001808311610a8357829003601f168201915b505050505082610ba790919063ffffffff16565b610502610ac082610bd8565b600354600754600654600160a81b9092046001600160401b03169163ffffffff90911690610eb0565b600080546001600160a01b038381166001600160a01b0319831681178455604051919092169283917f8be0079c531659141344cd1fd0a4f28419497f9722a3daafe3b4186f6b6457e09190a35050565b600080610b4583610f82565b9050601581511015610b895760405162461bcd60e51b815260206004820152600d60248201526c4f7574206f6620626f756e647360981b6044820152606401610696565b60210151600160601b900492915050565b61050282600080846110aa565b8051600003610bc95760405163e889636f60e01b815260040160405180910390fd5b60016020830152608090910152565b60606000610be7610100611128565b9050610c206040518060400160405280600c81526020016b31b7b232a637b1b0ba34b7b760a11b8152508261114990919063ffffffff16565b8251610c3e906002811115610c3757610c37611bce565b8290611167565b6040805180820190915260088152676c616e677561676560c01b6020820152610c68908290611149565b6040830151610c7f908015610c3757610c37611bce565b604080518082019091526006815265736f7572636560d01b6020820152610ca7908290611149565b6060830151610cb7908290611149565b60a08301515115610d4b576040805180820190915260048152636172677360e01b6020820152610ce8908290611149565b610cf1816111a0565b60005b8360a0015151811015610d4157610d318460a001518281518110610d1a57610d1a611be4565b60200260200101518361114990919063ffffffff16565b610d3a81611c10565b9050610cf4565b50610d4b816111c4565b60808301515115610e0f57600083602001516002811115610d6e57610d6e611bce565b03610d8c5760405163a80d31f760e01b815260040160405180910390fd5b60408051808201909152600f81526e39b2b1b932ba39a637b1b0ba34b7b760891b6020820152610dbd908290611149565b610dd683602001516002811115610c3757610c37611bce565b6040805180820190915260078152667365637265747360c81b6020820152610dff908290611149565b6080830151610e0f9082906111e2565b60c08301515115610ea85760408051808201909152600981526862797465734172677360b81b6020820152610e45908290611149565b610e4e816111a0565b60005b8360c0015151811015610e9e57610e8e8460c001518281518110610e7757610e77611be4565b6020026020010151836111e290919063ffffffff16565b610e9781611c10565b9050610e51565b50610ea8816111c4565b515192915050565b6000807f00000000000000000000000000000000000000000000000000000000000000006001600160a01b031663461d27628688600188886040518663ffffffff1660e01b8152600401610f08959493929190611c29565b6020604051808303816000875af1158015610f27573d6000803e3d6000fd5b505050506040513d601f19601f82011682018060405250810190610f4b9190611c72565b60405190915081907f1131472297a800fee664d1d89cfa8f7676ff07189ecc53f80bbb5f4969099db890600090a295945050505050565b80516060908290610f9590600290611ca1565b15610f9f57600080fd5b600060028251610faf9190611cb5565b6001600160401b03811115610fc657610fc66116b9565b6040519080825280601f01601f191660200182016040528015610ff0576020820181803683370190505b50905060005b600283516110049190611cb5565b8110156110a2576110428361101a836002611cc9565b611025906001611ce0565b8151811061103557611035611be4565b016020015160f81c6111ef565b61105184611025846002611cc9565b61105c906010611cf3565b6110669190611d16565b60f81b82828151811061107b5761107b611be4565b60200101906001600160f81b031916908160001a90535061109b81611c10565b9050610ff6565b509392505050565b80516000036110cc576040516322ce3edd60e01b815260040160405180910390fd5b838360028111156110df576110df611bce565b908160028111156110f2576110f2611bce565b9052506040840182801561110857611108611bce565b9081801561111857611118611bce565b9052506060909301929092525050565b611130611684565b805161113c90836112d9565b5060006020820152919050565b6111568260038351611350565b8151611162908261146f565b505050565b81516111749060c2611497565b50610502828260405160200161118c91815260200190565b6040516020818303038152906040526111e2565b6111ab816004611500565b6001816020018181516111be9190611ce0565b90525050565b6111cf816007611500565b6001816020018181516111be9190611d2f565b6111568260028351611350565b6000600360fc1b60f883901b6001600160f81b031916108015906112255750603960f81b60f883901b6001600160f81b03191611155b1561123b57611235603083611d42565b92915050565b606160f81b60f883901b6001600160f81b0319161080159061126f5750603360f91b60f883901b6001600160f81b03191611155b1561128b57606161128183600a611d16565b6112359190611d42565b604160f81b60f883901b6001600160f81b031916108015906112bf5750602360f91b60f883901b6001600160f81b03191611155b156112d157604161128183600a611d16565b506000919050565b6040805180820190915260608152600060208201526112f9602083611ca1565b1561132157611309602083611ca1565b611314906020611d2f565b61131e9083611ce0565b91505b60208084018390526040518085526000815290818401018181101561134557600080fd5b604052509192915050565b6017816001600160401b03161161137c5782516113769060e0600585901b168317611497565b50505050565b60ff816001600160401b0316116113bc5782516113a4906018611fe0600586901b1617611497565b508251611376906001600160401b0383166001611517565b61ffff816001600160401b0316116113fd5782516113e5906019611fe0600586901b1617611497565b508251611376906001600160401b0383166002611517565b63ffffffff816001600160401b03161161144057825161142890601a611fe0600586901b1617611497565b508251611376906001600160401b0383166004611517565b825161145790601b611fe0600586901b1617611497565b508251611376906001600160401b0383166008611517565b6040805180820190915260608152600060208201526114908383845161159c565b9392505050565b60408051808201909152606081526000602082015282515160006114bc826001611ce0565b9050846020015182106114dd576114dd856114d8836002611cc9565b61166d565b84516020838201018581535080518211156114f6578181525b5093949350505050565b815161116290601f611fe0600585901b1617611497565b604080518082019091526060815260006020820152835151600061153b8285611ce0565b9050856020015181111561155857611558866114d8836002611cc9565b6000600161156886610100611e3f565b6115729190611d2f565b90508651828101878319825116178152508051831115611590578281525b50959695505050505050565b60408051808201909152606081526000602082015282518211156115bf57600080fd5b83515160006115ce8483611ce0565b905085602001518111156115eb576115eb866114d8836002611cc9565b855180518382016020019160009180851115611605578482525b505050602086015b602086106116455780518252611624602083611ce0565b9150611631602082611ce0565b905061163e602087611d2f565b955061160d565b51815160001960208890036101000a0190811690199190911617905250849150509392505050565b815161167983836112d9565b50611376838261146f565b60405180604001604052806116ac604051806040016040528060608152602001600081525090565b8152602001600081525090565b634e487b7160e01b600052604160045260246000fd5b60006001600160401b03808411156116e9576116e96116b9565b604051601f8501601f19908116603f01168101908282118183101715611711576117116116b9565b8160405280935085815286868601111561172a57600080fd5b858560208301376000602087830101525050509392505050565b600082601f83011261175557600080fd5b611490838335602085016116cf565b60008060006060848603121561177957600080fd5b8335925060208401356001600160401b038082111561179757600080fd5b6117a387838801611744565b935060408601359150808211156117b957600080fd5b506117c686828701611744565b9150509250925092565b6000602082840312156117e257600080fd5b81356001600160401b038116811461149057600080fd5b80356001600160a01b038116811461181057600080fd5b919050565b6000806000806080858703121561182b57600080fd5b611834856117f9565b9350611842602086016117f9565b92506040850135915060608501356001600160401b0381111561186457600080fd5b61187087828801611744565b91505092959194509250565b60006020828403121561188e57600080fd5b813563ffffffff8116811461149057600080fd5b600080602083850312156118b557600080fd5b82356001600160401b03808211156118cc57600080fd5b818501915085601f8301126118e057600080fd5b8135818111156118ef57600080fd5b86602082850101111561190157600080fd5b60209290920196919550909350505050565b60006020828403121561192557600080fd5b5035919050565b6000815180845260005b8181101561195257602081850181015186830182015201611936565b506000602082860101526020601f19601f83011685010191505092915050565b821515815260406020820152600061198d604083018461192c565b949350505050565b6000602082840312156119a757600080fd5b81356001600160401b038111156119bd57600080fd5b61198d84828501611744565b602081526000611490602083018461192c565b6000602082840312156119ee57600080fd5b611490826117f9565b600060208284031215611a0957600080fd5b81356001600160401b03811115611a1f57600080fd5b8201601f81018413611a3057600080fd5b61198d848235602084016116cf565b600181811c90821680611a5357607f821691505b602082108103611a7357634e487b7160e01b600052602260045260246000fd5b50919050565b601f82111561116257600081815260208120601f850160051c81016020861015611aa05750805b601f850160051c820191505b81811015611abf57828155600101611aac565b505050505050565b81516001600160401b03811115611ae057611ae06116b9565b611af481611aee8454611a3f565b84611a79565b602080601f831160018114611b295760008415611b115750858301515b600019600386901b1c1916600185901b178555611abf565b600085815260208120601f198616915b82811015611b5857888601518255948401946001909101908401611b39565b5085821015611b765787850151600019600388901b60f8161c191681555b5050505050600190811b01905550565b6001600160a01b039384168152919092166020820152604081019190915260600190565b6001600160a01b038316815260406020820181905260009061198d9083018461192c565b634e487b7160e01b600052602160045260246000fd5b634e487b7160e01b600052603260045260246000fd5b634e487b7160e01b600052601160045260246000fd5b600060018201611c2257611c22611bfa565b5060010190565b6001600160401b038616815260a060208201526000611c4b60a083018761192c565b61ffff9590951660408301525063ffffffff92909216606083015260809091015292915050565b600060208284031215611c8457600080fd5b5051919050565b634e487b7160e01b600052601260045260246000fd5b600082611cb057611cb0611c8b565b500690565b600082611cc457611cc4611c8b565b500490565b808202811582820484141761123557611235611bfa565b8082018082111561123557611235611bfa565b60ff8181168382160290811690818114611d0f57611d0f611bfa565b5092915050565b60ff818116838216019081111561123557611235611bfa565b8181038181111561123557611235611bfa565b60ff828116828216039081111561123557611235611bfa565b600181815b80851115611d96578160001904821115611d7c57611d7c611bfa565b80851615611d8957918102915b93841c9390800290611d60565b509250929050565b600082611dad57506001611235565b81611dba57506000611235565b8160018114611dd05760028114611dda57611df6565b6001915050611235565b60ff841115611deb57611deb611bfa565b50506001821b611235565b5060208310610133831016604e8410600b8410161715611e19575081810a611235565b611e238383611d5b565b8060001904821115611e3757611e37611bfa565b029392505050565b60006114908383611d9e56fea2646970667358221220a5b1b565337b1e2ccd44e8c2578f22bb3b1d55e1de43c38bf7fa933b5a214a0664736f6c634300081400333e1d02d274f82e20df6b75193cc7b9d202d3e1841dee24913f2d5c5efb3c51bb813aba0b77e269b8c94106c394e311fa6ec2916704e1f2aed1ad9ee11e7891ebd0afe6fc6c11a6dfa63aa590539fe38e25f88ec5da2103d0f809026288dba6ce49f3e643feebd856a47ab4a98f92449cf3b8fc5fd538ed09e7595df512c2b2c285af7ce9cdfc605cf16f376dc530e5f749636f6e7374207469746c654964203d20273345413434273b636f6e7374207374617469737469634e616d65203d20276c6576656c273b636f6e7374207374617274506f736974696f6e203d20303b636f6e7374206d6178526573756c7473436f756e74203d20313b636f6e7374206765744c6561646572626f61726455726c203d206068747470733a2f2f247b7469746c6549647d2e706c61796661626170692e636f6d2f5365727665722f4765744c6561646572626f6172643f5374617469737469634e616d653d247b7374617469737469634e616d657d265374617274506f736974696f6e3d247b7374617274506f736974696f6e7d264d6178526573756c7473436f756e743d247b6d6178526573756c7473436f756e747d603b636f6e737420676574557365724163636f756e74496e666f55726c203d206068747470733a2f2f247b7469746c6549647d2e706c61796661626170692e636f6d2f5365727665722f476574557365724163636f756e74496e666f603b636f6e7374206c6561646572626f617264526571203d2061776169742046756e6374696f6e732e6d616b654874747052657175657374287b75726c3a206765744c6561646572626f61726455726c2c6d6574686f643a2027504f5354272c686561646572733a207b27436f6e74656e742d54797065273a20276170706c69636174696f6e2f6a736f6e272c274163636570742d456e636f64696e67273a20276964656e74697479272c27582d5365637265744b6579273a20736563726574732e706c61796661624170694b65797d2c7d293b696620286c6561646572626f6172645265712e6572726f7229207468726f77206e6577204572726f722860247b6c6561646572626f6172645265712e6d6573736167657d60293b636f6e737420706c61794661624964203d206c6561646572626f6172645265712e646174612e646174612e4c6561646572626f6172645b305d2e506c617946616249643b636f6e737420617069526573706f6e7365203d2061776169742046756e6374696f6e732e6d616b654874747052657175657374287b75726c3a20676574557365724163636f756e74496e666f55726c2c6d6574686f643a2027504f5354272c686561646572733a207b27436f6e74656e742d54797065273a20276170706c69636174696f6e2f6a736f6e272c274163636570742d456e636f64696e67273a20276964656e74697479272c27582d5365637265744b6579273a20736563726574732e706c61796661624170694b65797d2c706172616d733a7b27506c61794661624944273a20706c617946616249642c7d7d293b69662028617069526573706f6e73652e6572726f7229207468726f77206e6577204572726f722860247b617069526573706f6e73652e6d6573736167657d60293b72657475726e2046756e6374696f6e732e656e636f6465537472696e6728617069526573706f6e73652e646174612e646174612e55736572496e666f2e437573746f6d4964496e666f2e437573746f6d4964293b",
  "linkReferences": {},
  "deployedLinkReferences": {}
}