{"contracts/IPFSManager.sol":{"IPFSManager":{"abi":[{"inputs":[],"stateMutability":"nonpayable","type":"constructor"},{"inputs":[],"name":"EmptyArgs","type":"error"},{"inputs":[],"name":"EmptySecrets","type":"error"},{"inputs":[],"name":"EmptySource","type":"error"},{"inputs":[],"name":"NoInlineSecrets","type":"error"},{"inputs":[],"name":"OnlyRouterCanFulfill","type":"error"},{"inputs":[{"internalType":"address","name":"owner","type":"address"}],"name":"OwnableInvalidOwner","type":"error"},{"inputs":[{"internalType":"address","name":"account","type":"address"}],"name":"OwnableUnauthorizedAccount","type":"error"},{"inputs":[],"name":"UnauthorizedSender","type":"error"},{"anonymous":false,"inputs":[{"indexed":true,"internalType":"address","name":"previousOwner","type":"address"},{"indexed":true,"internalType":"address","name":"newOwner","type":"address"}],"name":"OwnershipTransferred","type":"event"},{"anonymous":false,"inputs":[{"indexed":true,"internalType":"bytes32","name":"id","type":"bytes32"}],"name":"RequestFulfilled","type":"event"},{"anonymous":false,"inputs":[{"indexed":true,"internalType":"bytes32","name":"id","type":"bytes32"}],"name":"RequestSent","type":"event"},{"anonymous":false,"inputs":[{"indexed":false,"internalType":"bytes32","name":"requestId","type":"bytes32"},{"indexed":false,"internalType":"string","name":"ipfsUri","type":"string"},{"indexed":false,"internalType":"bytes","name":"errors","type":"bytes"}],"name":"Response","type":"event"},{"inputs":[],"name":"adsManager","outputs":[{"internalType":"contract IAdsManager","name":"","type":"address"}],"stateMutability":"view","type":"function"},{"inputs":[{"internalType":"bool","name":"contractOrToken","type":"bool"},{"internalType":"string[]","name":"args","type":"string[]"}],"name":"createMetadata","outputs":[{"internalType":"bytes32","name":"","type":"bytes32"}],"stateMutability":"nonpayable","type":"function"},{"inputs":[],"name":"donId","outputs":[{"internalType":"bytes32","name":"","type":"bytes32"}],"stateMutability":"view","type":"function"},{"inputs":[],"name":"encryptedSecretsUrls","outputs":[{"internalType":"bytes","name":"","type":"bytes"}],"stateMutability":"view","type":"function"},{"inputs":[{"internalType":"bytes32","name":"","type":"bytes32"}],"name":"errors","outputs":[{"internalType":"bytes","name":"","type":"bytes"}],"stateMutability":"view","type":"function"},{"inputs":[],"name":"gasLimit","outputs":[{"internalType":"uint32","name":"","type":"uint32"}],"stateMutability":"view","type":"function"},{"inputs":[{"internalType":"bytes32","name":"requestId","type":"bytes32"},{"internalType":"bytes","name":"response","type":"bytes"},{"internalType":"bytes","name":"err","type":"bytes"}],"name":"handleOracleFulfillment","outputs":[],"stateMutability":"nonpayable","type":"function"},{"inputs":[],"name":"owner","outputs":[{"internalType":"address","name":"","type":"address"}],"stateMutability":"view","type":"function"},{"inputs":[],"name":"renounceOwnership","outputs":[],"stateMutability":"nonpayable","type":"function"},{"inputs":[],"name":"router","outputs":[{"internalType":"address","name":"","type":"address"}],"stateMutability":"view","type":"function"},{"inputs":[],"name":"subscriptionId","outputs":[{"internalType":"uint64","name":"","type":"uint64"}],"stateMutability":"view","type":"function"},{"inputs":[{"internalType":"address","name":"newOwner","type":"address"}],"name":"transferOwnership","outputs":[],"stateMutability":"nonpayable","type":"function"},{"inputs":[{"internalType":"address","name":"adsManager_","type":"address"}],"name":"updateAdsManager","outputs":[],"stateMutability":"nonpayable","type":"function"},{"inputs":[{"internalType":"bytes32","name":"donId_","type":"bytes32"}],"name":"updateDonId","outputs":[],"stateMutability":"nonpayable","type":"function"},{"inputs":[{"internalType":"bytes","name":"encryptedSecretsUrls_","type":"bytes"}],"name":"updateEncryptedSecretsUrls","outputs":[],"stateMutability":"nonpayable","type":"function"},{"inputs":[{"internalType":"uint32","name":"gasLimit_","type":"uint32"}],"name":"updateGasLimit","outputs":[],"stateMutability":"nonpayable","type":"function"},{"inputs":[{"internalType":"address","name":"router_","type":"address"}],"name":"updateRouter","outputs":[],"stateMutability":"nonpayable","type":"function"},{"inputs":[{"internalType":"bool","name":"contractOrToken","type":"bool"},{"internalType":"string","name":"source_","type":"string"}],"name":"updateSource","outputs":[],"stateMutability":"nonpayable","type":"function"},{"inputs":[{"internalType":"uint64","name":"subscriptionId_","type":"uint64"}],"name":"updateSubscriptionId","outputs":[],"stateMutability":"nonpayable","type":"function"}],"evm":{"bytecode":{"linkReferences":{},"object":"60018054600160a01b600160e01b0319166105eb60a01b179055610160604052609160a0818152906200247160c0396002906200003d90826200023d565b50600380546001600160a01b03191673a9d587a00a31a52ed70d6026794a8fc5e2f5dcb01790557f66756e2d6176616c616e6368652d66756a692d310000000000000000000000006004556005805463ffffffff1916620493e017905560408051610540810190915261050480825262001f6d6020830139600790620000c490826200023d565b5060405180610340016040528061031d815260200162001c5061031d9139600890620000f190826200023d565b50348015620000ff57600080fd5b506003546001600160a01b031660805233806200013657604051631e4fbdf760e01b81526000600482015260240160405180910390fd5b620001418162000148565b5062000309565b600080546001600160a01b038381166001600160a01b0319831681178455604051919092169283917f8be0079c531659141344cd1fd0a4f28419497f9722a3daafe3b4186f6b6457e09190a35050565b634e487b7160e01b600052604160045260246000fd5b600181811c90821680620001c357607f821691505b602082108103620001e457634e487b7160e01b600052602260045260246000fd5b50919050565b601f8211156200023857600081815260208120601f850160051c81016020861015620002135750805b601f850160051c820191505b8181101562000234578281556001016200021f565b5050505b505050565b81516001600160401b0381111562000259576200025962000198565b62000271816200026a8454620001ae565b84620001ea565b602080601f831160018114620002a95760008415620002905750858301515b600019600386901b1c1916600185901b17855562000234565b600085815260208120601f198616915b82811015620002da57888601518255948401946001909101908401620002b9565b5085821015620002f95787850151600019600388901b60f8161c191681555b5050505050600190811b01905550565b6080516119246200032c600039600081816102e30152610be201526119246000f3fe608060405234801561001057600080fd5b50600436106101215760003560e01c80638dbe7b9d116100ad578063c851cc3211610071578063c851cc3214610272578063dab79c4014610285578063f2fde38b1461028d578063f68016b7146102a0578063f887ea40146102c557600080fd5b80638dbe7b9d1461020257806398b8d04a14610219578063a043274d1461022c578063a42f3b2f1461023f578063be41cee31461025257600080fd5b8063490f2798116100f4578063490f2798146101985780636df0c747146101c3578063715018a6146101d6578063888f3036146101de5780638da5cb5b146101f157600080fd5b806309c1ba2e146101265780630ca761751461015d57806314b1dd1b1461017257806334303bcd14610185575b600080fd5b60015461014090600160a01b90046001600160401b031681565b6040516001600160401b0390911681526020015b60405180910390f35b61017061016b366004611284565b6102d8565b005b6101706101803660046112f0565b61035c565b610170610193366004611319565b610391565b6001546101ab906001600160a01b031681565b6040516001600160a01b039091168152602001610154565b6101706101d136600461133f565b6103b5565b6101706103c2565b6101706101ec36600461136d565b6103d6565b6000546001600160a01b03166101ab565b61020b60045481565b604051908152602001610154565b61020b6102273660046113ba565b610405565b61017061023a36600461148f565b610610565b61017061024d3660046114b8565b61063a565b61026561026036600461133f565b61064e565b604051610154919061153a565b61017061028036600461148f565b6106e8565b610265610712565b61017061029b36600461148f565b61071f565b6005546102b09063ffffffff1681565b60405163ffffffff9091168152602001610154565b6003546101ab906001600160a01b031681565b336001600160a01b037f000000000000000000000000000000000000000000000000000000000000000016146103215760405163c6829f8360e01b815260040160405180910390fd5b61032c838383610762565b60405183907f85e1543bf2f84fe80c6badbce3648c8539ad1df4d2b3d822938ca0538be727e690600090a2505050565b610364610820565b600180546001600160401b03909216600160a01b0267ffffffffffffffff60a01b19909216919091179055565b610399610820565b6005805463ffffffff191663ffffffff92909216919091179055565b6103bd610820565b600455565b6103ca610820565b6103d4600061084d565b565b6103de610820565b81156103f55760086103f082826115d5565b505050565b60076103f082826115d5565b5050565b6001546000906001600160a01b0316336001600160a01b03161461043c57604051630101292160e31b815260040160405180910390fd5b61047d6040805160e0810190915280600081526020016000815260200160008152602001606081526020016060815260200160608152602001606081525090565b6105278461048c57600761048f565b60085b805461049a9061154d565b80601f01602080910402602001604051908101604052809291908181526020018280546104c69061154d565b80156105135780601f106104e857610100808354040283529160200191610513565b820191906000526020600020905b8154815290600101906020018083116104f657829003601f168201915b50505050508261089d90919063ffffffff16565b6105c4600280546105379061154d565b80601f01602080910402602001604051908101604052809291908181526020018280546105639061154d565b80156105b05780601f10610585576101008083540402835291602001916105b0565b820191906000526020600020905b81548152906001019060200180831161059357829003601f168201915b5050505050826108aa90919063ffffffff16565b6105ce81846108db565b60006106056105dc83610905565b600154600554600454600160a01b9092046001600160401b03169163ffffffff90911690610bdd565b925050505b92915050565b610618610820565b600180546001600160a01b0319166001600160a01b0392909216919091179055565b610642610820565b600261040182826115d5565b600660205260009081526040902080546106679061154d565b80601f01602080910402602001604051908101604052809291908181526020018280546106939061154d565b80156106e05780601f106106b5576101008083540402835291602001916106e0565b820191906000526020600020905b8154815290600101906020018083116106c357829003601f168201915b505050505081565b6106f0610820565b600380546001600160a01b0319166001600160a01b0392909216919091179055565b600280546106679061154d565b610727610820565b6001600160a01b03811661075657604051631e4fbdf760e01b8152600060048201526024015b60405180910390fd5b61075f8161084d565b50565b600083815260066020526040902061077a82826115d5565b5060015460405163075d8c5960e21b815283916001600160a01b031690631d763164906107ad9087908590600401611694565b600060405180830381600087803b1580156107c757600080fd5b505af11580156107db573d6000803e3d6000fd5b505050507f17aac589b115f42ae5c9320ca9eb350d352b376d8c07f7d1b166e9a9b155481b848284604051610812939291906116ad565b60405180910390a150505050565b6000546001600160a01b031633146103d45760405163118cdaa760e01b815233600482015260240161074d565b600080546001600160a01b038381166001600160a01b0319831681178455604051919092169283917f8be0079c531659141344cd1fd0a4f28419497f9722a3daafe3b4186f6b6457e09190a35050565b6104018260008084610caf565b80516000036108cc5760405163e889636f60e01b815260040160405180910390fd5b60016020830152608090910152565b80516000036108fd5760405163fe936cb760e01b815260040160405180910390fd5b60a090910152565b60606000610914610100610d2d565b905061094d6040518060400160405280600c81526020016b31b7b232a637b1b0ba34b7b760a11b81525082610d4e90919063ffffffff16565b825161096b906002811115610964576109646116e2565b8290610d67565b6040805180820190915260088152676c616e677561676560c01b6020820152610995908290610d4e565b60408301516109ac908015610964576109646116e2565b604080518082019091526006815265736f7572636560d01b60208201526109d4908290610d4e565b60608301516109e4908290610d4e565b60a08301515115610a78576040805180820190915260048152636172677360e01b6020820152610a15908290610d4e565b610a1e81610da0565b60005b8360a0015151811015610a6e57610a5e8460a001518281518110610a4757610a476116f8565b602002602001015183610d4e90919063ffffffff16565b610a6781611724565b9050610a21565b50610a7881610dc4565b60808301515115610b3c57600083602001516002811115610a9b57610a9b6116e2565b03610ab95760405163a80d31f760e01b815260040160405180910390fd5b60408051808201909152600f81526e39b2b1b932ba39a637b1b0ba34b7b760891b6020820152610aea908290610d4e565b610b0383602001516002811115610964576109646116e2565b6040805180820190915260078152667365637265747360c81b6020820152610b2c908290610d4e565b6080830151610b3c908290610de2565b60c08301515115610bd55760408051808201909152600981526862797465734172677360b81b6020820152610b72908290610d4e565b610b7b81610da0565b60005b8360c0015151811015610bcb57610bbb8460c001518281518110610ba457610ba46116f8565b602002602001015183610de290919063ffffffff16565b610bc481611724565b9050610b7e565b50610bd581610dc4565b515192915050565b6000807f00000000000000000000000000000000000000000000000000000000000000006001600160a01b031663461d27628688600188886040518663ffffffff1660e01b8152600401610c3595949392919061173d565b6020604051808303816000875af1158015610c54573d6000803e3d6000fd5b505050506040513d601f19601f82011682018060405250810190610c789190611786565b60405190915081907f1131472297a800fee664d1d89cfa8f7676ff07189ecc53f80bbb5f4969099db890600090a295945050505050565b8051600003610cd1576040516322ce3edd60e01b815260040160405180910390fd5b83836002811115610ce457610ce46116e2565b90816002811115610cf757610cf76116e2565b90525060408401828015610d0d57610d0d6116e2565b90818015610d1d57610d1d6116e2565b9052506060909301929092525050565b610d3561119a565b8051610d419083610def565b5060006020820152919050565b610d5b8260038351610e66565b81516103f09082610f85565b8151610d749060c2610fad565b506104018282604051602001610d8c91815260200190565b604051602081830303815290604052610de2565b610dab816004611016565b600181602001818151610dbe919061179f565b90525050565b610dcf816007611016565b600181602001818151610dbe91906117b2565b610d5b8260028351610e66565b604080518082019091526060815260006020820152610e0f6020836117c5565b15610e3757610e1f6020836117c5565b610e2a9060206117b2565b610e34908361179f565b91505b602080840183905260405180855260008152908184010181811015610e5b57600080fd5b604052509192915050565b6017816001600160401b031611610e92578251610e8c9060e0600585901b168317610fad565b50505050565b60ff816001600160401b031611610ed2578251610eba906018611fe0600586901b1617610fad565b508251610e8c906001600160401b038316600161102d565b61ffff816001600160401b031611610f13578251610efb906019611fe0600586901b1617610fad565b508251610e8c906001600160401b038316600261102d565b63ffffffff816001600160401b031611610f56578251610f3e90601a611fe0600586901b1617610fad565b508251610e8c906001600160401b038316600461102d565b8251610f6d90601b611fe0600586901b1617610fad565b508251610e8c906001600160401b038316600861102d565b604080518082019091526060815260006020820152610fa6838384516110b2565b9392505050565b6040805180820190915260608152600060208201528251516000610fd282600161179f565b905084602001518210610ff357610ff385610fee8360026117e7565b611183565b845160208382010185815350805182111561100c578181525b5093949350505050565b81516103f090601f611fe0600585901b1617610fad565b6040805180820190915260608152600060208201528351516000611051828561179f565b9050856020015181111561106e5761106e86610fee8360026117e7565b6000600161107e866101006118e2565b61108891906117b2565b905086518281018783198251161781525080518311156110a6578281525b50959695505050505050565b60408051808201909152606081526000602082015282518211156110d557600080fd5b83515160006110e4848361179f565b905085602001518111156111015761110186610fee8360026117e7565b85518051838201602001916000918085111561111b578482525b505050602086015b6020861061115b578051825261113a60208361179f565b915061114760208261179f565b90506111546020876117b2565b9550611123565b51815160001960208890036101000a0190811690199190911617905250849150509392505050565b815161118f8383610def565b50610e8c8382610f85565b60405180604001604052806111c2604051806040016040528060608152602001600081525090565b8152602001600081525090565b634e487b7160e01b600052604160045260246000fd5b604051601f8201601f191681016001600160401b038111828210171561120d5761120d6111cf565b604052919050565b600082601f83011261122657600080fd5b81356001600160401b0381111561123f5761123f6111cf565b611252601f8201601f19166020016111e5565b81815284602083860101111561126757600080fd5b816020850160208301376000918101602001919091529392505050565b60008060006060848603121561129957600080fd5b8335925060208401356001600160401b03808211156112b757600080fd5b6112c387838801611215565b935060408601359150808211156112d957600080fd5b506112e686828701611215565b9150509250925092565b60006020828403121561130257600080fd5b81356001600160401b0381168114610fa657600080fd5b60006020828403121561132b57600080fd5b813563ffffffff81168114610fa657600080fd5b60006020828403121561135157600080fd5b5035919050565b8035801515811461136857600080fd5b919050565b6000806040838503121561138057600080fd5b61138983611358565b915060208301356001600160401b038111156113a457600080fd5b6113b085828601611215565b9150509250929050565b600080604083850312156113cd57600080fd5b6113d683611358565b91506020808401356001600160401b03808211156113f357600080fd5b818601915086601f83011261140757600080fd5b813581811115611419576114196111cf565b8060051b6114288582016111e5565b918252838101850191858101908a84111561144257600080fd5b86860192505b8383101561147e578235858111156114605760008081fd5b61146e8c89838a0101611215565b8352509186019190860190611448565b809750505050505050509250929050565b6000602082840312156114a157600080fd5b81356001600160a01b0381168114610fa657600080fd5b6000602082840312156114ca57600080fd5b81356001600160401b038111156114e057600080fd5b6114ec84828501611215565b949350505050565b6000815180845260005b8181101561151a576020818501810151868301820152016114fe565b506000602082860101526020601f19601f83011685010191505092915050565b602081526000610fa660208301846114f4565b600181811c9082168061156157607f821691505b60208210810361158157634e487b7160e01b600052602260045260246000fd5b50919050565b601f8211156103f057600081815260208120601f850160051c810160208610156115ae5750805b601f850160051c820191505b818110156115cd578281556001016115ba565b505050505050565b81516001600160401b038111156115ee576115ee6111cf565b611602816115fc845461154d565b84611587565b602080601f831160018114611637576000841561161f5750858301515b600019600386901b1c1916600185901b1785556115cd565b600085815260208120601f198616915b8281101561166657888601518255948401946001909101908401611647565b50858210156116845787850151600019600388901b60f8161c191681555b5050505050600190811b01905550565b8281526040602082015260006114ec60408301846114f4565b8381526060602082015260006116c660608301856114f4565b82810360408401526116d881856114f4565b9695505050505050565b634e487b7160e01b600052602160045260246000fd5b634e487b7160e01b600052603260045260246000fd5b634e487b7160e01b600052601160045260246000fd5b6000600182016117365761173661170e565b5060010190565b6001600160401b038616815260a06020820152600061175f60a08301876114f4565b61ffff9590951660408301525063ffffffff92909216606083015260809091015292915050565b60006020828403121561179857600080fd5b5051919050565b8082018082111561060a5761060a61170e565b8181038181111561060a5761060a61170e565b6000826117e257634e487b7160e01b600052601260045260246000fd5b500690565b808202811582820484141761060a5761060a61170e565b600181815b8085111561183957816000190482111561181f5761181f61170e565b8085161561182c57918102915b93841c9390800290611803565b509250929050565b6000826118505750600161060a565b8161185d5750600061060a565b8160018114611873576002811461187d57611899565b600191505061060a565b60ff84111561188e5761188e61170e565b50506001821b61060a565b5060208310610133831016604e8410600b84101617156118bc575081810a61060a565b6118c683836117fe565b80600019048211156118da576118da61170e565b029392505050565b6000610fa6838361184156fea2646970667358221220e620748590569a7893c0770e339bc899e519289e12af7e59241c6d58d424dfea64736f6c63430008140033636f6e7374206e616d65203d20617267735b305d3b636f6e7374206465736372697074696f6e203d20617267735b315d3b636f6e737420696d616765203d20617267735b325d3b636f6e73742062616e6e6572203d20617267735b335d3b636f6e73742065787465726e616c5f6c696e6b203d20617267735b345d3b636f6e7374206a736f6e44617461203d207b202070696e617461436f6e74656e743a207b202020206e616d653a206e616d652c202020206465736372697074696f6e3a206465736372697074696f6e2c2020202065787465726e616c5f6c696e6b3a2065787465726e616c5f6c696e6b2c20202020696d6167653a20696d6167652c2020202062616e6e65723a2062616e6e657220207d7d3b636f6e737420617069526573706f6e7365203d2061776169742046756e6374696f6e732e6d616b654874747052657175657374287b202075726c3a202768747470733a2f2f6170692e70696e6174612e636c6f75642f70696e6e696e672f70696e4a534f4e546f49504653272c20206d6574686f643a2027504f5354272c2020686561646572733a207b2020202027436f6e74656e742d54797065273a20276170706c69636174696f6e2f6a736f6e272c2020202027416363657074273a20276170706c69636174696f6e2f6a736f6e272c2020202027417574686f72697a6174696f6e273a206042656172657220247b736563726574732e70696e6174614a57547d6020207d2c2020646174613a206a736f6e446174617d293b69662028617069526573706f6e73652e6572726f7229207b20207468726f77206e6577204572726f7228606d6573736167653a20247b617069526573706f6e73652e6d6573736167657d20636f64653a20247b617069526573706f6e73652e636f64657d20726573706f6e73653a20247b4a534f4e2e737472696e6769667928617069526573706f6e73652e726573706f6e7365297d60293b7d72657475726e2046756e6374696f6e732e656e636f6465537472696e67286068747470733a2f2f697066732e696f2f697066732f247b617069526573706f6e73652e646174612e49706673486173687d60293b636f6e7374206e616d65203d20617267735b305d3b636f6e7374206465736372697074696f6e203d20617267735b315d3b636f6e737420696d616765203d20617267735b325d3b636f6e73742065787465726e616c5f75726c203d20617267735b335d3b636f6e7374207769647468203d20617267735b345d3b636f6e737420686569676874203d20617267735b355d3b636f6e7374207072696365203d207061727365466c6f617428617267735b365d29202f204d6174682e706f772831302c203138293b636f6e7374206c6f7474657279203d20617267732e6c656e677468203e20373b636f6e7374206a736f6e44617461203d207b202070696e617461436f6e74656e743a207b202020206e616d653a206e616d652c202020206465736372697074696f6e3a206465736372697074696f6e2c2020202065787465726e616c5f75726c3a2065787465726e616c5f75726c2c20202020696d6167653a20696d6167652c20202020616e696d6174696f6e5f75726c3a206068747470733a2f2f7777772e6f6e636861696e636f6e736f6c652e636f6d2f707265766965772e68746d6c3f696d6167653d247b696d6167657d2677696474683d247b77696474687d266865696768743d247b6865696768747d2669734c6f74746572793d247b6c6f74746572797d602c20202020617474726962757465733a205b7b2074726169745f747970653a202757696474682028636d29272c2076616c75653a2060247b77696474687d60207d2c207b2074726169745f747970653a20274865696768742028636d29272c2076616c75653a2060247b6865696768747d60207d2c207b2074726169745f747970653a20216c6f7474657279203f20274d696e7420507269636520285553442927203a20275469636b6574205072696365202855534429272c2076616c75653a2060247b70726963657d60207d2c20216c6f7474657279203f207b7d203a207b74726169745f747970653a20275469636b657420416d6f756e74272c2076616c75653a20617267735b375d7d5d20207d7d3b636f6e737420617069526573706f6e7365203d2061776169742046756e6374696f6e732e6d616b654874747052657175657374287b202075726c3a202768747470733a2f2f6170692e70696e6174612e636c6f75642f70696e6e696e672f70696e4a534f4e546f49504653272c20206d6574686f643a2027504f5354272c2020686561646572733a207b2020202027436f6e74656e742d54797065273a20276170706c69636174696f6e2f6a736f6e272c2020202027416363657074273a20276170706c69636174696f6e2f6a736f6e272c2020202027417574686f72697a6174696f6e273a206042656172657220247b736563726574732e70696e6174614a57547d6020207d2c2020646174613a206a736f6e446174617d293b69662028617069526573706f6e73652e6572726f7229207b20207468726f77206e6577204572726f7228606d6573736167653a20247b617069526573706f6e73652e6d6573736167657d20636f64653a20247b617069526573706f6e73652e636f64657d20726573706f6e73653a20247b4a534f4e2e737472696e6769667928617069526573706f6e73652e726573706f6e7365297d60293b7d72657475726e2046756e6374696f6e732e656e636f6465537472696e67286068747470733a2f2f697066732e696f2f697066732f247b617069526573706f6e73652e646174612e49706673486173687d60293b1e9ce0fe8dc86ffbb0e3511f190d8f7703f26b8a425447b37518e52a69f30ee69395d5d5613761ee019fa13949aea7cd6ca33c7e784895e7229642c52f556297fe4b467dc2014656d4642a7d358fc50735cd038d22aa01b56b3cd1ab3f40c1e472a19ba51d9727caee09f1ff7000586f589205b8eb9d27788488253e5f740770d54ccb9443a8c78b6143c4fd917bbf161a","opcodes":"PUSH1 0x1 DUP1 SLOAD PUSH1 0x1 PUSH1 0xA0 SHL PUSH1 0x1 PUSH1 0xE0 SHL SUB NOT AND PUSH2 0x5EB PUSH1 0xA0 SHL OR SWAP1 SSTORE PUSH2 0x160 PUSH1 0x40 MSTORE PUSH1 0x91 PUSH1 0xA0 DUP2 DUP2 MSTORE SWAP1 PUSH3 0x2471 PUSH1 0xC0 CODECOPY PUSH1 0x2 SWAP1 PUSH3 0x3D SWAP1 DUP3 PUSH3 0x23D JUMP JUMPDEST POP PUSH1 0x3 DUP1 SLOAD PUSH1 0x1 PUSH1 0x1 PUSH1 0xA0 SHL SUB NOT AND PUSH20 0xA9D587A00A31A52ED70D6026794A8FC5E2F5DCB0 OR SWAP1 SSTORE PUSH32 0x66756E2D6176616C616E6368652D66756A692D31000000000000000000000000 PUSH1 0x4 SSTORE PUSH1 0x5 DUP1 SLOAD PUSH4 0xFFFFFFFF NOT AND PUSH3 0x493E0 OR SWAP1 SSTORE PUSH1 0x40 DUP1 MLOAD PUSH2 0x540 DUP2 ADD SWAP1 SWAP2 MSTORE PUSH2 0x504 DUP1 DUP3 MSTORE PUSH3 0x1F6D PUSH1 0x20 DUP4 ADD CODECOPY PUSH1 0x7 SWAP1 PUSH3 0xC4 SWAP1 DUP3 PUSH3 0x23D JUMP JUMPDEST POP PUSH1 0x40 MLOAD DUP1 PUSH2 0x340 ADD PUSH1 0x40 MSTORE DUP1 PUSH2 0x31D DUP2 MSTORE PUSH1 0x20 ADD PUSH3 0x1C50 PUSH2 0x31D SWAP2 CODECOPY PUSH1 0x8 SWAP1 PUSH3 0xF1 SWAP1 DUP3 PUSH3 0x23D JUMP JUMPDEST POP CALLVALUE DUP1 ISZERO PUSH3 0xFF JUMPI PUSH1 0x0 DUP1 REVERT JUMPDEST POP PUSH1 0x3 SLOAD PUSH1 0x1 PUSH1 0x1 PUSH1 0xA0 SHL SUB AND PUSH1 0x80 MSTORE CALLER DUP1 PUSH3 0x136 JUMPI PUSH1 0x40 MLOAD PUSH4 0x1E4FBDF7 PUSH1 0xE0 SHL DUP2 MSTORE PUSH1 0x0 PUSH1 0x4 DUP3 ADD MSTORE PUSH1 0x24 ADD PUSH1 0x40 MLOAD DUP1 SWAP2 SUB SWAP1 REVERT JUMPDEST PUSH3 0x141 DUP2 PUSH3 0x148 JUMP JUMPDEST POP PUSH3 0x309 JUMP JUMPDEST PUSH1 0x0 DUP1 SLOAD PUSH1 0x1 PUSH1 0x1 PUSH1 0xA0 SHL SUB DUP4 DUP2 AND PUSH1 0x1 PUSH1 0x1 PUSH1 0xA0 SHL SUB NOT DUP4 AND DUP2 OR DUP5 SSTORE PUSH1 0x40 MLOAD SWAP2 SWAP1 SWAP3 AND SWAP3 DUP4 SWAP2 PUSH32 0x8BE0079C531659141344CD1FD0A4F28419497F9722A3DAAFE3B4186F6B6457E0 SWAP2 SWAP1 LOG3 POP POP JUMP JUMPDEST PUSH4 0x4E487B71 PUSH1 0xE0 SHL PUSH1 0x0 MSTORE PUSH1 0x41 PUSH1 0x4 MSTORE PUSH1 0x24 PUSH1 0x0 REVERT JUMPDEST PUSH1 0x1 DUP2 DUP2 SHR SWAP1 DUP3 AND DUP1 PUSH3 0x1C3 JUMPI PUSH1 0x7F DUP3 AND SWAP2 POP JUMPDEST PUSH1 0x20 DUP3 LT DUP2 SUB PUSH3 0x1E4 JUMPI PUSH4 0x4E487B71 PUSH1 0xE0 SHL PUSH1 0x0 MSTORE PUSH1 0x22 PUSH1 0x4 MSTORE PUSH1 0x24 PUSH1 0x0 REVERT JUMPDEST POP SWAP2 SWAP1 POP JUMP JUMPDEST PUSH1 0x1F DUP3 GT ISZERO PUSH3 0x238 JUMPI PUSH1 0x0 DUP2 DUP2 MSTORE PUSH1 0x20 DUP2 KECCAK256 PUSH1 0x1F DUP6 ADD PUSH1 0x5 SHR DUP2 ADD PUSH1 0x20 DUP7 LT ISZERO PUSH3 0x213 JUMPI POP DUP1 JUMPDEST PUSH1 0x1F DUP6 ADD PUSH1 0x5 SHR DUP3 ADD SWAP2 POP JUMPDEST DUP2 DUP2 LT ISZERO PUSH3 0x234 JUMPI DUP3 DUP2 SSTORE PUSH1 0x1 ADD PUSH3 0x21F JUMP JUMPDEST POP POP POP JUMPDEST POP POP POP JUMP JUMPDEST DUP2 MLOAD PUSH1 0x1 PUSH1 0x1 PUSH1 0x40 SHL SUB DUP2 GT ISZERO PUSH3 0x259 JUMPI PUSH3 0x259 PUSH3 0x198 JUMP JUMPDEST PUSH3 0x271 DUP2 PUSH3 0x26A DUP5 SLOAD PUSH3 0x1AE JUMP JUMPDEST DUP5 PUSH3 0x1EA JUMP JUMPDEST PUSH1 0x20 DUP1 PUSH1 0x1F DUP4 GT PUSH1 0x1 DUP2 EQ PUSH3 0x2A9 JUMPI PUSH1 0x0 DUP5 ISZERO PUSH3 0x290 JUMPI POP DUP6 DUP4 ADD MLOAD JUMPDEST PUSH1 0x0 NOT PUSH1 0x3 DUP7 SWAP1 SHL SHR NOT AND PUSH1 0x1 DUP6 SWAP1 SHL OR DUP6 SSTORE PUSH3 0x234 JUMP JUMPDEST PUSH1 0x0 DUP6 DUP2 MSTORE PUSH1 0x20 DUP2 KECCAK256 PUSH1 0x1F NOT DUP7 AND SWAP2 JUMPDEST DUP3 DUP2 LT ISZERO PUSH3 0x2DA JUMPI DUP9 DUP7 ADD MLOAD DUP3 SSTORE SWAP5 DUP5 ADD SWAP5 PUSH1 0x1 SWAP1 SWAP2 ADD SWAP1 DUP5 ADD PUSH3 0x2B9 JUMP JUMPDEST POP DUP6 DUP3 LT ISZERO PUSH3 0x2F9 JUMPI DUP8 DUP6 ADD MLOAD PUSH1 0x0 NOT PUSH1 0x3 DUP9 SWAP1 SHL PUSH1 0xF8 AND SHR NOT AND DUP2 SSTORE JUMPDEST POP POP POP POP POP PUSH1 0x1 SWAP1 DUP2 SHL ADD SWAP1 SSTORE POP JUMP JUMPDEST PUSH1 0x80 MLOAD PUSH2 0x1924 PUSH3 0x32C PUSH1 0x0 CODECOPY PUSH1 0x0 DUP2 DUP2 PUSH2 0x2E3 ADD MSTORE PUSH2 0xBE2 ADD MSTORE PUSH2 0x1924 PUSH1 0x0 RETURN INVALID PUSH1 0x80 PUSH1 0x40 MSTORE CALLVALUE DUP1 ISZERO PUSH2 0x10 JUMPI PUSH1 0x0 DUP1 REVERT JUMPDEST POP PUSH1 0x4 CALLDATASIZE LT PUSH2 0x121 JUMPI PUSH1 0x0 CALLDATALOAD PUSH1 0xE0 SHR DUP1 PUSH4 0x8DBE7B9D GT PUSH2 0xAD JUMPI DUP1 PUSH4 0xC851CC32 GT PUSH2 0x71 JUMPI DUP1 PUSH4 0xC851CC32 EQ PUSH2 0x272 JUMPI DUP1 PUSH4 0xDAB79C40 EQ PUSH2 0x285 JUMPI DUP1 PUSH4 0xF2FDE38B EQ PUSH2 0x28D JUMPI DUP1 PUSH4 0xF68016B7 EQ PUSH2 0x2A0 JUMPI DUP1 PUSH4 0xF887EA40 EQ PUSH2 0x2C5 JUMPI PUSH1 0x0 DUP1 REVERT JUMPDEST DUP1 PUSH4 0x8DBE7B9D EQ PUSH2 0x202 JUMPI DUP1 PUSH4 0x98B8D04A EQ PUSH2 0x219 JUMPI DUP1 PUSH4 0xA043274D EQ PUSH2 0x22C JUMPI DUP1 PUSH4 0xA42F3B2F EQ PUSH2 0x23F JUMPI DUP1 PUSH4 0xBE41CEE3 EQ PUSH2 0x252 JUMPI PUSH1 0x0 DUP1 REVERT JUMPDEST DUP1 PUSH4 0x490F2798 GT PUSH2 0xF4 JUMPI DUP1 PUSH4 0x490F2798 EQ PUSH2 0x198 JUMPI DUP1 PUSH4 0x6DF0C747 EQ PUSH2 0x1C3 JUMPI DUP1 PUSH4 0x715018A6 EQ PUSH2 0x1D6 JUMPI DUP1 PUSH4 0x888F3036 EQ PUSH2 0x1DE JUMPI DUP1 PUSH4 0x8DA5CB5B EQ PUSH2 0x1F1 JUMPI PUSH1 0x0 DUP1 REVERT JUMPDEST DUP1 PUSH4 0x9C1BA2E EQ PUSH2 0x126 JUMPI DUP1 PUSH4 0xCA76175 EQ PUSH2 0x15D JUMPI DUP1 PUSH4 0x14B1DD1B EQ PUSH2 0x172 JUMPI DUP1 PUSH4 0x34303BCD EQ PUSH2 0x185 JUMPI JUMPDEST PUSH1 0x0 DUP1 REVERT JUMPDEST PUSH1 0x1 SLOAD PUSH2 0x140 SWAP1 PUSH1 0x1 PUSH1 0xA0 SHL SWAP1 DIV PUSH1 0x1 PUSH1 0x1 PUSH1 0x40 SHL SUB AND DUP2 JUMP JUMPDEST PUSH1 0x40 MLOAD PUSH1 0x1 PUSH1 0x1 PUSH1 0x40 SHL SUB SWAP1 SWAP2 AND DUP2 MSTORE PUSH1 0x20 ADD JUMPDEST PUSH1 0x40 MLOAD DUP1 SWAP2 SUB SWAP1 RETURN JUMPDEST PUSH2 0x170 PUSH2 0x16B CALLDATASIZE PUSH1 0x4 PUSH2 0x1284 JUMP JUMPDEST PUSH2 0x2D8 JUMP JUMPDEST STOP JUMPDEST PUSH2 0x170 PUSH2 0x180 CALLDATASIZE PUSH1 0x4 PUSH2 0x12F0 JUMP JUMPDEST PUSH2 0x35C JUMP JUMPDEST PUSH2 0x170 PUSH2 0x193 CALLDATASIZE PUSH1 0x4 PUSH2 0x1319 JUMP JUMPDEST PUSH2 0x391 JUMP JUMPDEST PUSH1 0x1 SLOAD PUSH2 0x1AB SWAP1 PUSH1 0x1 PUSH1 0x1 PUSH1 0xA0 SHL SUB AND DUP2 JUMP JUMPDEST PUSH1 0x40 MLOAD PUSH1 0x1 PUSH1 0x1 PUSH1 0xA0 SHL SUB SWAP1 SWAP2 AND DUP2 MSTORE PUSH1 0x20 ADD PUSH2 0x154 JUMP JUMPDEST PUSH2 0x170 PUSH2 0x1D1 CALLDATASIZE PUSH1 0x4 PUSH2 0x133F JUMP JUMPDEST PUSH2 0x3B5 JUMP JUMPDEST PUSH2 0x170 PUSH2 0x3C2 JUMP JUMPDEST PUSH2 0x170 PUSH2 0x1EC CALLDATASIZE PUSH1 0x4 PUSH2 0x136D JUMP JUMPDEST PUSH2 0x3D6 JUMP JUMPDEST PUSH1 0x0 SLOAD PUSH1 0x1 PUSH1 0x1 PUSH1 0xA0 SHL SUB AND PUSH2 0x1AB JUMP JUMPDEST PUSH2 0x20B PUSH1 0x4 SLOAD DUP2 JUMP JUMPDEST PUSH1 0x40 MLOAD SWAP1 DUP2 MSTORE PUSH1 0x20 ADD PUSH2 0x154 JUMP JUMPDEST PUSH2 0x20B PUSH2 0x227 CALLDATASIZE PUSH1 0x4 PUSH2 0x13BA JUMP JUMPDEST PUSH2 0x405 JUMP JUMPDEST PUSH2 0x170 PUSH2 0x23A CALLDATASIZE PUSH1 0x4 PUSH2 0x148F JUMP JUMPDEST PUSH2 0x610 JUMP JUMPDEST PUSH2 0x170 PUSH2 0x24D CALLDATASIZE PUSH1 0x4 PUSH2 0x14B8 JUMP JUMPDEST PUSH2 0x63A JUMP JUMPDEST PUSH2 0x265 PUSH2 0x260 CALLDATASIZE PUSH1 0x4 PUSH2 0x133F JUMP JUMPDEST PUSH2 0x64E JUMP JUMPDEST PUSH1 0x40 MLOAD PUSH2 0x154 SWAP2 SWAP1 PUSH2 0x153A JUMP JUMPDEST PUSH2 0x170 PUSH2 0x280 CALLDATASIZE PUSH1 0x4 PUSH2 0x148F JUMP JUMPDEST PUSH2 0x6E8 JUMP JUMPDEST PUSH2 0x265 PUSH2 0x712 JUMP JUMPDEST PUSH2 0x170 PUSH2 0x29B CALLDATASIZE PUSH1 0x4 PUSH2 0x148F JUMP JUMPDEST PUSH2 0x71F JUMP JUMPDEST PUSH1 0x5 SLOAD PUSH2 0x2B0 SWAP1 PUSH4 0xFFFFFFFF AND DUP2 JUMP JUMPDEST PUSH1 0x40 MLOAD PUSH4 0xFFFFFFFF SWAP1 SWAP2 AND DUP2 MSTORE PUSH1 0x20 ADD PUSH2 0x154 JUMP JUMPDEST PUSH1 0x3 SLOAD PUSH2 0x1AB SWAP1 PUSH1 0x1 PUSH1 0x1 PUSH1 0xA0 SHL SUB AND DUP2 JUMP JUMPDEST CALLER PUSH1 0x1 PUSH1 0x1 PUSH1 0xA0 SHL SUB PUSH32 0x0 AND EQ PUSH2 0x321 JUMPI PUSH1 0x40 MLOAD PUSH4 0xC6829F83 PUSH1 0xE0 SHL DUP2 MSTORE PUSH1 0x4 ADD PUSH1 0x40 MLOAD DUP1 SWAP2 SUB SWAP1 REVERT JUMPDEST PUSH2 0x32C DUP4 DUP4 DUP4 PUSH2 0x762 JUMP JUMPDEST PUSH1 0x40 MLOAD DUP4 SWAP1 PUSH32 0x85E1543BF2F84FE80C6BADBCE3648C8539AD1DF4D2B3D822938CA0538BE727E6 SWAP1 PUSH1 0x0 SWAP1 LOG2 POP POP POP JUMP JUMPDEST PUSH2 0x364 PUSH2 0x820 JUMP JUMPDEST PUSH1 0x1 DUP1 SLOAD PUSH1 0x1 PUSH1 0x1 PUSH1 0x40 SHL SUB SWAP1 SWAP3 AND PUSH1 0x1 PUSH1 0xA0 SHL MUL PUSH8 0xFFFFFFFFFFFFFFFF PUSH1 0xA0 SHL NOT SWAP1 SWAP3 AND SWAP2 SWAP1 SWAP2 OR SWAP1 SSTORE JUMP JUMPDEST PUSH2 0x399 PUSH2 0x820 JUMP JUMPDEST PUSH1 0x5 DUP1 SLOAD PUSH4 0xFFFFFFFF NOT AND PUSH4 0xFFFFFFFF SWAP3 SWAP1 SWAP3 AND SWAP2 SWAP1 SWAP2 OR SWAP1 SSTORE JUMP JUMPDEST PUSH2 0x3BD PUSH2 0x820 JUMP JUMPDEST PUSH1 0x4 SSTORE JUMP JUMPDEST PUSH2 0x3CA PUSH2 0x820 JUMP JUMPDEST PUSH2 0x3D4 PUSH1 0x0 PUSH2 0x84D JUMP JUMPDEST JUMP JUMPDEST PUSH2 0x3DE PUSH2 0x820 JUMP JUMPDEST DUP2 ISZERO PUSH2 0x3F5 JUMPI PUSH1 0x8 PUSH2 0x3F0 DUP3 DUP3 PUSH2 0x15D5 JUMP JUMPDEST POP POP POP JUMP JUMPDEST PUSH1 0x7 PUSH2 0x3F0 DUP3 DUP3 PUSH2 0x15D5 JUMP JUMPDEST POP POP JUMP JUMPDEST PUSH1 0x1 SLOAD PUSH1 0x0 SWAP1 PUSH1 0x1 PUSH1 0x1 PUSH1 0xA0 SHL SUB AND CALLER PUSH1 0x1 PUSH1 0x1 PUSH1 0xA0 SHL SUB AND EQ PUSH2 0x43C JUMPI PUSH1 0x40 MLOAD PUSH4 0x1012921 PUSH1 0xE3 SHL DUP2 MSTORE PUSH1 0x4 ADD PUSH1 0x40 MLOAD DUP1 SWAP2 SUB SWAP1 REVERT JUMPDEST PUSH2 0x47D PUSH1 0x40 DUP1 MLOAD PUSH1 0xE0 DUP2 ADD SWAP1 SWAP2 MSTORE DUP1 PUSH1 0x0 DUP2 MSTORE PUSH1 0x20 ADD PUSH1 0x0 DUP2 MSTORE PUSH1 0x20 ADD PUSH1 0x0 DUP2 MSTORE PUSH1 0x20 ADD PUSH1 0x60 DUP2 MSTORE PUSH1 0x20 ADD PUSH1 0x60 DUP2 MSTORE PUSH1 0x20 ADD PUSH1 0x60 DUP2 MSTORE PUSH1 0x20 ADD PUSH1 0x60 DUP2 MSTORE POP SWAP1 JUMP JUMPDEST PUSH2 0x527 DUP5 PUSH2 0x48C JUMPI PUSH1 0x7 PUSH2 0x48F JUMP JUMPDEST PUSH1 0x8 JUMPDEST DUP1 SLOAD PUSH2 0x49A SWAP1 PUSH2 0x154D JUMP JUMPDEST DUP1 PUSH1 0x1F ADD PUSH1 0x20 DUP1 SWAP2 DIV MUL PUSH1 0x20 ADD PUSH1 0x40 MLOAD SWAP1 DUP2 ADD PUSH1 0x40 MSTORE DUP1 SWAP3 SWAP2 SWAP1 DUP2 DUP2 MSTORE PUSH1 0x20 ADD DUP3 DUP1 SLOAD PUSH2 0x4C6 SWAP1 PUSH2 0x154D JUMP JUMPDEST DUP1 ISZERO PUSH2 0x513 JUMPI DUP1 PUSH1 0x1F LT PUSH2 0x4E8 JUMPI PUSH2 0x100 DUP1 DUP4 SLOAD DIV MUL DUP4 MSTORE SWAP2 PUSH1 0x20 ADD SWAP2 PUSH2 0x513 JUMP JUMPDEST DUP3 ADD SWAP2 SWAP1 PUSH1 0x0 MSTORE PUSH1 0x20 PUSH1 0x0 KECCAK256 SWAP1 JUMPDEST DUP2 SLOAD DUP2 MSTORE SWAP1 PUSH1 0x1 ADD SWAP1 PUSH1 0x20 ADD DUP1 DUP4 GT PUSH2 0x4F6 JUMPI DUP3 SWAP1 SUB PUSH1 0x1F AND DUP3 ADD SWAP2 JUMPDEST POP POP POP POP POP DUP3 PUSH2 0x89D SWAP1 SWAP2 SWAP1 PUSH4 0xFFFFFFFF AND JUMP JUMPDEST PUSH2 0x5C4 PUSH1 0x2 DUP1 SLOAD PUSH2 0x537 SWAP1 PUSH2 0x154D JUMP JUMPDEST DUP1 PUSH1 0x1F ADD PUSH1 0x20 DUP1 SWAP2 DIV MUL PUSH1 0x20 ADD PUSH1 0x40 MLOAD SWAP1 DUP2 ADD PUSH1 0x40 MSTORE DUP1 SWAP3 SWAP2 SWAP1 DUP2 DUP2 MSTORE PUSH1 0x20 ADD DUP3 DUP1 SLOAD PUSH2 0x563 SWAP1 PUSH2 0x154D JUMP JUMPDEST DUP1 ISZERO PUSH2 0x5B0 JUMPI DUP1 PUSH1 0x1F LT PUSH2 0x585 JUMPI PUSH2 0x100 DUP1 DUP4 SLOAD DIV MUL DUP4 MSTORE SWAP2 PUSH1 0x20 ADD SWAP2 PUSH2 0x5B0 JUMP JUMPDEST DUP3 ADD SWAP2 SWAP1 PUSH1 0x0 MSTORE PUSH1 0x20 PUSH1 0x0 KECCAK256 SWAP1 JUMPDEST DUP2 SLOAD DUP2 MSTORE SWAP1 PUSH1 0x1 ADD SWAP1 PUSH1 0x20 ADD DUP1 DUP4 GT PUSH2 0x593 JUMPI DUP3 SWAP1 SUB PUSH1 0x1F AND DUP3 ADD SWAP2 JUMPDEST POP POP POP POP POP DUP3 PUSH2 0x8AA SWAP1 SWAP2 SWAP1 PUSH4 0xFFFFFFFF AND JUMP JUMPDEST PUSH2 0x5CE DUP2 DUP5 PUSH2 0x8DB JUMP JUMPDEST PUSH1 0x0 PUSH2 0x605 PUSH2 0x5DC DUP4 PUSH2 0x905 JUMP JUMPDEST PUSH1 0x1 SLOAD PUSH1 0x5 SLOAD PUSH1 0x4 SLOAD PUSH1 0x1 PUSH1 0xA0 SHL SWAP1 SWAP3 DIV PUSH1 0x1 PUSH1 0x1 PUSH1 0x40 SHL SUB AND SWAP2 PUSH4 0xFFFFFFFF SWAP1 SWAP2 AND SWAP1 PUSH2 0xBDD JUMP JUMPDEST SWAP3 POP POP POP JUMPDEST SWAP3 SWAP2 POP POP JUMP JUMPDEST PUSH2 0x618 PUSH2 0x820 JUMP JUMPDEST PUSH1 0x1 DUP1 SLOAD PUSH1 0x1 PUSH1 0x1 PUSH1 0xA0 SHL SUB NOT AND PUSH1 0x1 PUSH1 0x1 PUSH1 0xA0 SHL SUB SWAP3 SWAP1 SWAP3 AND SWAP2 SWAP1 SWAP2 OR SWAP1 SSTORE JUMP JUMPDEST PUSH2 0x642 PUSH2 0x820 JUMP JUMPDEST PUSH1 0x2 PUSH2 0x401 DUP3 DUP3 PUSH2 0x15D5 JUMP JUMPDEST PUSH1 0x6 PUSH1 0x20 MSTORE PUSH1 0x0 SWAP1 DUP2 MSTORE PUSH1 0x40 SWAP1 KECCAK256 DUP1 SLOAD PUSH2 0x667 SWAP1 PUSH2 0x154D JUMP JUMPDEST DUP1 PUSH1 0x1F ADD PUSH1 0x20 DUP1 SWAP2 DIV MUL PUSH1 0x20 ADD PUSH1 0x40 MLOAD SWAP1 DUP2 ADD PUSH1 0x40 MSTORE DUP1 SWAP3 SWAP2 SWAP1 DUP2 DUP2 MSTORE PUSH1 0x20 ADD DUP3 DUP1 SLOAD PUSH2 0x693 SWAP1 PUSH2 0x154D JUMP JUMPDEST DUP1 ISZERO PUSH2 0x6E0 JUMPI DUP1 PUSH1 0x1F LT PUSH2 0x6B5 JUMPI PUSH2 0x100 DUP1 DUP4 SLOAD DIV MUL DUP4 MSTORE SWAP2 PUSH1 0x20 ADD SWAP2 PUSH2 0x6E0 JUMP JUMPDEST DUP3 ADD SWAP2 SWAP1 PUSH1 0x0 MSTORE PUSH1 0x20 PUSH1 0x0 KECCAK256 SWAP1 JUMPDEST DUP2 SLOAD DUP2 MSTORE SWAP1 PUSH1 0x1 ADD SWAP1 PUSH1 0x20 ADD DUP1 DUP4 GT PUSH2 0x6C3 JUMPI DUP3 SWAP1 SUB PUSH1 0x1F AND DUP3 ADD SWAP2 JUMPDEST POP POP POP POP POP DUP2 JUMP JUMPDEST PUSH2 0x6F0 PUSH2 0x820 JUMP JUMPDEST PUSH1 0x3 DUP1 SLOAD PUSH1 0x1 PUSH1 0x1 PUSH1 0xA0 SHL SUB NOT AND PUSH1 0x1 PUSH1 0x1 PUSH1 0xA0 SHL SUB SWAP3 SWAP1 SWAP3 AND SWAP2 SWAP1 SWAP2 OR SWAP1 SSTORE JUMP JUMPDEST PUSH1 0x2 DUP1 SLOAD PUSH2 0x667 SWAP1 PUSH2 0x154D JUMP JUMPDEST PUSH2 0x727 PUSH2 0x820 JUMP JUMPDEST PUSH1 0x1 PUSH1 0x1 PUSH1 0xA0 SHL SUB DUP2 AND PUSH2 0x756 JUMPI PUSH1 0x40 MLOAD PUSH4 0x1E4FBDF7 PUSH1 0xE0 SHL DUP2 MSTORE PUSH1 0x0 PUSH1 0x4 DUP3 ADD MSTORE PUSH1 0x24 ADD JUMPDEST PUSH1 0x40 MLOAD DUP1 SWAP2 SUB SWAP1 REVERT JUMPDEST PUSH2 0x75F DUP2 PUSH2 0x84D JUMP JUMPDEST POP JUMP JUMPDEST PUSH1 0x0 DUP4 DUP2 MSTORE PUSH1 0x6 PUSH1 0x20 MSTORE PUSH1 0x40 SWAP1 KECCAK256 PUSH2 0x77A DUP3 DUP3 PUSH2 0x15D5 JUMP JUMPDEST POP PUSH1 0x1 SLOAD PUSH1 0x40 MLOAD PUSH4 0x75D8C59 PUSH1 0xE2 SHL DUP2 MSTORE DUP4 SWAP2 PUSH1 0x1 PUSH1 0x1 PUSH1 0xA0 SHL SUB AND SWAP1 PUSH4 0x1D763164 SWAP1 PUSH2 0x7AD SWAP1 DUP8 SWAP1 DUP6 SWAP1 PUSH1 0x4 ADD PUSH2 0x1694 JUMP JUMPDEST PUSH1 0x0 PUSH1 0x40 MLOAD DUP1 DUP4 SUB DUP2 PUSH1 0x0 DUP8 DUP1 EXTCODESIZE ISZERO DUP1 ISZERO PUSH2 0x7C7 JUMPI PUSH1 0x0 DUP1 REVERT JUMPDEST POP GAS CALL ISZERO DUP1 ISZERO PUSH2 0x7DB JUMPI RETURNDATASIZE PUSH1 0x0 DUP1 RETURNDATACOPY RETURNDATASIZE PUSH1 0x0 REVERT JUMPDEST POP POP POP POP PUSH32 0x17AAC589B115F42AE5C9320CA9EB350D352B376D8C07F7D1B166E9A9B155481B DUP5 DUP3 DUP5 PUSH1 0x40 MLOAD PUSH2 0x812 SWAP4 SWAP3 SWAP2 SWAP1 PUSH2 0x16AD JUMP JUMPDEST PUSH1 0x40 MLOAD DUP1 SWAP2 SUB SWAP1 LOG1 POP POP POP POP JUMP JUMPDEST PUSH1 0x0 SLOAD PUSH1 0x1 PUSH1 0x1 PUSH1 0xA0 SHL SUB AND CALLER EQ PUSH2 0x3D4 JUMPI PUSH1 0x40 MLOAD PUSH4 0x118CDAA7 PUSH1 0xE0 SHL DUP2 MSTORE CALLER PUSH1 0x4 DUP3 ADD MSTORE PUSH1 0x24 ADD PUSH2 0x74D JUMP JUMPDEST PUSH1 0x0 DUP1 SLOAD PUSH1 0x1 PUSH1 0x1 PUSH1 0xA0 SHL SUB DUP4 DUP2 AND PUSH1 0x1 PUSH1 0x1 PUSH1 0xA0 SHL SUB NOT DUP4 AND DUP2 OR DUP5 SSTORE PUSH1 0x40 MLOAD SWAP2 SWAP1 SWAP3 AND SWAP3 DUP4 SWAP2 PUSH32 0x8BE0079C531659141344CD1FD0A4F28419497F9722A3DAAFE3B4186F6B6457E0 SWAP2 SWAP1 LOG3 POP POP JUMP JUMPDEST PUSH2 0x401 DUP3 PUSH1 0x0 DUP1 DUP5 PUSH2 0xCAF JUMP JUMPDEST DUP1 MLOAD PUSH1 0x0 SUB PUSH2 0x8CC JUMPI PUSH1 0x40 MLOAD PUSH4 0xE889636F PUSH1 0xE0 SHL DUP2 MSTORE PUSH1 0x4 ADD PUSH1 0x40 MLOAD DUP1 SWAP2 SUB SWAP1 REVERT JUMPDEST PUSH1 0x1 PUSH1 0x20 DUP4 ADD MSTORE PUSH1 0x80 SWAP1 SWAP2 ADD MSTORE JUMP JUMPDEST DUP1 MLOAD PUSH1 0x0 SUB PUSH2 0x8FD JUMPI PUSH1 0x40 MLOAD PUSH4 0xFE936CB7 PUSH1 0xE0 SHL DUP2 MSTORE PUSH1 0x4 ADD PUSH1 0x40 MLOAD DUP1 SWAP2 SUB SWAP1 REVERT JUMPDEST PUSH1 0xA0 SWAP1 SWAP2 ADD MSTORE JUMP JUMPDEST PUSH1 0x60 PUSH1 0x0 PUSH2 0x914 PUSH2 0x100 PUSH2 0xD2D JUMP JUMPDEST SWAP1 POP PUSH2 0x94D PUSH1 0x40 MLOAD DUP1 PUSH1 0x40 ADD PUSH1 0x40 MSTORE DUP1 PUSH1 0xC DUP2 MSTORE PUSH1 0x20 ADD PUSH12 0x31B7B232A637B1B0BA34B7B7 PUSH1 0xA1 SHL DUP2 MSTORE POP DUP3 PUSH2 0xD4E SWAP1 SWAP2 SWAP1 PUSH4 0xFFFFFFFF AND JUMP JUMPDEST DUP3 MLOAD PUSH2 0x96B SWAP1 PUSH1 0x2 DUP2 GT ISZERO PUSH2 0x964 JUMPI PUSH2 0x964 PUSH2 0x16E2 JUMP JUMPDEST DUP3 SWAP1 PUSH2 0xD67 JUMP JUMPDEST PUSH1 0x40 DUP1 MLOAD DUP1 DUP3 ADD SWAP1 SWAP2 MSTORE PUSH1 0x8 DUP2 MSTORE PUSH8 0x6C616E6775616765 PUSH1 0xC0 SHL PUSH1 0x20 DUP3 ADD MSTORE PUSH2 0x995 SWAP1 DUP3 SWAP1 PUSH2 0xD4E JUMP JUMPDEST PUSH1 0x40 DUP4 ADD MLOAD PUSH2 0x9AC SWAP1 DUP1 ISZERO PUSH2 0x964 JUMPI PUSH2 0x964 PUSH2 0x16E2 JUMP JUMPDEST PUSH1 0x40 DUP1 MLOAD DUP1 DUP3 ADD SWAP1 SWAP2 MSTORE PUSH1 0x6 DUP2 MSTORE PUSH6 0x736F75726365 PUSH1 0xD0 SHL PUSH1 0x20 DUP3 ADD MSTORE PUSH2 0x9D4 SWAP1 DUP3 SWAP1 PUSH2 0xD4E JUMP JUMPDEST PUSH1 0x60 DUP4 ADD MLOAD PUSH2 0x9E4 SWAP1 DUP3 SWAP1 PUSH2 0xD4E JUMP JUMPDEST PUSH1 0xA0 DUP4 ADD MLOAD MLOAD ISZERO PUSH2 0xA78 JUMPI PUSH1 0x40 DUP1 MLOAD DUP1 DUP3 ADD SWAP1 SWAP2 MSTORE PUSH1 0x4 DUP2 MSTORE PUSH4 0x61726773 PUSH1 0xE0 SHL PUSH1 0x20 DUP3 ADD MSTORE PUSH2 0xA15 SWAP1 DUP3 SWAP1 PUSH2 0xD4E JUMP JUMPDEST PUSH2 0xA1E DUP2 PUSH2 0xDA0 JUMP JUMPDEST PUSH1 0x0 JUMPDEST DUP4 PUSH1 0xA0 ADD MLOAD MLOAD DUP2 LT ISZERO PUSH2 0xA6E JUMPI PUSH2 0xA5E DUP5 PUSH1 0xA0 ADD MLOAD DUP3 DUP2 MLOAD DUP2 LT PUSH2 0xA47 JUMPI PUSH2 0xA47 PUSH2 0x16F8 JUMP JUMPDEST PUSH1 0x20 MUL PUSH1 0x20 ADD ADD MLOAD DUP4 PUSH2 0xD4E SWAP1 SWAP2 SWAP1 PUSH4 0xFFFFFFFF AND JUMP JUMPDEST PUSH2 0xA67 DUP2 PUSH2 0x1724 JUMP JUMPDEST SWAP1 POP PUSH2 0xA21 JUMP JUMPDEST POP PUSH2 0xA78 DUP2 PUSH2 0xDC4 JUMP JUMPDEST PUSH1 0x80 DUP4 ADD MLOAD MLOAD ISZERO PUSH2 0xB3C JUMPI PUSH1 0x0 DUP4 PUSH1 0x20 ADD MLOAD PUSH1 0x2 DUP2 GT ISZERO PUSH2 0xA9B JUMPI PUSH2 0xA9B PUSH2 0x16E2 JUMP JUMPDEST SUB PUSH2 0xAB9 JUMPI PUSH1 0x40 MLOAD PUSH4 0xA80D31F7 PUSH1 0xE0 SHL DUP2 MSTORE PUSH1 0x4 ADD PUSH1 0x40 MLOAD DUP1 SWAP2 SUB SWAP1 REVERT JUMPDEST PUSH1 0x40 DUP1 MLOAD DUP1 DUP3 ADD SWAP1 SWAP2 MSTORE PUSH1 0xF DUP2 MSTORE PUSH15 0x39B2B1B932BA39A637B1B0BA34B7B7 PUSH1 0x89 SHL PUSH1 0x20 DUP3 ADD MSTORE PUSH2 0xAEA SWAP1 DUP3 SWAP1 PUSH2 0xD4E JUMP JUMPDEST PUSH2 0xB03 DUP4 PUSH1 0x20 ADD MLOAD PUSH1 0x2 DUP2 GT ISZERO PUSH2 0x964 JUMPI PUSH2 0x964 PUSH2 0x16E2 JUMP JUMPDEST PUSH1 0x40 DUP1 MLOAD DUP1 DUP3 ADD SWAP1 SWAP2 MSTORE PUSH1 0x7 DUP2 MSTORE PUSH7 0x73656372657473 PUSH1 0xC8 SHL PUSH1 0x20 DUP3 ADD MSTORE PUSH2 0xB2C SWAP1 DUP3 SWAP1 PUSH2 0xD4E JUMP JUMPDEST PUSH1 0x80 DUP4 ADD MLOAD PUSH2 0xB3C SWAP1 DUP3 SWAP1 PUSH2 0xDE2 JUMP JUMPDEST PUSH1 0xC0 DUP4 ADD MLOAD MLOAD ISZERO PUSH2 0xBD5 JUMPI PUSH1 0x40 DUP1 MLOAD DUP1 DUP3 ADD SWAP1 SWAP2 MSTORE PUSH1 0x9 DUP2 MSTORE PUSH9 0x627974657341726773 PUSH1 0xB8 SHL PUSH1 0x20 DUP3 ADD MSTORE PUSH2 0xB72 SWAP1 DUP3 SWAP1 PUSH2 0xD4E JUMP JUMPDEST PUSH2 0xB7B DUP2 PUSH2 0xDA0 JUMP JUMPDEST PUSH1 0x0 JUMPDEST DUP4 PUSH1 0xC0 ADD MLOAD MLOAD DUP2 LT ISZERO PUSH2 0xBCB JUMPI PUSH2 0xBBB DUP5 PUSH1 0xC0 ADD MLOAD DUP3 DUP2 MLOAD DUP2 LT PUSH2 0xBA4 JUMPI PUSH2 0xBA4 PUSH2 0x16F8 JUMP JUMPDEST PUSH1 0x20 MUL PUSH1 0x20 ADD ADD MLOAD DUP4 PUSH2 0xDE2 SWAP1 SWAP2 SWAP1 PUSH4 0xFFFFFFFF AND JUMP JUMPDEST PUSH2 0xBC4 DUP2 PUSH2 0x1724 JUMP JUMPDEST SWAP1 POP PUSH2 0xB7E JUMP JUMPDEST POP PUSH2 0xBD5 DUP2 PUSH2 0xDC4 JUMP JUMPDEST MLOAD MLOAD SWAP3 SWAP2 POP POP JUMP JUMPDEST PUSH1 0x0 DUP1 PUSH32 0x0 PUSH1 0x1 PUSH1 0x1 PUSH1 0xA0 SHL SUB AND PUSH4 0x461D2762 DUP7 DUP9 PUSH1 0x1 DUP9 DUP9 PUSH1 0x40 MLOAD DUP7 PUSH4 0xFFFFFFFF AND PUSH1 0xE0 SHL DUP2 MSTORE PUSH1 0x4 ADD PUSH2 0xC35 SWAP6 SWAP5 SWAP4 SWAP3 SWAP2 SWAP1 PUSH2 0x173D JUMP JUMPDEST PUSH1 0x20 PUSH1 0x40 MLOAD DUP1 DUP4 SUB DUP2 PUSH1 0x0 DUP8 GAS CALL ISZERO DUP1 ISZERO PUSH2 0xC54 JUMPI RETURNDATASIZE PUSH1 0x0 DUP1 RETURNDATACOPY RETURNDATASIZE PUSH1 0x0 REVERT JUMPDEST POP POP POP POP PUSH1 0x40 MLOAD RETURNDATASIZE PUSH1 0x1F NOT PUSH1 0x1F DUP3 ADD AND DUP3 ADD DUP1 PUSH1 0x40 MSTORE POP DUP2 ADD SWAP1 PUSH2 0xC78 SWAP2 SWAP1 PUSH2 0x1786 JUMP JUMPDEST PUSH1 0x40 MLOAD SWAP1 SWAP2 POP DUP2 SWAP1 PUSH32 0x1131472297A800FEE664D1D89CFA8F7676FF07189ECC53F80BBB5F4969099DB8 SWAP1 PUSH1 0x0 SWAP1 LOG2 SWAP6 SWAP5 POP POP POP POP POP JUMP JUMPDEST DUP1 MLOAD PUSH1 0x0 SUB PUSH2 0xCD1 JUMPI PUSH1 0x40 MLOAD PUSH4 0x22CE3EDD PUSH1 0xE0 SHL DUP2 MSTORE PUSH1 0x4 ADD PUSH1 0x40 MLOAD DUP1 SWAP2 SUB SWAP1 REVERT JUMPDEST DUP4 DUP4 PUSH1 0x2 DUP2 GT ISZERO PUSH2 0xCE4 JUMPI PUSH2 0xCE4 PUSH2 0x16E2 JUMP JUMPDEST SWAP1 DUP2 PUSH1 0x2 DUP2 GT ISZERO PUSH2 0xCF7 JUMPI PUSH2 0xCF7 PUSH2 0x16E2 JUMP JUMPDEST SWAP1 MSTORE POP PUSH1 0x40 DUP5 ADD DUP3 DUP1 ISZERO PUSH2 0xD0D JUMPI PUSH2 0xD0D PUSH2 0x16E2 JUMP JUMPDEST SWAP1 DUP2 DUP1 ISZERO PUSH2 0xD1D JUMPI PUSH2 0xD1D PUSH2 0x16E2 JUMP JUMPDEST SWAP1 MSTORE POP PUSH1 0x60 SWAP1 SWAP4 ADD SWAP3 SWAP1 SWAP3 MSTORE POP POP JUMP JUMPDEST PUSH2 0xD35 PUSH2 0x119A JUMP JUMPDEST DUP1 MLOAD PUSH2 0xD41 SWAP1 DUP4 PUSH2 0xDEF JUMP JUMPDEST POP PUSH1 0x0 PUSH1 0x20 DUP3 ADD MSTORE SWAP2 SWAP1 POP JUMP JUMPDEST PUSH2 0xD5B DUP3 PUSH1 0x3 DUP4 MLOAD PUSH2 0xE66 JUMP JUMPDEST DUP2 MLOAD PUSH2 0x3F0 SWAP1 DUP3 PUSH2 0xF85 JUMP JUMPDEST DUP2 MLOAD PUSH2 0xD74 SWAP1 PUSH1 0xC2 PUSH2 0xFAD JUMP JUMPDEST POP PUSH2 0x401 DUP3 DUP3 PUSH1 0x40 MLOAD PUSH1 0x20 ADD PUSH2 0xD8C SWAP2 DUP2 MSTORE PUSH1 0x20 ADD SWAP1 JUMP JUMPDEST PUSH1 0x40 MLOAD PUSH1 0x20 DUP2 DUP4 SUB SUB DUP2 MSTORE SWAP1 PUSH1 0x40 MSTORE PUSH2 0xDE2 JUMP JUMPDEST PUSH2 0xDAB DUP2 PUSH1 0x4 PUSH2 0x1016 JUMP JUMPDEST PUSH1 0x1 DUP2 PUSH1 0x20 ADD DUP2 DUP2 MLOAD PUSH2 0xDBE SWAP2 SWAP1 PUSH2 0x179F JUMP JUMPDEST SWAP1 MSTORE POP POP JUMP JUMPDEST PUSH2 0xDCF DUP2 PUSH1 0x7 PUSH2 0x1016 JUMP JUMPDEST PUSH1 0x1 DUP2 PUSH1 0x20 ADD DUP2 DUP2 MLOAD PUSH2 0xDBE SWAP2 SWAP1 PUSH2 0x17B2 JUMP JUMPDEST PUSH2 0xD5B DUP3 PUSH1 0x2 DUP4 MLOAD PUSH2 0xE66 JUMP JUMPDEST PUSH1 0x40 DUP1 MLOAD DUP1 DUP3 ADD SWAP1 SWAP2 MSTORE PUSH1 0x60 DUP2 MSTORE PUSH1 0x0 PUSH1 0x20 DUP3 ADD MSTORE PUSH2 0xE0F PUSH1 0x20 DUP4 PUSH2 0x17C5 JUMP JUMPDEST ISZERO PUSH2 0xE37 JUMPI PUSH2 0xE1F PUSH1 0x20 DUP4 PUSH2 0x17C5 JUMP JUMPDEST PUSH2 0xE2A SWAP1 PUSH1 0x20 PUSH2 0x17B2 JUMP JUMPDEST PUSH2 0xE34 SWAP1 DUP4 PUSH2 0x179F JUMP JUMPDEST SWAP2 POP JUMPDEST PUSH1 0x20 DUP1 DUP5 ADD DUP4 SWAP1 MSTORE PUSH1 0x40 MLOAD DUP1 DUP6 MSTORE PUSH1 0x0 DUP2 MSTORE SWAP1 DUP2 DUP5 ADD ADD DUP2 DUP2 LT ISZERO PUSH2 0xE5B JUMPI PUSH1 0x0 DUP1 REVERT JUMPDEST PUSH1 0x40 MSTORE POP SWAP2 SWAP3 SWAP2 POP POP JUMP JUMPDEST PUSH1 0x17 DUP2 PUSH1 0x1 PUSH1 0x1 PUSH1 0x40 SHL SUB AND GT PUSH2 0xE92 JUMPI DUP3 MLOAD PUSH2 0xE8C SWAP1 PUSH1 0xE0 PUSH1 0x5 DUP6 SWAP1 SHL AND DUP4 OR PUSH2 0xFAD JUMP JUMPDEST POP POP POP POP JUMP JUMPDEST PUSH1 0xFF DUP2 PUSH1 0x1 PUSH1 0x1 PUSH1 0x40 SHL SUB AND GT PUSH2 0xED2 JUMPI DUP3 MLOAD PUSH2 0xEBA SWAP1 PUSH1 0x18 PUSH2 0x1FE0 PUSH1 0x5 DUP7 SWAP1 SHL AND OR PUSH2 0xFAD JUMP JUMPDEST POP DUP3 MLOAD PUSH2 0xE8C SWAP1 PUSH1 0x1 PUSH1 0x1 PUSH1 0x40 SHL SUB DUP4 AND PUSH1 0x1 PUSH2 0x102D JUMP JUMPDEST PUSH2 0xFFFF DUP2 PUSH1 0x1 PUSH1 0x1 PUSH1 0x40 SHL SUB AND GT PUSH2 0xF13 JUMPI DUP3 MLOAD PUSH2 0xEFB SWAP1 PUSH1 0x19 PUSH2 0x1FE0 PUSH1 0x5 DUP7 SWAP1 SHL AND OR PUSH2 0xFAD JUMP JUMPDEST POP DUP3 MLOAD PUSH2 0xE8C SWAP1 PUSH1 0x1 PUSH1 0x1 PUSH1 0x40 SHL SUB DUP4 AND PUSH1 0x2 PUSH2 0x102D JUMP JUMPDEST PUSH4 0xFFFFFFFF DUP2 PUSH1 0x1 PUSH1 0x1 PUSH1 0x40 SHL SUB AND GT PUSH2 0xF56 JUMPI DUP3 MLOAD PUSH2 0xF3E SWAP1 PUSH1 0x1A PUSH2 0x1FE0 PUSH1 0x5 DUP7 SWAP1 SHL AND OR PUSH2 0xFAD JUMP JUMPDEST POP DUP3 MLOAD PUSH2 0xE8C SWAP1 PUSH1 0x1 PUSH1 0x1 PUSH1 0x40 SHL SUB DUP4 AND PUSH1 0x4 PUSH2 0x102D JUMP JUMPDEST DUP3 MLOAD PUSH2 0xF6D SWAP1 PUSH1 0x1B PUSH2 0x1FE0 PUSH1 0x5 DUP7 SWAP1 SHL AND OR PUSH2 0xFAD JUMP JUMPDEST POP DUP3 MLOAD PUSH2 0xE8C SWAP1 PUSH1 0x1 PUSH1 0x1 PUSH1 0x40 SHL SUB DUP4 AND PUSH1 0x8 PUSH2 0x102D JUMP JUMPDEST PUSH1 0x40 DUP1 MLOAD DUP1 DUP3 ADD SWAP1 SWAP2 MSTORE PUSH1 0x60 DUP2 MSTORE PUSH1 0x0 PUSH1 0x20 DUP3 ADD MSTORE PUSH2 0xFA6 DUP4 DUP4 DUP5 MLOAD PUSH2 0x10B2 JUMP JUMPDEST SWAP4 SWAP3 POP POP POP JUMP JUMPDEST PUSH1 0x40 DUP1 MLOAD DUP1 DUP3 ADD SWAP1 SWAP2 MSTORE PUSH1 0x60 DUP2 MSTORE PUSH1 0x0 PUSH1 0x20 DUP3 ADD MSTORE DUP3 MLOAD MLOAD PUSH1 0x0 PUSH2 0xFD2 DUP3 PUSH1 0x1 PUSH2 0x179F JUMP JUMPDEST SWAP1 POP DUP5 PUSH1 0x20 ADD MLOAD DUP3 LT PUSH2 0xFF3 JUMPI PUSH2 0xFF3 DUP6 PUSH2 0xFEE DUP4 PUSH1 0x2 PUSH2 0x17E7 JUMP JUMPDEST PUSH2 0x1183 JUMP JUMPDEST DUP5 MLOAD PUSH1 0x20 DUP4 DUP3 ADD ADD DUP6 DUP2 MSTORE8 POP DUP1 MLOAD DUP3 GT ISZERO PUSH2 0x100C JUMPI DUP2 DUP2 MSTORE JUMPDEST POP SWAP4 SWAP5 SWAP4 POP POP POP POP JUMP JUMPDEST DUP2 MLOAD PUSH2 0x3F0 SWAP1 PUSH1 0x1F PUSH2 0x1FE0 PUSH1 0x5 DUP6 SWAP1 SHL AND OR PUSH2 0xFAD JUMP JUMPDEST PUSH1 0x40 DUP1 MLOAD DUP1 DUP3 ADD SWAP1 SWAP2 MSTORE PUSH1 0x60 DUP2 MSTORE PUSH1 0x0 PUSH1 0x20 DUP3 ADD MSTORE DUP4 MLOAD MLOAD PUSH1 0x0 PUSH2 0x1051 DUP3 DUP6 PUSH2 0x179F JUMP JUMPDEST SWAP1 POP DUP6 PUSH1 0x20 ADD MLOAD DUP2 GT ISZERO PUSH2 0x106E JUMPI PUSH2 0x106E DUP7 PUSH2 0xFEE DUP4 PUSH1 0x2 PUSH2 0x17E7 JUMP JUMPDEST PUSH1 0x0 PUSH1 0x1 PUSH2 0x107E DUP7 PUSH2 0x100 PUSH2 0x18E2 JUMP JUMPDEST PUSH2 0x1088 SWAP2 SWAP1 PUSH2 0x17B2 JUMP JUMPDEST SWAP1 POP DUP7 MLOAD DUP3 DUP2 ADD DUP8 DUP4 NOT DUP3 MLOAD AND OR DUP2 MSTORE POP DUP1 MLOAD DUP4 GT ISZERO PUSH2 0x10A6 JUMPI DUP3 DUP2 MSTORE JUMPDEST POP SWAP6 SWAP7 SWAP6 POP POP POP POP POP POP JUMP JUMPDEST PUSH1 0x40 DUP1 MLOAD DUP1 DUP3 ADD SWAP1 SWAP2 MSTORE PUSH1 0x60 DUP2 MSTORE PUSH1 0x0 PUSH1 0x20 DUP3 ADD MSTORE DUP3 MLOAD DUP3 GT ISZERO PUSH2 0x10D5 JUMPI PUSH1 0x0 DUP1 REVERT JUMPDEST DUP4 MLOAD MLOAD PUSH1 0x0 PUSH2 0x10E4 DUP5 DUP4 PUSH2 0x179F JUMP JUMPDEST SWAP1 POP DUP6 PUSH1 0x20 ADD MLOAD DUP2 GT ISZERO PUSH2 0x1101 JUMPI PUSH2 0x1101 DUP7 PUSH2 0xFEE DUP4 PUSH1 0x2 PUSH2 0x17E7 JUMP JUMPDEST DUP6 MLOAD DUP1 MLOAD DUP4 DUP3 ADD PUSH1 0x20 ADD SWAP2 PUSH1 0x0 SWAP2 DUP1 DUP6 GT ISZERO PUSH2 0x111B JUMPI DUP5 DUP3 MSTORE JUMPDEST POP POP POP PUSH1 0x20 DUP7 ADD JUMPDEST PUSH1 0x20 DUP7 LT PUSH2 0x115B JUMPI DUP1 MLOAD DUP3 MSTORE PUSH2 0x113A PUSH1 0x20 DUP4 PUSH2 0x179F JUMP JUMPDEST SWAP2 POP PUSH2 0x1147 PUSH1 0x20 DUP3 PUSH2 0x179F JUMP JUMPDEST SWAP1 POP PUSH2 0x1154 PUSH1 0x20 DUP8 PUSH2 0x17B2 JUMP JUMPDEST SWAP6 POP PUSH2 0x1123 JUMP JUMPDEST MLOAD DUP2 MLOAD PUSH1 0x0 NOT PUSH1 0x20 DUP9 SWAP1 SUB PUSH2 0x100 EXP ADD SWAP1 DUP2 AND SWAP1 NOT SWAP2 SWAP1 SWAP2 AND OR SWAP1 MSTORE POP DUP5 SWAP2 POP POP SWAP4 SWAP3 POP POP POP JUMP JUMPDEST DUP2 MLOAD PUSH2 0x118F DUP4 DUP4 PUSH2 0xDEF JUMP JUMPDEST POP PUSH2 0xE8C DUP4 DUP3 PUSH2 0xF85 JUMP JUMPDEST PUSH1 0x40 MLOAD DUP1 PUSH1 0x40 ADD PUSH1 0x40 MSTORE DUP1 PUSH2 0x11C2 PUSH1 0x40 MLOAD DUP1 PUSH1 0x40 ADD PUSH1 0x40 MSTORE DUP1 PUSH1 0x60 DUP2 MSTORE PUSH1 0x20 ADD PUSH1 0x0 DUP2 MSTORE POP SWAP1 JUMP JUMPDEST DUP2 MSTORE PUSH1 0x20 ADD PUSH1 0x0 DUP2 MSTORE POP SWAP1 JUMP JUMPDEST PUSH4 0x4E487B71 PUSH1 0xE0 SHL PUSH1 0x0 MSTORE PUSH1 0x41 PUSH1 0x4 MSTORE PUSH1 0x24 PUSH1 0x0 REVERT JUMPDEST PUSH1 0x40 MLOAD PUSH1 0x1F DUP3 ADD PUSH1 0x1F NOT AND DUP2 ADD PUSH1 0x1 PUSH1 0x1 PUSH1 0x40 SHL SUB DUP2 GT DUP3 DUP3 LT OR ISZERO PUSH2 0x120D JUMPI PUSH2 0x120D PUSH2 0x11CF JUMP JUMPDEST PUSH1 0x40 MSTORE SWAP2 SWAP1 POP JUMP JUMPDEST PUSH1 0x0 DUP3 PUSH1 0x1F DUP4 ADD SLT PUSH2 0x1226 JUMPI PUSH1 0x0 DUP1 REVERT JUMPDEST DUP2 CALLDATALOAD PUSH1 0x1 PUSH1 0x1 PUSH1 0x40 SHL SUB DUP2 GT ISZERO PUSH2 0x123F JUMPI PUSH2 0x123F PUSH2 0x11CF JUMP JUMPDEST PUSH2 0x1252 PUSH1 0x1F DUP3 ADD PUSH1 0x1F NOT AND PUSH1 0x20 ADD PUSH2 0x11E5 JUMP JUMPDEST DUP2 DUP2 MSTORE DUP5 PUSH1 0x20 DUP4 DUP7 ADD ADD GT ISZERO PUSH2 0x1267 JUMPI PUSH1 0x0 DUP1 REVERT JUMPDEST DUP2 PUSH1 0x20 DUP6 ADD PUSH1 0x20 DUP4 ADD CALLDATACOPY PUSH1 0x0 SWAP2 DUP2 ADD PUSH1 0x20 ADD SWAP2 SWAP1 SWAP2 MSTORE SWAP4 SWAP3 POP POP POP JUMP JUMPDEST PUSH1 0x0 DUP1 PUSH1 0x0 PUSH1 0x60 DUP5 DUP7 SUB SLT ISZERO PUSH2 0x1299 JUMPI PUSH1 0x0 DUP1 REVERT JUMPDEST DUP4 CALLDATALOAD SWAP3 POP PUSH1 0x20 DUP5 ADD CALLDATALOAD PUSH1 0x1 PUSH1 0x1 PUSH1 0x40 SHL SUB DUP1 DUP3 GT ISZERO PUSH2 0x12B7 JUMPI PUSH1 0x0 DUP1 REVERT JUMPDEST PUSH2 0x12C3 DUP8 DUP4 DUP9 ADD PUSH2 0x1215 JUMP JUMPDEST SWAP4 POP PUSH1 0x40 DUP7 ADD CALLDATALOAD SWAP2 POP DUP1 DUP3 GT ISZERO PUSH2 0x12D9 JUMPI PUSH1 0x0 DUP1 REVERT JUMPDEST POP PUSH2 0x12E6 DUP7 DUP3 DUP8 ADD PUSH2 0x1215 JUMP JUMPDEST SWAP2 POP POP SWAP3 POP SWAP3 POP SWAP3 JUMP JUMPDEST PUSH1 0x0 PUSH1 0x20 DUP3 DUP5 SUB SLT ISZERO PUSH2 0x1302 JUMPI PUSH1 0x0 DUP1 REVERT JUMPDEST DUP2 CALLDATALOAD PUSH1 0x1 PUSH1 0x1 PUSH1 0x40 SHL SUB DUP2 AND DUP2 EQ PUSH2 0xFA6 JUMPI PUSH1 0x0 DUP1 REVERT JUMPDEST PUSH1 0x0 PUSH1 0x20 DUP3 DUP5 SUB SLT ISZERO PUSH2 0x132B JUMPI PUSH1 0x0 DUP1 REVERT JUMPDEST DUP2 CALLDATALOAD PUSH4 0xFFFFFFFF DUP2 AND DUP2 EQ PUSH2 0xFA6 JUMPI PUSH1 0x0 DUP1 REVERT JUMPDEST PUSH1 0x0 PUSH1 0x20 DUP3 DUP5 SUB SLT ISZERO PUSH2 0x1351 JUMPI PUSH1 0x0 DUP1 REVERT JUMPDEST POP CALLDATALOAD SWAP2 SWAP1 POP JUMP JUMPDEST DUP1 CALLDATALOAD DUP1 ISZERO ISZERO DUP2 EQ PUSH2 0x1368 JUMPI PUSH1 0x0 DUP1 REVERT JUMPDEST SWAP2 SWAP1 POP JUMP JUMPDEST PUSH1 0x0 DUP1 PUSH1 0x40 DUP4 DUP6 SUB SLT ISZERO PUSH2 0x1380 JUMPI PUSH1 0x0 DUP1 REVERT JUMPDEST PUSH2 0x1389 DUP4 PUSH2 0x1358 JUMP JUMPDEST SWAP2 POP PUSH1 0x20 DUP4 ADD CALLDATALOAD PUSH1 0x1 PUSH1 0x1 PUSH1 0x40 SHL SUB DUP2 GT ISZERO PUSH2 0x13A4 JUMPI PUSH1 0x0 DUP1 REVERT JUMPDEST PUSH2 0x13B0 DUP6 DUP3 DUP7 ADD PUSH2 0x1215 JUMP JUMPDEST SWAP2 POP POP SWAP3 POP SWAP3 SWAP1 POP JUMP JUMPDEST PUSH1 0x0 DUP1 PUSH1 0x40 DUP4 DUP6 SUB SLT ISZERO PUSH2 0x13CD JUMPI PUSH1 0x0 DUP1 REVERT JUMPDEST PUSH2 0x13D6 DUP4 PUSH2 0x1358 JUMP JUMPDEST SWAP2 POP PUSH1 0x20 DUP1 DUP5 ADD CALLDATALOAD PUSH1 0x1 PUSH1 0x1 PUSH1 0x40 SHL SUB DUP1 DUP3 GT ISZERO PUSH2 0x13F3 JUMPI PUSH1 0x0 DUP1 REVERT JUMPDEST DUP2 DUP7 ADD SWAP2 POP DUP7 PUSH1 0x1F DUP4 ADD SLT PUSH2 0x1407 JUMPI PUSH1 0x0 DUP1 REVERT JUMPDEST DUP2 CALLDATALOAD DUP2 DUP2 GT ISZERO PUSH2 0x1419 JUMPI PUSH2 0x1419 PUSH2 0x11CF JUMP JUMPDEST DUP1 PUSH1 0x5 SHL PUSH2 0x1428 DUP6 DUP3 ADD PUSH2 0x11E5 JUMP JUMPDEST SWAP2 DUP3 MSTORE DUP4 DUP2 ADD DUP6 ADD SWAP2 DUP6 DUP2 ADD SWAP1 DUP11 DUP5 GT ISZERO PUSH2 0x1442 JUMPI PUSH1 0x0 DUP1 REVERT JUMPDEST DUP7 DUP7 ADD SWAP3 POP JUMPDEST DUP4 DUP4 LT ISZERO PUSH2 0x147E JUMPI DUP3 CALLDATALOAD DUP6 DUP2 GT ISZERO PUSH2 0x1460 JUMPI PUSH1 0x0 DUP1 DUP2 REVERT JUMPDEST PUSH2 0x146E DUP13 DUP10 DUP4 DUP11 ADD ADD PUSH2 0x1215 JUMP JUMPDEST DUP4 MSTORE POP SWAP2 DUP7 ADD SWAP2 SWAP1 DUP7 ADD SWAP1 PUSH2 0x1448 JUMP JUMPDEST DUP1 SWAP8 POP POP POP POP POP POP POP POP SWAP3 POP SWAP3 SWAP1 POP JUMP JUMPDEST PUSH1 0x0 PUSH1 0x20 DUP3 DUP5 SUB SLT ISZERO PUSH2 0x14A1 JUMPI PUSH1 0x0 DUP1 REVERT JUMPDEST DUP2 CALLDATALOAD PUSH1 0x1 PUSH1 0x1 PUSH1 0xA0 SHL SUB DUP2 AND DUP2 EQ PUSH2 0xFA6 JUMPI PUSH1 0x0 DUP1 REVERT JUMPDEST PUSH1 0x0 PUSH1 0x20 DUP3 DUP5 SUB SLT ISZERO PUSH2 0x14CA JUMPI PUSH1 0x0 DUP1 REVERT JUMPDEST DUP2 CALLDATALOAD PUSH1 0x1 PUSH1 0x1 PUSH1 0x40 SHL SUB DUP2 GT ISZERO PUSH2 0x14E0 JUMPI PUSH1 0x0 DUP1 REVERT JUMPDEST PUSH2 0x14EC DUP5 DUP3 DUP6 ADD PUSH2 0x1215 JUMP JUMPDEST SWAP5 SWAP4 POP POP POP POP JUMP JUMPDEST PUSH1 0x0 DUP2 MLOAD DUP1 DUP5 MSTORE PUSH1 0x0 JUMPDEST DUP2 DUP2 LT ISZERO PUSH2 0x151A JUMPI PUSH1 0x20 DUP2 DUP6 ADD DUP2 ADD MLOAD DUP7 DUP4 ADD DUP3 ADD MSTORE ADD PUSH2 0x14FE JUMP JUMPDEST POP PUSH1 0x0 PUSH1 0x20 DUP3 DUP7 ADD ADD MSTORE PUSH1 0x20 PUSH1 0x1F NOT PUSH1 0x1F DUP4 ADD AND DUP6 ADD ADD SWAP2 POP POP SWAP3 SWAP2 POP POP JUMP JUMPDEST PUSH1 0x20 DUP2 MSTORE PUSH1 0x0 PUSH2 0xFA6 PUSH1 0x20 DUP4 ADD DUP5 PUSH2 0x14F4 JUMP JUMPDEST PUSH1 0x1 DUP2 DUP2 SHR SWAP1 DUP3 AND DUP1 PUSH2 0x1561 JUMPI PUSH1 0x7F DUP3 AND SWAP2 POP JUMPDEST PUSH1 0x20 DUP3 LT DUP2 SUB PUSH2 0x1581 JUMPI PUSH4 0x4E487B71 PUSH1 0xE0 SHL PUSH1 0x0 MSTORE PUSH1 0x22 PUSH1 0x4 MSTORE PUSH1 0x24 PUSH1 0x0 REVERT JUMPDEST POP SWAP2 SWAP1 POP JUMP JUMPDEST PUSH1 0x1F DUP3 GT ISZERO PUSH2 0x3F0 JUMPI PUSH1 0x0 DUP2 DUP2 MSTORE PUSH1 0x20 DUP2 KECCAK256 PUSH1 0x1F DUP6 ADD PUSH1 0x5 SHR DUP2 ADD PUSH1 0x20 DUP7 LT ISZERO PUSH2 0x15AE JUMPI POP DUP1 JUMPDEST PUSH1 0x1F DUP6 ADD PUSH1 0x5 SHR DUP3 ADD SWAP2 POP JUMPDEST DUP2 DUP2 LT ISZERO PUSH2 0x15CD JUMPI DUP3 DUP2 SSTORE PUSH1 0x1 ADD PUSH2 0x15BA JUMP JUMPDEST POP POP POP POP POP POP JUMP JUMPDEST DUP2 MLOAD PUSH1 0x1 PUSH1 0x1 PUSH1 0x40 SHL SUB DUP2 GT ISZERO PUSH2 0x15EE JUMPI PUSH2 0x15EE PUSH2 0x11CF JUMP JUMPDEST PUSH2 0x1602 DUP2 PUSH2 0x15FC DUP5 SLOAD PUSH2 0x154D JUMP JUMPDEST DUP5 PUSH2 0x1587 JUMP JUMPDEST PUSH1 0x20 DUP1 PUSH1 0x1F DUP4 GT PUSH1 0x1 DUP2 EQ PUSH2 0x1637 JUMPI PUSH1 0x0 DUP5 ISZERO PUSH2 0x161F JUMPI POP DUP6 DUP4 ADD MLOAD JUMPDEST PUSH1 0x0 NOT PUSH1 0x3 DUP7 SWAP1 SHL SHR NOT AND PUSH1 0x1 DUP6 SWAP1 SHL OR DUP6 SSTORE PUSH2 0x15CD JUMP JUMPDEST PUSH1 0x0 DUP6 DUP2 MSTORE PUSH1 0x20 DUP2 KECCAK256 PUSH1 0x1F NOT DUP7 AND SWAP2 JUMPDEST DUP3 DUP2 LT ISZERO PUSH2 0x1666 JUMPI DUP9 DUP7 ADD MLOAD DUP3 SSTORE SWAP5 DUP5 ADD SWAP5 PUSH1 0x1 SWAP1 SWAP2 ADD SWAP1 DUP5 ADD PUSH2 0x1647 JUMP JUMPDEST POP DUP6 DUP3 LT ISZERO PUSH2 0x1684 JUMPI DUP8 DUP6 ADD MLOAD PUSH1 0x0 NOT PUSH1 0x3 DUP9 SWAP1 SHL PUSH1 0xF8 AND SHR NOT AND DUP2 SSTORE JUMPDEST POP POP POP POP POP PUSH1 0x1 SWAP1 DUP2 SHL ADD SWAP1 SSTORE POP JUMP JUMPDEST DUP3 DUP2 MSTORE PUSH1 0x40 PUSH1 0x20 DUP3 ADD MSTORE PUSH1 0x0 PUSH2 0x14EC PUSH1 0x40 DUP4 ADD DUP5 PUSH2 0x14F4 JUMP JUMPDEST DUP4 DUP2 MSTORE PUSH1 0x60 PUSH1 0x20 DUP3 ADD MSTORE PUSH1 0x0 PUSH2 0x16C6 PUSH1 0x60 DUP4 ADD DUP6 PUSH2 0x14F4 JUMP JUMPDEST DUP3 DUP2 SUB PUSH1 0x40 DUP5 ADD MSTORE PUSH2 0x16D8 DUP2 DUP6 PUSH2 0x14F4 JUMP JUMPDEST SWAP7 SWAP6 POP POP POP POP POP POP JUMP JUMPDEST PUSH4 0x4E487B71 PUSH1 0xE0 SHL PUSH1 0x0 MSTORE PUSH1 0x21 PUSH1 0x4 MSTORE PUSH1 0x24 PUSH1 0x0 REVERT JUMPDEST PUSH4 0x4E487B71 PUSH1 0xE0 SHL PUSH1 0x0 MSTORE PUSH1 0x32 PUSH1 0x4 MSTORE PUSH1 0x24 PUSH1 0x0 REVERT JUMPDEST PUSH4 0x4E487B71 PUSH1 0xE0 SHL PUSH1 0x0 MSTORE PUSH1 0x11 PUSH1 0x4 MSTORE PUSH1 0x24 PUSH1 0x0 REVERT JUMPDEST PUSH1 0x0 PUSH1 0x1 DUP3 ADD PUSH2 0x1736 JUMPI PUSH2 0x1736 PUSH2 0x170E JUMP JUMPDEST POP PUSH1 0x1 ADD SWAP1 JUMP JUMPDEST PUSH1 0x1 PUSH1 0x1 PUSH1 0x40 SHL SUB DUP7 AND DUP2 MSTORE PUSH1 0xA0 PUSH1 0x20 DUP3 ADD MSTORE PUSH1 0x0 PUSH2 0x175F PUSH1 0xA0 DUP4 ADD DUP8 PUSH2 0x14F4 JUMP JUMPDEST PUSH2 0xFFFF SWAP6 SWAP1 SWAP6 AND PUSH1 0x40 DUP4 ADD MSTORE POP PUSH4 0xFFFFFFFF SWAP3 SWAP1 SWAP3 AND PUSH1 0x60 DUP4 ADD MSTORE PUSH1 0x80 SWAP1 SWAP2 ADD MSTORE SWAP3 SWAP2 POP POP JUMP JUMPDEST PUSH1 0x0 PUSH1 0x20 DUP3 DUP5 SUB SLT ISZERO PUSH2 0x1798 JUMPI PUSH1 0x0 DUP1 REVERT JUMPDEST POP MLOAD SWAP2 SWAP1 POP JUMP JUMPDEST DUP1 DUP3 ADD DUP1 DUP3 GT ISZERO PUSH2 0x60A JUMPI PUSH2 0x60A PUSH2 0x170E JUMP JUMPDEST DUP2 DUP2 SUB DUP2 DUP2 GT ISZERO PUSH2 0x60A JUMPI PUSH2 0x60A PUSH2 0x170E JUMP JUMPDEST PUSH1 0x0 DUP3 PUSH2 0x17E2 JUMPI PUSH4 0x4E487B71 PUSH1 0xE0 SHL PUSH1 0x0 MSTORE PUSH1 0x12 PUSH1 0x4 MSTORE PUSH1 0x24 PUSH1 0x0 REVERT JUMPDEST POP MOD SWAP1 JUMP JUMPDEST DUP1 DUP3 MUL DUP2 ISZERO DUP3 DUP3 DIV DUP5 EQ OR PUSH2 0x60A JUMPI PUSH2 0x60A PUSH2 0x170E JUMP JUMPDEST PUSH1 0x1 DUP2 DUP2 JUMPDEST DUP1 DUP6 GT ISZERO PUSH2 0x1839 JUMPI DUP2 PUSH1 0x0 NOT DIV DUP3 GT ISZERO PUSH2 0x181F JUMPI PUSH2 0x181F PUSH2 0x170E JUMP JUMPDEST DUP1 DUP6 AND ISZERO PUSH2 0x182C JUMPI SWAP2 DUP2 MUL SWAP2 JUMPDEST SWAP4 DUP5 SHR SWAP4 SWAP1 DUP1 MUL SWAP1 PUSH2 0x1803 JUMP JUMPDEST POP SWAP3 POP SWAP3 SWAP1 POP JUMP JUMPDEST PUSH1 0x0 DUP3 PUSH2 0x1850 JUMPI POP PUSH1 0x1 PUSH2 0x60A JUMP JUMPDEST DUP2 PUSH2 0x185D JUMPI POP PUSH1 0x0 PUSH2 0x60A JUMP JUMPDEST DUP2 PUSH1 0x1 DUP2 EQ PUSH2 0x1873 JUMPI PUSH1 0x2 DUP2 EQ PUSH2 0x187D JUMPI PUSH2 0x1899 JUMP JUMPDEST PUSH1 0x1 SWAP2 POP POP PUSH2 0x60A JUMP JUMPDEST PUSH1 0xFF DUP5 GT ISZERO PUSH2 0x188E JUMPI PUSH2 0x188E PUSH2 0x170E JUMP JUMPDEST POP POP PUSH1 0x1 DUP3 SHL PUSH2 0x60A JUMP JUMPDEST POP PUSH1 0x20 DUP4 LT PUSH2 0x133 DUP4 LT AND PUSH1 0x4E DUP5 LT PUSH1 0xB DUP5 LT AND OR ISZERO PUSH2 0x18BC JUMPI POP DUP2 DUP2 EXP PUSH2 0x60A JUMP JUMPDEST PUSH2 0x18C6 DUP4 DUP4 PUSH2 0x17FE JUMP JUMPDEST DUP1 PUSH1 0x0 NOT DIV DUP3 GT ISZERO PUSH2 0x18DA JUMPI PUSH2 0x18DA PUSH2 0x170E JUMP JUMPDEST MUL SWAP4 SWAP3 POP POP POP JUMP JUMPDEST PUSH1 0x0 PUSH2 0xFA6 DUP4 DUP4 PUSH2 0x1841 JUMP INVALID LOG2 PUSH5 0x6970667358 0x22 SLT KECCAK256 0xE6 KECCAK256 PUSH21 0x8590569A7893C0770E339BC899E519289E12AF7E59 0x24 SHR PUSH14 0x58D424DFEA64736F6C6343000814 STOP CALLER PUSH4 0x6F6E7374 KECCAK256 PUSH15 0x616D65203D20617267735B305D3B63 PUSH16 0x6E7374206465736372697074696F6E20 RETURNDATASIZE KECCAK256 PUSH2 0x7267 PUSH20 0x5B315D3B636F6E737420696D616765203D206172 PUSH8 0x735B325D3B636F6E PUSH20 0x742062616E6E6572203D20617267735B335D3B63 PUSH16 0x6E73742065787465726E616C5F6C696E PUSH12 0x203D20617267735B345D3B63 PUSH16 0x6E7374206A736F6E44617461203D207B KECCAK256 KECCAK256 PUSH17 0x696E617461436F6E74656E743A207B2020 KECCAK256 KECCAK256 PUSH15 0x616D653A206E616D652C2020202064 PUSH6 0x736372697074 PUSH10 0x6F6E3A20646573637269 PUSH17 0x74696F6E2C2020202065787465726E616C PUSH0 PUSH13 0x696E6B3A2065787465726E616C PUSH0 PUSH13 0x696E6B2C20202020696D616765 GASPRICE KECCAK256 PUSH10 0x6D6167652C2020202062 PUSH2 0x6E6E PUSH6 0x723A2062616E PUSH15 0x657220207D7D3B636F6E7374206170 PUSH10 0x526573706F6E7365203D KECCAK256 PUSH2 0x7761 PUSH10 0x742046756E6374696F6E PUSH20 0x2E6D616B654874747052657175657374287B2020 PUSH22 0x726C3A202768747470733A2F2F6170692E70696E6174 PUSH2 0x2E63 PUSH13 0x6F75642F70696E6E696E672F70 PUSH10 0x6E4A534F4E546F495046 MSTORE8 0x27 0x2C KECCAK256 KECCAK256 PUSH14 0x6574686F643A2027504F5354272C KECCAK256 KECCAK256 PUSH9 0x6561646572733A207B KECCAK256 KECCAK256 KECCAK256 KECCAK256 0x27 NUMBER PUSH16 0x6E74656E742D54797065273A20276170 PUSH17 0x6C69636174696F6E2F6A736F6E272C2020 KECCAK256 KECCAK256 0x27 COINBASE PUSH4 0x63657074 0x27 GASPRICE KECCAK256 0x27 PUSH2 0x7070 PUSH13 0x69636174696F6E2F6A736F6E27 0x2C KECCAK256 KECCAK256 KECCAK256 KECCAK256 0x27 COINBASE PUSH22 0x74686F72697A6174696F6E273A206042656172657220 0x24 PUSH28 0x736563726574732E70696E6174614A57547D6020207D2C2020646174 PUSH2 0x3A20 PUSH11 0x736F6E446174617D293B69 PUSH7 0x20286170695265 PUSH20 0x706F6E73652E6572726F7229207B20207468726F PUSH24 0x206E6577204572726F7228606D6573736167653A20247B61 PUSH17 0x69526573706F6E73652E6D657373616765 PUSH30 0x20636F64653A20247B617069526573706F6E73652E636F64657D20726573 PUSH17 0x6F6E73653A20247B4A534F4E2E73747269 PUSH15 0x6769667928617069526573706F6E73 PUSH6 0x2E726573706F PUSH15 0x7365297D60293B7D72657475726E20 CHAINID PUSH22 0x6E6374696F6E732E656E636F6465537472696E672860 PUSH9 0x747470733A2F2F6970 PUSH7 0x732E696F2F6970 PUSH7 0x732F247B617069 MSTORE PUSH6 0x73706F6E7365 0x2E PUSH5 0x6174612E49 PUSH17 0x6673486173687D60293B636F6E7374206E PUSH2 0x6D65 KECCAK256 RETURNDATASIZE KECCAK256 PUSH2 0x7267 PUSH20 0x5B305D3B636F6E7374206465736372697074696F PUSH15 0x203D20617267735B315D3B636F6E73 PUSH21 0x20696D616765203D20617267735B325D3B636F6E73 PUSH21 0x2065787465726E616C5F75726C203D20617267735B CALLER 0x5D EXTCODESIZE PUSH4 0x6F6E7374 KECCAK256 PUSH24 0x69647468203D20617267735B345D3B636F6E737420686569 PUSH8 0x6874203D20617267 PUSH20 0x5B355D3B636F6E7374207072696365203D207061 PUSH19 0x7365466C6F617428617267735B365D29202F20 0x4D PUSH2 0x7468 0x2E PUSH17 0x6F772831302C203138293B636F6E737420 PUSH13 0x6F7474657279203D2061726773 0x2E PUSH13 0x656E677468203E20373B636F6E PUSH20 0x74206A736F6E44617461203D207B202070696E61 PUSH21 0x61436F6E74656E743A207B202020206E616D653A20 PUSH15 0x616D652C2020202064657363726970 PUSH21 0x696F6E3A206465736372697074696F6E2C20202020 PUSH6 0x787465726E61 PUSH13 0x5F75726C3A2065787465726E61 PUSH13 0x5F75726C2C20202020696D6167 PUSH6 0x3A20696D6167 PUSH6 0x2C2020202061 PUSH15 0x696D6174696F6E5F75726C3A206068 PUSH21 0x7470733A2F2F7777772E6F6E636861696E636F6E73 PUSH16 0x6C652E636F6D2F707265766965772E68 PUSH21 0x6D6C3F696D6167653D247B696D6167657D26776964 PUSH21 0x683D247B77696474687D266865696768743D247B68 PUSH6 0x696768747D26 PUSH10 0x734C6F74746572793D24 PUSH28 0x6C6F74746572797D602C20202020617474726962757465733A205B7B KECCAK256 PUSH21 0x726169745F747970653A202757696474682028636D 0x29 0x27 0x2C KECCAK256 PUSH23 0x616C75653A2060247B77696474687D60207D2C207B2074 PUSH19 0x6169745F747970653A20274865696768742028 PUSH4 0x6D29272C KECCAK256 PUSH23 0x616C75653A2060247B6865696768747D60207D2C207B20 PUSH21 0x726169745F747970653A20216C6F7474657279203F KECCAK256 0x27 0x4D PUSH10 0x6E742050726963652028 SSTORE MSTORE8 PREVRANDAO 0x29 0x27 KECCAK256 GASPRICE KECCAK256 0x27 SLOAD PUSH10 0x636B6574205072696365 KECCAK256 0x28 SSTORE MSTORE8 PREVRANDAO 0x29 0x27 0x2C KECCAK256 PUSH23 0x616C75653A2060247B70726963657D60207D2C20216C6F PUSH21 0x74657279203F207B7D203A207B74726169745F7479 PUSH17 0x653A20275469636B657420416D6F756E74 0x27 0x2C KECCAK256 PUSH23 0x616C75653A20617267735B375D7D5D20207D7D3B636F6E PUSH20 0x7420617069526573706F6E7365203D2061776169 PUSH21 0x2046756E6374696F6E732E6D616B65487474705265 PUSH18 0x75657374287B202075726C3A202768747470 PUSH20 0x3A2F2F6170692E70696E6174612E636C6F75642F PUSH17 0x696E6E696E672F70696E4A534F4E546F49 POP CHAINID MSTORE8 0x27 0x2C KECCAK256 KECCAK256 PUSH14 0x6574686F643A2027504F5354272C KECCAK256 KECCAK256 PUSH9 0x6561646572733A207B KECCAK256 KECCAK256 KECCAK256 KECCAK256 0x27 NUMBER PUSH16 0x6E74656E742D54797065273A20276170 PUSH17 0x6C69636174696F6E2F6A736F6E272C2020 KECCAK256 KECCAK256 0x27 COINBASE PUSH4 0x63657074 0x27 GASPRICE KECCAK256 0x27 PUSH2 0x7070 PUSH13 0x69636174696F6E2F6A736F6E27 0x2C KECCAK256 KECCAK256 KECCAK256 KECCAK256 0x27 COINBASE PUSH22 0x74686F72697A6174696F6E273A206042656172657220 0x24 PUSH28 0x736563726574732E70696E6174614A57547D6020207D2C2020646174 PUSH2 0x3A20 PUSH11 0x736F6E446174617D293B69 PUSH7 0x20286170695265 PUSH20 0x706F6E73652E6572726F7229207B20207468726F PUSH24 0x206E6577204572726F7228606D6573736167653A20247B61 PUSH17 0x69526573706F6E73652E6D657373616765 PUSH30 0x20636F64653A20247B617069526573706F6E73652E636F64657D20726573 PUSH17 0x6F6E73653A20247B4A534F4E2E73747269 PUSH15 0x6769667928617069526573706F6E73 PUSH6 0x2E726573706F PUSH15 0x7365297D60293B7D72657475726E20 CHAINID PUSH22 0x6E6374696F6E732E656E636F6465537472696E672860 PUSH9 0x747470733A2F2F6970 PUSH7 0x732E696F2F6970 PUSH7 0x732F247B617069 MSTORE PUSH6 0x73706F6E7365 0x2E PUSH5 0x6174612E49 PUSH17 0x6673486173687D60293B1E9CE0FE8DC86F 0xFB 0xB0 0xE3 MLOAD 0x1F NOT 0xD DUP16 PUSH24 0x3F26B8A425447B37518E52A69F30EE69395D5D5613761EE ADD SWAP16 LOG1 CODECOPY 0x49 0xAE 0xA7 0xCD PUSH13 0xA33C7E784895E7229642C52F55 PUSH3 0x97FE4B CHAINID PUSH30 0xC2014656D4642A7D358FC50735CD038D22AA01B56B3CD1AB3F40C1E472A1 SWAP12 0xA5 SAR SWAP8 0x27 0xCA 0xEE MULMOD CALL SELFDESTRUCT PUSH17 0x586F589205B8EB9D27788488253E5F74 SMOD PUSH17 0xD54CCB9443A8C78B6143C4FD917BBF161A "},"methodIdentifiers":{"adsManager()":"490f2798","createMetadata(bool,string[])":"98b8d04a","donId()":"8dbe7b9d","encryptedSecretsUrls()":"dab79c40","errors(bytes32)":"be41cee3","gasLimit()":"f68016b7","handleOracleFulfillment(bytes32,bytes,bytes)":"0ca76175","owner()":"8da5cb5b","renounceOwnership()":"715018a6","router()":"f887ea40","subscriptionId()":"09c1ba2e","transferOwnership(address)":"f2fde38b","updateAdsManager(address)":"a043274d","updateDonId(bytes32)":"6df0c747","updateEncryptedSecretsUrls(bytes)":"a42f3b2f","updateGasLimit(uint32)":"34303bcd","updateRouter(address)":"c851cc32","updateSource(bool,string)":"888f3036","updateSubscriptionId(uint64)":"14b1dd1b"}}}}}