{"contracts/demo-game00/GameManager.sol":{"GameManager":{"abi":[{"inputs":[],"stateMutability":"nonpayable","type":"constructor"},{"inputs":[],"name":"EmptySecrets","type":"error"},{"inputs":[],"name":"EmptySource","type":"error"},{"inputs":[],"name":"NoInlineSecrets","type":"error"},{"inputs":[],"name":"OnlyRouterCanFulfill","type":"error"},{"inputs":[{"internalType":"address","name":"owner","type":"address"}],"name":"OwnableInvalidOwner","type":"error"},{"inputs":[{"internalType":"address","name":"account","type":"address"}],"name":"OwnableUnauthorizedAccount","type":"error"},{"anonymous":false,"inputs":[{"indexed":false,"internalType":"address","name":"winner","type":"address"},{"indexed":false,"internalType":"bytes","name":"errors","type":"bytes"}],"name":"ChallengeFulfilled","type":"event"},{"anonymous":false,"inputs":[{"indexed":true,"internalType":"address","name":"previousOwner","type":"address"},{"indexed":true,"internalType":"address","name":"newOwner","type":"address"}],"name":"OwnershipTransferred","type":"event"},{"anonymous":false,"inputs":[{"indexed":true,"internalType":"bytes32","name":"id","type":"bytes32"}],"name":"RequestFulfilled","type":"event"},{"anonymous":false,"inputs":[{"indexed":true,"internalType":"bytes32","name":"id","type":"bytes32"}],"name":"RequestSent","type":"event"},{"inputs":[{"internalType":"bytes","name":"","type":"bytes"}],"name":"checkUpkeep","outputs":[{"internalType":"bool","name":"upkeepNeeded","type":"bool"},{"internalType":"bytes","name":"","type":"bytes"}],"stateMutability":"view","type":"function"},{"inputs":[],"name":"donId","outputs":[{"internalType":"bytes32","name":"","type":"bytes32"}],"stateMutability":"view","type":"function"},{"inputs":[],"name":"encryptedSecretsUrls","outputs":[{"internalType":"bytes","name":"","type":"bytes"}],"stateMutability":"view","type":"function"},{"inputs":[],"name":"endDate","outputs":[{"internalType":"uint256","name":"","type":"uint256"}],"stateMutability":"view","type":"function"},{"inputs":[{"internalType":"bytes32","name":"","type":"bytes32"}],"name":"errors","outputs":[{"internalType":"bytes","name":"","type":"bytes"}],"stateMutability":"view","type":"function"},{"inputs":[],"name":"factory","outputs":[{"internalType":"contract IERC721","name":"","type":"address"}],"stateMutability":"view","type":"function"},{"inputs":[],"name":"gasLimit","outputs":[{"internalType":"uint32","name":"","type":"uint32"}],"stateMutability":"view","type":"function"},{"inputs":[{"internalType":"bytes32","name":"requestId","type":"bytes32"},{"internalType":"bytes","name":"response","type":"bytes"},{"internalType":"bytes","name":"err","type":"bytes"}],"name":"handleOracleFulfillment","outputs":[],"stateMutability":"nonpayable","type":"function"},{"inputs":[],"name":"nftsSended","outputs":[{"internalType":"bool","name":"","type":"bool"}],"stateMutability":"view","type":"function"},{"inputs":[{"internalType":"address","name":"","type":"address"},{"internalType":"address","name":"","type":"address"},{"internalType":"uint256","name":"","type":"uint256"},{"internalType":"bytes","name":"","type":"bytes"}],"name":"onERC721Received","outputs":[{"internalType":"bytes4","name":"","type":"bytes4"}],"stateMutability":"nonpayable","type":"function"},{"inputs":[],"name":"owner","outputs":[{"internalType":"address","name":"","type":"address"}],"stateMutability":"view","type":"function"},{"inputs":[{"internalType":"bytes","name":"","type":"bytes"}],"name":"performUpkeep","outputs":[],"stateMutability":"nonpayable","type":"function"},{"inputs":[],"name":"renounceOwnership","outputs":[],"stateMutability":"nonpayable","type":"function"},{"inputs":[],"name":"router","outputs":[{"internalType":"address","name":"","type":"address"}],"stateMutability":"view","type":"function"},{"inputs":[],"name":"sendRequest","outputs":[],"stateMutability":"nonpayable","type":"function"},{"inputs":[],"name":"subscriptionId","outputs":[{"internalType":"uint64","name":"","type":"uint64"}],"stateMutability":"view","type":"function"},{"inputs":[{"internalType":"address","name":"newOwner","type":"address"}],"name":"transferOwnership","outputs":[],"stateMutability":"nonpayable","type":"function"},{"inputs":[{"internalType":"bytes32","name":"donId_","type":"bytes32"}],"name":"updateDonId","outputs":[],"stateMutability":"nonpayable","type":"function"},{"inputs":[{"internalType":"bytes","name":"encryptedSecretsUrls_","type":"bytes"}],"name":"updateEncryptedSecretsUrls","outputs":[],"stateMutability":"nonpayable","type":"function"},{"inputs":[{"internalType":"uint256","name":"endDate_","type":"uint256"}],"name":"updateEndDate","outputs":[],"stateMutability":"nonpayable","type":"function"},{"inputs":[{"internalType":"address","name":"factory_","type":"address"}],"name":"updateFactory","outputs":[],"stateMutability":"nonpayable","type":"function"},{"inputs":[{"internalType":"uint32","name":"gasLimit_","type":"uint32"}],"name":"updateGasLimit","outputs":[],"stateMutability":"nonpayable","type":"function"},{"inputs":[{"internalType":"address","name":"router_","type":"address"}],"name":"updateRouter","outputs":[],"stateMutability":"nonpayable","type":"function"},{"inputs":[{"internalType":"string","name":"source_","type":"string"}],"name":"updateSource","outputs":[],"stateMutability":"nonpayable","type":"function"},{"inputs":[{"internalType":"uint64","name":"subscriptionId_","type":"uint64"}],"name":"updateSubscriptionId","outputs":[],"stateMutability":"nonpayable","type":"function"},{"inputs":[],"name":"winner","outputs":[{"internalType":"address","name":"","type":"address"}],"stateMutability":"view","type":"function"}],"evm":{"bytecode":{"linkReferences":{},"object":"6365830f8060025560038054610100600160e81b0319167605ebd8bdb0e3832607451e351fd2ce8a805e2653598d00179055610160604052609160a081815290620025ff60c03960049062000055908262000231565b50600580546001600160a01b03191673a9d587a00a31a52ed70d6026794a8fc5e2f5dcb01790557f66756e2d6176616c616e6368652d66756a692d310000000000000000000000006006556007805463ffffffff1916620493e017905560408051610480810190915261045e808252620021a16020830139600990620000dc908262000231565b50348015620000ea57600080fd5b506005546001600160a01b031633806200011e57604051631e4fbdf760e01b81526000600482015260240160405180910390fd5b62000129816200013c565b506001600160a01b0316608052620002fd565b600080546001600160a01b038381166001600160a01b0319831681178455604051919092169283917f8be0079c531659141344cd1fd0a4f28419497f9722a3daafe3b4186f6b6457e09190a35050565b634e487b7160e01b600052604160045260246000fd5b600181811c90821680620001b757607f821691505b602082108103620001d857634e487b7160e01b600052602260045260246000fd5b50919050565b601f8211156200022c57600081815260208120601f850160051c81016020861015620002075750805b601f850160051c820191505b81811015620002285782815560010162000213565b5050505b505050565b81516001600160401b038111156200024d576200024d6200018c565b62000265816200025e8454620001a2565b84620001de565b602080601f8311600181146200029d5760008415620002845750858301515b600019600386901b1c1916600185901b17855562000228565b600085815260208120601f198616915b82811015620002ce57888601518255948401946001909101908401620002ad565b5085821015620002ed5787850151600019600388901b60f8161c191681555b5050505050600190811b01905550565b608051611e8162000320600039600081816103fd0152610eb50152611e816000f3fe608060405234801561001057600080fd5b506004361061018e5760003560e01c8063be41cee3116100de578063dfbf53ae11610097578063f60ce3c411610071578063f60ce3c41461038a578063f68016b71461039d578063f6feca37146103c2578063f887ea40146103df57600080fd5b8063dfbf53ae14610351578063ef2bbbdf14610364578063f2fde38b1461037757600080fd5b8063be41cee3146102e2578063c24a0f8b14610302578063c45a01551461030b578063c851cc3214610323578063d9f165dc14610336578063dab79c401461034957600080fd5b80634585e33b1161014b578063715018a611610125578063715018a61461028b5780638da5cb5b146102935780638dbe7b9d146102b8578063a42f3b2f146102cf57600080fd5b80634585e33b146102445780636df0c747146102575780636e04ff0d1461026a57600080fd5b806309c1ba2e146101935780630ca76175146101ca57806314b1dd1b146101df578063150b7a02146101f25780631bee2f2a1461022957806334303bcd14610231575b600080fd5b6003546101ad90600160a81b90046001600160401b031681565b6040516001600160401b0390911681526020015b60405180910390f35b6101dd6101d8366004611764565b6103f2565b005b6101dd6101ed3660046117d0565b610476565b610210610200366004611815565b630a85bd0160e11b949350505050565b6040516001600160e01b031990911681526020016101c1565b6101dd6104ab565b6101dd61023f36600461187c565b6104bd565b6101dd6102523660046118a2565b6104e1565b6101dd610265366004611913565b610506565b61027d6102783660046118a2565b610513565b6040516101c1929190611972565b6101dd610534565b6000546001600160a01b03165b6040516001600160a01b0390911681526020016101c1565b6102c160065481565b6040519081526020016101c1565b6101dd6102dd366004611995565b610546565b6102f56102f0366004611913565b61055a565b6040516101c191906119c9565b6102c160025481565b6003546102a09061010090046001600160a01b031681565b6101dd6103313660046119dc565b6105f4565b6101dd6103443660046119dc565b61061e565b6102f561064e565b6001546102a0906001600160a01b031681565b6101dd610372366004611913565b61065b565b6101dd6103853660046119dc565b610668565b6101dd6103983660046119f7565b6106ab565b6007546103ad9063ffffffff1681565b60405163ffffffff90911681526020016101c1565b6003546103cf9060ff1681565b60405190151581526020016101c1565b6005546102a0906001600160a01b031681565b336001600160a01b037f0000000000000000000000000000000000000000000000000000000000000000161461043b5760405163c6829f8360e01b815260040160405180910390fd5b6104468383836106bf565b60405183907f85e1543bf2f84fe80c6badbce3648c8539ad1df4d2b3d822938ca0538be727e690600090a2505050565b61047e6108ff565b600380546001600160401b03909216600160a81b0267ffffffffffffffff60a81b19909216919091179055565b6104b36108ff565b6104bb61092c565b565b6104c56108ff565b6007805463ffffffff191663ffffffff92909216919091179055565b600254421180156104f5575060035460ff16155b156105025761050261092c565b5050565b61050e6108ff565b600655565b600060606002544211801561052b575060035460ff16155b91509250929050565b61053c6108ff565b6104bb6000610ae9565b61054e6108ff565b60046105028282611ac7565b6008602052600090815260409020805461057390611a3f565b80601f016020809104026020016040519081016040528092919081815260200182805461059f90611a3f565b80156105ec5780601f106105c1576101008083540402835291602001916105ec565b820191906000526020600020905b8154815290600101906020018083116105cf57829003601f168201915b505050505081565b6105fc6108ff565b600580546001600160a01b0319166001600160a01b0392909216919091179055565b6106266108ff565b600380546001600160a01b0390921661010002610100600160a81b0319909216919091179055565b6004805461057390611a3f565b6106636108ff565b600255565b6106706108ff565b6001600160a01b03811661069f57604051631e4fbdf760e01b8152600060048201526024015b60405180910390fd5b6106a881610ae9565b50565b6106b36108ff565b60096105028282611ac7565b60008381526008602052604090206106d78282611ac7565b506106e182610b39565b600180546001600160a01b0319166001600160a01b03928316908117909155600354604051632142170760e11b8152610100909104909216916342842e0e9161073291309190600090600401611b86565b600060405180830381600087803b15801561074c57600080fd5b505af1158015610760573d6000803e3d6000fd5b505060035460018054604051632142170760e11b81526001600160a01b03610100909404841695506342842e0e94506107a193309392169190600401611b86565b600060405180830381600087803b1580156107bb57600080fd5b505af11580156107cf573d6000803e3d6000fd5b5050600354600154604051632142170760e11b81526001600160a01b03610100909304831694506342842e0e93506108109230921690600290600401611b86565b600060405180830381600087803b15801561082a57600080fd5b505af115801561083e573d6000803e3d6000fd5b505060038054600154604051632142170760e11b81526001600160a01b03610100909304831695506342842e0e9450610881933093929092169190600401611b86565b600060405180830381600087803b15801561089b57600080fd5b505af11580156108af573d6000803e3d6000fd5b50506001546040517f8b78bce071b02f296d7efee39b7ca0f3180fb1212df820d3f4c28bfd5dba5c4a93506108f292506001600160a01b03909116908490611baa565b60405180910390a1505050565b6000546001600160a01b031633146104bb5760405163118cdaa760e01b8152336004820152602401610696565b6003805460ff1916600117905561097a6040805160e0810190915280600081526020016000815260200160008152602001606081526020016060815260200160608152602001606081525090565b610a176009805461098a90611a3f565b80601f01602080910402602001604051908101604052809291908181526020018280546109b690611a3f565b8015610a035780601f106109d857610100808354040283529160200191610a03565b820191906000526020600020905b8154815290600101906020018083116109e657829003601f168201915b505050505082610b9a90919063ffffffff16565b610ab460048054610a2790611a3f565b80601f0160208091040260200160405190810160405280929190818152602001828054610a5390611a3f565b8015610aa05780601f10610a7557610100808354040283529160200191610aa0565b820191906000526020600020905b815481529060010190602001808311610a8357829003601f168201915b505050505082610ba790919063ffffffff16565b610502610ac082610bd8565b600354600754600654600160a81b9092046001600160401b03169163ffffffff90911690610eb0565b600080546001600160a01b038381166001600160a01b0319831681178455604051919092169283917f8be0079c531659141344cd1fd0a4f28419497f9722a3daafe3b4186f6b6457e09190a35050565b600080610b4583610f82565b9050601581511015610b895760405162461bcd60e51b815260206004820152600d60248201526c4f7574206f6620626f756e647360981b6044820152606401610696565b60210151600160601b900492915050565b61050282600080846110aa565b8051600003610bc95760405163e889636f60e01b815260040160405180910390fd5b60016020830152608090910152565b60606000610be7610100611128565b9050610c206040518060400160405280600c81526020016b31b7b232a637b1b0ba34b7b760a11b8152508261114990919063ffffffff16565b8251610c3e906002811115610c3757610c37611bce565b8290611167565b6040805180820190915260088152676c616e677561676560c01b6020820152610c68908290611149565b6040830151610c7f908015610c3757610c37611bce565b604080518082019091526006815265736f7572636560d01b6020820152610ca7908290611149565b6060830151610cb7908290611149565b60a08301515115610d4b576040805180820190915260048152636172677360e01b6020820152610ce8908290611149565b610cf1816111a0565b60005b8360a0015151811015610d4157610d318460a001518281518110610d1a57610d1a611be4565b60200260200101518361114990919063ffffffff16565b610d3a81611c10565b9050610cf4565b50610d4b816111c4565b60808301515115610e0f57600083602001516002811115610d6e57610d6e611bce565b03610d8c5760405163a80d31f760e01b815260040160405180910390fd5b60408051808201909152600f81526e39b2b1b932ba39a637b1b0ba34b7b760891b6020820152610dbd908290611149565b610dd683602001516002811115610c3757610c37611bce565b6040805180820190915260078152667365637265747360c81b6020820152610dff908290611149565b6080830151610e0f9082906111e2565b60c08301515115610ea85760408051808201909152600981526862797465734172677360b81b6020820152610e45908290611149565b610e4e816111a0565b60005b8360c0015151811015610e9e57610e8e8460c001518281518110610e7757610e77611be4565b6020026020010151836111e290919063ffffffff16565b610e9781611c10565b9050610e51565b50610ea8816111c4565b515192915050565b6000807f00000000000000000000000000000000000000000000000000000000000000006001600160a01b031663461d27628688600188886040518663ffffffff1660e01b8152600401610f08959493929190611c29565b6020604051808303816000875af1158015610f27573d6000803e3d6000fd5b505050506040513d601f19601f82011682018060405250810190610f4b9190611c72565b60405190915081907f1131472297a800fee664d1d89cfa8f7676ff07189ecc53f80bbb5f4969099db890600090a295945050505050565b80516060908290610f9590600290611ca1565b15610f9f57600080fd5b600060028251610faf9190611cb5565b6001600160401b03811115610fc657610fc66116b9565b6040519080825280601f01601f191660200182016040528015610ff0576020820181803683370190505b50905060005b600283516110049190611cb5565b8110156110a2576110428361101a836002611cc9565b611025906001611ce0565b8151811061103557611035611be4565b016020015160f81c6111ef565b61105184611025846002611cc9565b61105c906010611cf3565b6110669190611d16565b60f81b82828151811061107b5761107b611be4565b60200101906001600160f81b031916908160001a90535061109b81611c10565b9050610ff6565b509392505050565b80516000036110cc576040516322ce3edd60e01b815260040160405180910390fd5b838360028111156110df576110df611bce565b908160028111156110f2576110f2611bce565b9052506040840182801561110857611108611bce565b9081801561111857611118611bce565b9052506060909301929092525050565b611130611684565b805161113c90836112d9565b5060006020820152919050565b6111568260038351611350565b8151611162908261146f565b505050565b81516111749060c2611497565b50610502828260405160200161118c91815260200190565b6040516020818303038152906040526111e2565b6111ab816004611500565b6001816020018181516111be9190611ce0565b90525050565b6111cf816007611500565b6001816020018181516111be9190611d2f565b6111568260028351611350565b6000600360fc1b60f883901b6001600160f81b031916108015906112255750603960f81b60f883901b6001600160f81b03191611155b1561123b57611235603083611d42565b92915050565b606160f81b60f883901b6001600160f81b0319161080159061126f5750603360f91b60f883901b6001600160f81b03191611155b1561128b57606161128183600a611d16565b6112359190611d42565b604160f81b60f883901b6001600160f81b031916108015906112bf5750602360f91b60f883901b6001600160f81b03191611155b156112d157604161128183600a611d16565b506000919050565b6040805180820190915260608152600060208201526112f9602083611ca1565b1561132157611309602083611ca1565b611314906020611d2f565b61131e9083611ce0565b91505b60208084018390526040518085526000815290818401018181101561134557600080fd5b604052509192915050565b6017816001600160401b03161161137c5782516113769060e0600585901b168317611497565b50505050565b60ff816001600160401b0316116113bc5782516113a4906018611fe0600586901b1617611497565b508251611376906001600160401b0383166001611517565b61ffff816001600160401b0316116113fd5782516113e5906019611fe0600586901b1617611497565b508251611376906001600160401b0383166002611517565b63ffffffff816001600160401b03161161144057825161142890601a611fe0600586901b1617611497565b508251611376906001600160401b0383166004611517565b825161145790601b611fe0600586901b1617611497565b508251611376906001600160401b0383166008611517565b6040805180820190915260608152600060208201526114908383845161159c565b9392505050565b60408051808201909152606081526000602082015282515160006114bc826001611ce0565b9050846020015182106114dd576114dd856114d8836002611cc9565b61166d565b84516020838201018581535080518211156114f6578181525b5093949350505050565b815161116290601f611fe0600585901b1617611497565b604080518082019091526060815260006020820152835151600061153b8285611ce0565b9050856020015181111561155857611558866114d8836002611cc9565b6000600161156886610100611e3f565b6115729190611d2f565b90508651828101878319825116178152508051831115611590578281525b50959695505050505050565b60408051808201909152606081526000602082015282518211156115bf57600080fd5b83515160006115ce8483611ce0565b905085602001518111156115eb576115eb866114d8836002611cc9565b855180518382016020019160009180851115611605578482525b505050602086015b602086106116455780518252611624602083611ce0565b9150611631602082611ce0565b905061163e602087611d2f565b955061160d565b51815160001960208890036101000a0190811690199190911617905250849150509392505050565b815161167983836112d9565b50611376838261146f565b60405180604001604052806116ac604051806040016040528060608152602001600081525090565b8152602001600081525090565b634e487b7160e01b600052604160045260246000fd5b60006001600160401b03808411156116e9576116e96116b9565b604051601f8501601f19908116603f01168101908282118183101715611711576117116116b9565b8160405280935085815286868601111561172a57600080fd5b858560208301376000602087830101525050509392505050565b600082601f83011261175557600080fd5b611490838335602085016116cf565b60008060006060848603121561177957600080fd5b8335925060208401356001600160401b038082111561179757600080fd5b6117a387838801611744565b935060408601359150808211156117b957600080fd5b506117c686828701611744565b9150509250925092565b6000602082840312156117e257600080fd5b81356001600160401b038116811461149057600080fd5b80356001600160a01b038116811461181057600080fd5b919050565b6000806000806080858703121561182b57600080fd5b611834856117f9565b9350611842602086016117f9565b92506040850135915060608501356001600160401b0381111561186457600080fd5b61187087828801611744565b91505092959194509250565b60006020828403121561188e57600080fd5b813563ffffffff8116811461149057600080fd5b600080602083850312156118b557600080fd5b82356001600160401b03808211156118cc57600080fd5b818501915085601f8301126118e057600080fd5b8135818111156118ef57600080fd5b86602082850101111561190157600080fd5b60209290920196919550909350505050565b60006020828403121561192557600080fd5b5035919050565b6000815180845260005b8181101561195257602081850181015186830182015201611936565b506000602082860101526020601f19601f83011685010191505092915050565b821515815260406020820152600061198d604083018461192c565b949350505050565b6000602082840312156119a757600080fd5b81356001600160401b038111156119bd57600080fd5b61198d84828501611744565b602081526000611490602083018461192c565b6000602082840312156119ee57600080fd5b611490826117f9565b600060208284031215611a0957600080fd5b81356001600160401b03811115611a1f57600080fd5b8201601f81018413611a3057600080fd5b61198d848235602084016116cf565b600181811c90821680611a5357607f821691505b602082108103611a7357634e487b7160e01b600052602260045260246000fd5b50919050565b601f82111561116257600081815260208120601f850160051c81016020861015611aa05750805b601f850160051c820191505b81811015611abf57828155600101611aac565b505050505050565b81516001600160401b03811115611ae057611ae06116b9565b611af481611aee8454611a3f565b84611a79565b602080601f831160018114611b295760008415611b115750858301515b600019600386901b1c1916600185901b178555611abf565b600085815260208120601f198616915b82811015611b5857888601518255948401946001909101908401611b39565b5085821015611b765787850151600019600388901b60f8161c191681555b5050505050600190811b01905550565b6001600160a01b039384168152919092166020820152604081019190915260600190565b6001600160a01b038316815260406020820181905260009061198d9083018461192c565b634e487b7160e01b600052602160045260246000fd5b634e487b7160e01b600052603260045260246000fd5b634e487b7160e01b600052601160045260246000fd5b600060018201611c2257611c22611bfa565b5060010190565b6001600160401b038616815260a060208201526000611c4b60a083018761192c565b61ffff9590951660408301525063ffffffff92909216606083015260809091015292915050565b600060208284031215611c8457600080fd5b5051919050565b634e487b7160e01b600052601260045260246000fd5b600082611cb057611cb0611c8b565b500690565b600082611cc457611cc4611c8b565b500490565b808202811582820484141761123557611235611bfa565b8082018082111561123557611235611bfa565b60ff8181168382160290811690818114611d0f57611d0f611bfa565b5092915050565b60ff818116838216019081111561123557611235611bfa565b8181038181111561123557611235611bfa565b60ff828116828216039081111561123557611235611bfa565b600181815b80851115611d96578160001904821115611d7c57611d7c611bfa565b80851615611d8957918102915b93841c9390800290611d60565b509250929050565b600082611dad57506001611235565b81611dba57506000611235565b8160018114611dd05760028114611dda57611df6565b6001915050611235565b60ff841115611deb57611deb611bfa565b50506001821b611235565b5060208310610133831016604e8410600b8410161715611e19575081810a611235565b611e238383611d5b565b8060001904821115611e3757611e37611bfa565b029392505050565b60006114908383611d9e56fea264697066735822122033bc260eae3004d379f2042c1c92f43766ce795c2b910a4ee57bbe73d260cd0e64736f6c63430008140033636f6e7374207469746c654964203d20273345413434273b636f6e7374207374617469737469634e616d65203d20276c6576656c273b636f6e7374207374617274506f736974696f6e203d20303b636f6e7374206d6178526573756c7473436f756e74203d20313b636f6e7374206765744c6561646572626f61726455726c203d206068747470733a2f2f247b7469746c6549647d2e706c61796661626170692e636f6d2f5365727665722f4765744c6561646572626f6172643f5374617469737469634e616d653d247b7374617469737469634e616d657d265374617274506f736974696f6e3d247b7374617274506f736974696f6e7d264d6178526573756c7473436f756e743d247b6d6178526573756c7473436f756e747d603b636f6e737420676574557365724163636f756e74496e666f55726c203d206068747470733a2f2f247b7469746c6549647d2e706c61796661626170692e636f6d2f5365727665722f476574557365724163636f756e74496e666f603b636f6e7374206c6561646572626f617264526571203d2061776169742046756e6374696f6e732e6d616b654874747052657175657374287b75726c3a206765744c6561646572626f61726455726c2c6d6574686f643a2027504f5354272c686561646572733a207b27436f6e74656e742d54797065273a20276170706c69636174696f6e2f6a736f6e272c274163636570742d456e636f64696e67273a20276964656e74697479272c27582d5365637265744b6579273a20736563726574732e706c61796661624170694b65797d2c7d293b696620286c6561646572626f6172645265712e6572726f7229207468726f77206e6577204572726f722860247b6c6561646572626f6172645265712e6d6573736167657d60293b636f6e737420706c61794661624964203d206c6561646572626f6172645265712e646174612e646174612e4c6561646572626f6172645b305d2e506c617946616249643b636f6e737420617069526573706f6e7365203d2061776169742046756e6374696f6e732e6d616b654874747052657175657374287b75726c3a20676574557365724163636f756e74496e666f55726c2c6d6574686f643a2027504f5354272c686561646572733a207b27436f6e74656e742d54797065273a20276170706c69636174696f6e2f6a736f6e272c274163636570742d456e636f64696e67273a20276964656e74697479272c27582d5365637265744b6579273a20736563726574732e706c61796661624170694b65797d2c706172616d733a7b27506c61794661624944273a20706c617946616249642c7d7d293b69662028617069526573706f6e73652e6572726f7229207468726f77206e6577204572726f722860247b617069526573706f6e73652e6d6573736167657d60293b72657475726e2046756e6374696f6e732e656e636f6465537472696e6728617069526573706f6e73652e646174612e646174612e55736572496e666f2e437573746f6d4964496e666f2e437573746f6d4964293b1e9ce0fe8dc86ffbb0e3511f190d8f7703f26b8a425447b37518e52a69f30ee69395d5d5613761ee019fa13949aea7cd6ca33c7e784895e7229642c52f556297fe4b467dc2014656d4642a7d358fc50735cd038d22aa01b56b3cd1ab3f40c1e472a19ba51d9727caee09f1ff7000586f589205b8eb9d27788488253e5f740770d54ccb9443a8c78b6143c4fd917bbf161a","opcodes":"PUSH4 0x65830F80 PUSH1 0x2 SSTORE PUSH1 0x3 DUP1 SLOAD PUSH2 0x100 PUSH1 0x1 PUSH1 0xE8 SHL SUB NOT AND PUSH23 0x5EBD8BDB0E3832607451E351FD2CE8A805E2653598D00 OR SWAP1 SSTORE PUSH2 0x160 PUSH1 0x40 MSTORE PUSH1 0x91 PUSH1 0xA0 DUP2 DUP2 MSTORE SWAP1 PUSH3 0x25FF PUSH1 0xC0 CODECOPY PUSH1 0x4 SWAP1 PUSH3 0x55 SWAP1 DUP3 PUSH3 0x231 JUMP JUMPDEST POP PUSH1 0x5 DUP1 SLOAD PUSH1 0x1 PUSH1 0x1 PUSH1 0xA0 SHL SUB NOT AND PUSH20 0xA9D587A00A31A52ED70D6026794A8FC5E2F5DCB0 OR SWAP1 SSTORE PUSH32 0x66756E2D6176616C616E6368652D66756A692D31000000000000000000000000 PUSH1 0x6 SSTORE PUSH1 0x7 DUP1 SLOAD PUSH4 0xFFFFFFFF NOT AND PUSH3 0x493E0 OR SWAP1 SSTORE PUSH1 0x40 DUP1 MLOAD PUSH2 0x480 DUP2 ADD SWAP1 SWAP2 MSTORE PUSH2 0x45E DUP1 DUP3 MSTORE PUSH3 0x21A1 PUSH1 0x20 DUP4 ADD CODECOPY PUSH1 0x9 SWAP1 PUSH3 0xDC SWAP1 DUP3 PUSH3 0x231 JUMP JUMPDEST POP CALLVALUE DUP1 ISZERO PUSH3 0xEA JUMPI PUSH1 0x0 DUP1 REVERT JUMPDEST POP PUSH1 0x5 SLOAD PUSH1 0x1 PUSH1 0x1 PUSH1 0xA0 SHL SUB AND CALLER DUP1 PUSH3 0x11E JUMPI PUSH1 0x40 MLOAD PUSH4 0x1E4FBDF7 PUSH1 0xE0 SHL DUP2 MSTORE PUSH1 0x0 PUSH1 0x4 DUP3 ADD MSTORE PUSH1 0x24 ADD PUSH1 0x40 MLOAD DUP1 SWAP2 SUB SWAP1 REVERT JUMPDEST PUSH3 0x129 DUP2 PUSH3 0x13C JUMP JUMPDEST POP PUSH1 0x1 PUSH1 0x1 PUSH1 0xA0 SHL SUB AND PUSH1 0x80 MSTORE PUSH3 0x2FD JUMP JUMPDEST PUSH1 0x0 DUP1 SLOAD PUSH1 0x1 PUSH1 0x1 PUSH1 0xA0 SHL SUB DUP4 DUP2 AND PUSH1 0x1 PUSH1 0x1 PUSH1 0xA0 SHL SUB NOT DUP4 AND DUP2 OR DUP5 SSTORE PUSH1 0x40 MLOAD SWAP2 SWAP1 SWAP3 AND SWAP3 DUP4 SWAP2 PUSH32 0x8BE0079C531659141344CD1FD0A4F28419497F9722A3DAAFE3B4186F6B6457E0 SWAP2 SWAP1 LOG3 POP POP JUMP JUMPDEST PUSH4 0x4E487B71 PUSH1 0xE0 SHL PUSH1 0x0 MSTORE PUSH1 0x41 PUSH1 0x4 MSTORE PUSH1 0x24 PUSH1 0x0 REVERT JUMPDEST PUSH1 0x1 DUP2 DUP2 SHR SWAP1 DUP3 AND DUP1 PUSH3 0x1B7 JUMPI PUSH1 0x7F DUP3 AND SWAP2 POP JUMPDEST PUSH1 0x20 DUP3 LT DUP2 SUB PUSH3 0x1D8 JUMPI PUSH4 0x4E487B71 PUSH1 0xE0 SHL PUSH1 0x0 MSTORE PUSH1 0x22 PUSH1 0x4 MSTORE PUSH1 0x24 PUSH1 0x0 REVERT JUMPDEST POP SWAP2 SWAP1 POP JUMP JUMPDEST PUSH1 0x1F DUP3 GT ISZERO PUSH3 0x22C JUMPI PUSH1 0x0 DUP2 DUP2 MSTORE PUSH1 0x20 DUP2 KECCAK256 PUSH1 0x1F DUP6 ADD PUSH1 0x5 SHR DUP2 ADD PUSH1 0x20 DUP7 LT ISZERO PUSH3 0x207 JUMPI POP DUP1 JUMPDEST PUSH1 0x1F DUP6 ADD PUSH1 0x5 SHR DUP3 ADD SWAP2 POP JUMPDEST DUP2 DUP2 LT ISZERO PUSH3 0x228 JUMPI DUP3 DUP2 SSTORE PUSH1 0x1 ADD PUSH3 0x213 JUMP JUMPDEST POP POP POP JUMPDEST POP POP POP JUMP JUMPDEST DUP2 MLOAD PUSH1 0x1 PUSH1 0x1 PUSH1 0x40 SHL SUB DUP2 GT ISZERO PUSH3 0x24D JUMPI PUSH3 0x24D PUSH3 0x18C JUMP JUMPDEST PUSH3 0x265 DUP2 PUSH3 0x25E DUP5 SLOAD PUSH3 0x1A2 JUMP JUMPDEST DUP5 PUSH3 0x1DE JUMP JUMPDEST PUSH1 0x20 DUP1 PUSH1 0x1F DUP4 GT PUSH1 0x1 DUP2 EQ PUSH3 0x29D JUMPI PUSH1 0x0 DUP5 ISZERO PUSH3 0x284 JUMPI POP DUP6 DUP4 ADD MLOAD JUMPDEST PUSH1 0x0 NOT PUSH1 0x3 DUP7 SWAP1 SHL SHR NOT AND PUSH1 0x1 DUP6 SWAP1 SHL OR DUP6 SSTORE PUSH3 0x228 JUMP JUMPDEST PUSH1 0x0 DUP6 DUP2 MSTORE PUSH1 0x20 DUP2 KECCAK256 PUSH1 0x1F NOT DUP7 AND SWAP2 JUMPDEST DUP3 DUP2 LT ISZERO PUSH3 0x2CE JUMPI DUP9 DUP7 ADD MLOAD DUP3 SSTORE SWAP5 DUP5 ADD SWAP5 PUSH1 0x1 SWAP1 SWAP2 ADD SWAP1 DUP5 ADD PUSH3 0x2AD JUMP JUMPDEST POP DUP6 DUP3 LT ISZERO PUSH3 0x2ED JUMPI DUP8 DUP6 ADD MLOAD PUSH1 0x0 NOT PUSH1 0x3 DUP9 SWAP1 SHL PUSH1 0xF8 AND SHR NOT AND DUP2 SSTORE JUMPDEST POP POP POP POP POP PUSH1 0x1 SWAP1 DUP2 SHL ADD SWAP1 SSTORE POP JUMP JUMPDEST PUSH1 0x80 MLOAD PUSH2 0x1E81 PUSH3 0x320 PUSH1 0x0 CODECOPY PUSH1 0x0 DUP2 DUP2 PUSH2 0x3FD ADD MSTORE PUSH2 0xEB5 ADD MSTORE PUSH2 0x1E81 PUSH1 0x0 RETURN INVALID PUSH1 0x80 PUSH1 0x40 MSTORE CALLVALUE DUP1 ISZERO PUSH2 0x10 JUMPI PUSH1 0x0 DUP1 REVERT JUMPDEST POP PUSH1 0x4 CALLDATASIZE LT PUSH2 0x18E JUMPI PUSH1 0x0 CALLDATALOAD PUSH1 0xE0 SHR DUP1 PUSH4 0xBE41CEE3 GT PUSH2 0xDE JUMPI DUP1 PUSH4 0xDFBF53AE GT PUSH2 0x97 JUMPI DUP1 PUSH4 0xF60CE3C4 GT PUSH2 0x71 JUMPI DUP1 PUSH4 0xF60CE3C4 EQ PUSH2 0x38A JUMPI DUP1 PUSH4 0xF68016B7 EQ PUSH2 0x39D JUMPI DUP1 PUSH4 0xF6FECA37 EQ PUSH2 0x3C2 JUMPI DUP1 PUSH4 0xF887EA40 EQ PUSH2 0x3DF JUMPI PUSH1 0x0 DUP1 REVERT JUMPDEST DUP1 PUSH4 0xDFBF53AE EQ PUSH2 0x351 JUMPI DUP1 PUSH4 0xEF2BBBDF EQ PUSH2 0x364 JUMPI DUP1 PUSH4 0xF2FDE38B EQ PUSH2 0x377 JUMPI PUSH1 0x0 DUP1 REVERT JUMPDEST DUP1 PUSH4 0xBE41CEE3 EQ PUSH2 0x2E2 JUMPI DUP1 PUSH4 0xC24A0F8B EQ PUSH2 0x302 JUMPI DUP1 PUSH4 0xC45A0155 EQ PUSH2 0x30B JUMPI DUP1 PUSH4 0xC851CC32 EQ PUSH2 0x323 JUMPI DUP1 PUSH4 0xD9F165DC EQ PUSH2 0x336 JUMPI DUP1 PUSH4 0xDAB79C40 EQ PUSH2 0x349 JUMPI PUSH1 0x0 DUP1 REVERT JUMPDEST DUP1 PUSH4 0x4585E33B GT PUSH2 0x14B JUMPI DUP1 PUSH4 0x715018A6 GT PUSH2 0x125 JUMPI DUP1 PUSH4 0x715018A6 EQ PUSH2 0x28B JUMPI DUP1 PUSH4 0x8DA5CB5B EQ PUSH2 0x293 JUMPI DUP1 PUSH4 0x8DBE7B9D EQ PUSH2 0x2B8 JUMPI DUP1 PUSH4 0xA42F3B2F EQ PUSH2 0x2CF JUMPI PUSH1 0x0 DUP1 REVERT JUMPDEST DUP1 PUSH4 0x4585E33B EQ PUSH2 0x244 JUMPI DUP1 PUSH4 0x6DF0C747 EQ PUSH2 0x257 JUMPI DUP1 PUSH4 0x6E04FF0D EQ PUSH2 0x26A JUMPI PUSH1 0x0 DUP1 REVERT JUMPDEST DUP1 PUSH4 0x9C1BA2E EQ PUSH2 0x193 JUMPI DUP1 PUSH4 0xCA76175 EQ PUSH2 0x1CA JUMPI DUP1 PUSH4 0x14B1DD1B EQ PUSH2 0x1DF JUMPI DUP1 PUSH4 0x150B7A02 EQ PUSH2 0x1F2 JUMPI DUP1 PUSH4 0x1BEE2F2A EQ PUSH2 0x229 JUMPI DUP1 PUSH4 0x34303BCD EQ PUSH2 0x231 JUMPI JUMPDEST PUSH1 0x0 DUP1 REVERT JUMPDEST PUSH1 0x3 SLOAD PUSH2 0x1AD SWAP1 PUSH1 0x1 PUSH1 0xA8 SHL SWAP1 DIV PUSH1 0x1 PUSH1 0x1 PUSH1 0x40 SHL SUB AND DUP2 JUMP JUMPDEST PUSH1 0x40 MLOAD PUSH1 0x1 PUSH1 0x1 PUSH1 0x40 SHL SUB SWAP1 SWAP2 AND DUP2 MSTORE PUSH1 0x20 ADD JUMPDEST PUSH1 0x40 MLOAD DUP1 SWAP2 SUB SWAP1 RETURN JUMPDEST PUSH2 0x1DD PUSH2 0x1D8 CALLDATASIZE PUSH1 0x4 PUSH2 0x1764 JUMP JUMPDEST PUSH2 0x3F2 JUMP JUMPDEST STOP JUMPDEST PUSH2 0x1DD PUSH2 0x1ED CALLDATASIZE PUSH1 0x4 PUSH2 0x17D0 JUMP JUMPDEST PUSH2 0x476 JUMP JUMPDEST PUSH2 0x210 PUSH2 0x200 CALLDATASIZE PUSH1 0x4 PUSH2 0x1815 JUMP JUMPDEST PUSH4 0xA85BD01 PUSH1 0xE1 SHL SWAP5 SWAP4 POP POP POP POP JUMP JUMPDEST PUSH1 0x40 MLOAD PUSH1 0x1 PUSH1 0x1 PUSH1 0xE0 SHL SUB NOT SWAP1 SWAP2 AND DUP2 MSTORE PUSH1 0x20 ADD PUSH2 0x1C1 JUMP JUMPDEST PUSH2 0x1DD PUSH2 0x4AB JUMP JUMPDEST PUSH2 0x1DD PUSH2 0x23F CALLDATASIZE PUSH1 0x4 PUSH2 0x187C JUMP JUMPDEST PUSH2 0x4BD JUMP JUMPDEST PUSH2 0x1DD PUSH2 0x252 CALLDATASIZE PUSH1 0x4 PUSH2 0x18A2 JUMP JUMPDEST PUSH2 0x4E1 JUMP JUMPDEST PUSH2 0x1DD PUSH2 0x265 CALLDATASIZE PUSH1 0x4 PUSH2 0x1913 JUMP JUMPDEST PUSH2 0x506 JUMP JUMPDEST PUSH2 0x27D PUSH2 0x278 CALLDATASIZE PUSH1 0x4 PUSH2 0x18A2 JUMP JUMPDEST PUSH2 0x513 JUMP JUMPDEST PUSH1 0x40 MLOAD PUSH2 0x1C1 SWAP3 SWAP2 SWAP1 PUSH2 0x1972 JUMP JUMPDEST PUSH2 0x1DD PUSH2 0x534 JUMP JUMPDEST PUSH1 0x0 SLOAD PUSH1 0x1 PUSH1 0x1 PUSH1 0xA0 SHL SUB AND JUMPDEST PUSH1 0x40 MLOAD PUSH1 0x1 PUSH1 0x1 PUSH1 0xA0 SHL SUB SWAP1 SWAP2 AND DUP2 MSTORE PUSH1 0x20 ADD PUSH2 0x1C1 JUMP JUMPDEST PUSH2 0x2C1 PUSH1 0x6 SLOAD DUP2 JUMP JUMPDEST PUSH1 0x40 MLOAD SWAP1 DUP2 MSTORE PUSH1 0x20 ADD PUSH2 0x1C1 JUMP JUMPDEST PUSH2 0x1DD PUSH2 0x2DD CALLDATASIZE PUSH1 0x4 PUSH2 0x1995 JUMP JUMPDEST PUSH2 0x546 JUMP JUMPDEST PUSH2 0x2F5 PUSH2 0x2F0 CALLDATASIZE PUSH1 0x4 PUSH2 0x1913 JUMP JUMPDEST PUSH2 0x55A JUMP JUMPDEST PUSH1 0x40 MLOAD PUSH2 0x1C1 SWAP2 SWAP1 PUSH2 0x19C9 JUMP JUMPDEST PUSH2 0x2C1 PUSH1 0x2 SLOAD DUP2 JUMP JUMPDEST PUSH1 0x3 SLOAD PUSH2 0x2A0 SWAP1 PUSH2 0x100 SWAP1 DIV PUSH1 0x1 PUSH1 0x1 PUSH1 0xA0 SHL SUB AND DUP2 JUMP JUMPDEST PUSH2 0x1DD PUSH2 0x331 CALLDATASIZE PUSH1 0x4 PUSH2 0x19DC JUMP JUMPDEST PUSH2 0x5F4 JUMP JUMPDEST PUSH2 0x1DD PUSH2 0x344 CALLDATASIZE PUSH1 0x4 PUSH2 0x19DC JUMP JUMPDEST PUSH2 0x61E JUMP JUMPDEST PUSH2 0x2F5 PUSH2 0x64E JUMP JUMPDEST PUSH1 0x1 SLOAD PUSH2 0x2A0 SWAP1 PUSH1 0x1 PUSH1 0x1 PUSH1 0xA0 SHL SUB AND DUP2 JUMP JUMPDEST PUSH2 0x1DD PUSH2 0x372 CALLDATASIZE PUSH1 0x4 PUSH2 0x1913 JUMP JUMPDEST PUSH2 0x65B JUMP JUMPDEST PUSH2 0x1DD PUSH2 0x385 CALLDATASIZE PUSH1 0x4 PUSH2 0x19DC JUMP JUMPDEST PUSH2 0x668 JUMP JUMPDEST PUSH2 0x1DD PUSH2 0x398 CALLDATASIZE PUSH1 0x4 PUSH2 0x19F7 JUMP JUMPDEST PUSH2 0x6AB JUMP JUMPDEST PUSH1 0x7 SLOAD PUSH2 0x3AD SWAP1 PUSH4 0xFFFFFFFF AND DUP2 JUMP JUMPDEST PUSH1 0x40 MLOAD PUSH4 0xFFFFFFFF SWAP1 SWAP2 AND DUP2 MSTORE PUSH1 0x20 ADD PUSH2 0x1C1 JUMP JUMPDEST PUSH1 0x3 SLOAD PUSH2 0x3CF SWAP1 PUSH1 0xFF AND DUP2 JUMP JUMPDEST PUSH1 0x40 MLOAD SWAP1 ISZERO ISZERO DUP2 MSTORE PUSH1 0x20 ADD PUSH2 0x1C1 JUMP JUMPDEST PUSH1 0x5 SLOAD PUSH2 0x2A0 SWAP1 PUSH1 0x1 PUSH1 0x1 PUSH1 0xA0 SHL SUB AND DUP2 JUMP JUMPDEST CALLER PUSH1 0x1 PUSH1 0x1 PUSH1 0xA0 SHL SUB PUSH32 0x0 AND EQ PUSH2 0x43B JUMPI PUSH1 0x40 MLOAD PUSH4 0xC6829F83 PUSH1 0xE0 SHL DUP2 MSTORE PUSH1 0x4 ADD PUSH1 0x40 MLOAD DUP1 SWAP2 SUB SWAP1 REVERT JUMPDEST PUSH2 0x446 DUP4 DUP4 DUP4 PUSH2 0x6BF JUMP JUMPDEST PUSH1 0x40 MLOAD DUP4 SWAP1 PUSH32 0x85E1543BF2F84FE80C6BADBCE3648C8539AD1DF4D2B3D822938CA0538BE727E6 SWAP1 PUSH1 0x0 SWAP1 LOG2 POP POP POP JUMP JUMPDEST PUSH2 0x47E PUSH2 0x8FF JUMP JUMPDEST PUSH1 0x3 DUP1 SLOAD PUSH1 0x1 PUSH1 0x1 PUSH1 0x40 SHL SUB SWAP1 SWAP3 AND PUSH1 0x1 PUSH1 0xA8 SHL MUL PUSH8 0xFFFFFFFFFFFFFFFF PUSH1 0xA8 SHL NOT SWAP1 SWAP3 AND SWAP2 SWAP1 SWAP2 OR SWAP1 SSTORE JUMP JUMPDEST PUSH2 0x4B3 PUSH2 0x8FF JUMP JUMPDEST PUSH2 0x4BB PUSH2 0x92C JUMP JUMPDEST JUMP JUMPDEST PUSH2 0x4C5 PUSH2 0x8FF JUMP JUMPDEST PUSH1 0x7 DUP1 SLOAD PUSH4 0xFFFFFFFF NOT AND PUSH4 0xFFFFFFFF SWAP3 SWAP1 SWAP3 AND SWAP2 SWAP1 SWAP2 OR SWAP1 SSTORE JUMP JUMPDEST PUSH1 0x2 SLOAD TIMESTAMP GT DUP1 ISZERO PUSH2 0x4F5 JUMPI POP PUSH1 0x3 SLOAD PUSH1 0xFF AND ISZERO JUMPDEST ISZERO PUSH2 0x502 JUMPI PUSH2 0x502 PUSH2 0x92C JUMP JUMPDEST POP POP JUMP JUMPDEST PUSH2 0x50E PUSH2 0x8FF JUMP JUMPDEST PUSH1 0x6 SSTORE JUMP JUMPDEST PUSH1 0x0 PUSH1 0x60 PUSH1 0x2 SLOAD TIMESTAMP GT DUP1 ISZERO PUSH2 0x52B JUMPI POP PUSH1 0x3 SLOAD PUSH1 0xFF AND ISZERO JUMPDEST SWAP2 POP SWAP3 POP SWAP3 SWAP1 POP JUMP JUMPDEST PUSH2 0x53C PUSH2 0x8FF JUMP JUMPDEST PUSH2 0x4BB PUSH1 0x0 PUSH2 0xAE9 JUMP JUMPDEST PUSH2 0x54E PUSH2 0x8FF JUMP JUMPDEST PUSH1 0x4 PUSH2 0x502 DUP3 DUP3 PUSH2 0x1AC7 JUMP JUMPDEST PUSH1 0x8 PUSH1 0x20 MSTORE PUSH1 0x0 SWAP1 DUP2 MSTORE PUSH1 0x40 SWAP1 KECCAK256 DUP1 SLOAD PUSH2 0x573 SWAP1 PUSH2 0x1A3F JUMP JUMPDEST DUP1 PUSH1 0x1F ADD PUSH1 0x20 DUP1 SWAP2 DIV MUL PUSH1 0x20 ADD PUSH1 0x40 MLOAD SWAP1 DUP2 ADD PUSH1 0x40 MSTORE DUP1 SWAP3 SWAP2 SWAP1 DUP2 DUP2 MSTORE PUSH1 0x20 ADD DUP3 DUP1 SLOAD PUSH2 0x59F SWAP1 PUSH2 0x1A3F JUMP JUMPDEST DUP1 ISZERO PUSH2 0x5EC JUMPI DUP1 PUSH1 0x1F LT PUSH2 0x5C1 JUMPI PUSH2 0x100 DUP1 DUP4 SLOAD DIV MUL DUP4 MSTORE SWAP2 PUSH1 0x20 ADD SWAP2 PUSH2 0x5EC JUMP JUMPDEST DUP3 ADD SWAP2 SWAP1 PUSH1 0x0 MSTORE PUSH1 0x20 PUSH1 0x0 KECCAK256 SWAP1 JUMPDEST DUP2 SLOAD DUP2 MSTORE SWAP1 PUSH1 0x1 ADD SWAP1 PUSH1 0x20 ADD DUP1 DUP4 GT PUSH2 0x5CF JUMPI DUP3 SWAP1 SUB PUSH1 0x1F AND DUP3 ADD SWAP2 JUMPDEST POP POP POP POP POP DUP2 JUMP JUMPDEST PUSH2 0x5FC PUSH2 0x8FF JUMP JUMPDEST PUSH1 0x5 DUP1 SLOAD PUSH1 0x1 PUSH1 0x1 PUSH1 0xA0 SHL SUB NOT AND PUSH1 0x1 PUSH1 0x1 PUSH1 0xA0 SHL SUB SWAP3 SWAP1 SWAP3 AND SWAP2 SWAP1 SWAP2 OR SWAP1 SSTORE JUMP JUMPDEST PUSH2 0x626 PUSH2 0x8FF JUMP JUMPDEST PUSH1 0x3 DUP1 SLOAD PUSH1 0x1 PUSH1 0x1 PUSH1 0xA0 SHL SUB SWAP1 SWAP3 AND PUSH2 0x100 MUL PUSH2 0x100 PUSH1 0x1 PUSH1 0xA8 SHL SUB NOT SWAP1 SWAP3 AND SWAP2 SWAP1 SWAP2 OR SWAP1 SSTORE JUMP JUMPDEST PUSH1 0x4 DUP1 SLOAD PUSH2 0x573 SWAP1 PUSH2 0x1A3F JUMP JUMPDEST PUSH2 0x663 PUSH2 0x8FF JUMP JUMPDEST PUSH1 0x2 SSTORE JUMP JUMPDEST PUSH2 0x670 PUSH2 0x8FF JUMP JUMPDEST PUSH1 0x1 PUSH1 0x1 PUSH1 0xA0 SHL SUB DUP2 AND PUSH2 0x69F JUMPI PUSH1 0x40 MLOAD PUSH4 0x1E4FBDF7 PUSH1 0xE0 SHL DUP2 MSTORE PUSH1 0x0 PUSH1 0x4 DUP3 ADD MSTORE PUSH1 0x24 ADD JUMPDEST PUSH1 0x40 MLOAD DUP1 SWAP2 SUB SWAP1 REVERT JUMPDEST PUSH2 0x6A8 DUP2 PUSH2 0xAE9 JUMP JUMPDEST POP JUMP JUMPDEST PUSH2 0x6B3 PUSH2 0x8FF JUMP JUMPDEST PUSH1 0x9 PUSH2 0x502 DUP3 DUP3 PUSH2 0x1AC7 JUMP JUMPDEST PUSH1 0x0 DUP4 DUP2 MSTORE PUSH1 0x8 PUSH1 0x20 MSTORE PUSH1 0x40 SWAP1 KECCAK256 PUSH2 0x6D7 DUP3 DUP3 PUSH2 0x1AC7 JUMP JUMPDEST POP PUSH2 0x6E1 DUP3 PUSH2 0xB39 JUMP JUMPDEST PUSH1 0x1 DUP1 SLOAD PUSH1 0x1 PUSH1 0x1 PUSH1 0xA0 SHL SUB NOT AND PUSH1 0x1 PUSH1 0x1 PUSH1 0xA0 SHL SUB SWAP3 DUP4 AND SWAP1 DUP2 OR SWAP1 SWAP2 SSTORE PUSH1 0x3 SLOAD PUSH1 0x40 MLOAD PUSH4 0x21421707 PUSH1 0xE1 SHL DUP2 MSTORE PUSH2 0x100 SWAP1 SWAP2 DIV SWAP1 SWAP3 AND SWAP2 PUSH4 0x42842E0E SWAP2 PUSH2 0x732 SWAP2 ADDRESS SWAP2 SWAP1 PUSH1 0x0 SWAP1 PUSH1 0x4 ADD PUSH2 0x1B86 JUMP JUMPDEST PUSH1 0x0 PUSH1 0x40 MLOAD DUP1 DUP4 SUB DUP2 PUSH1 0x0 DUP8 DUP1 EXTCODESIZE ISZERO DUP1 ISZERO PUSH2 0x74C JUMPI PUSH1 0x0 DUP1 REVERT JUMPDEST POP GAS CALL ISZERO DUP1 ISZERO PUSH2 0x760 JUMPI RETURNDATASIZE PUSH1 0x0 DUP1 RETURNDATACOPY RETURNDATASIZE PUSH1 0x0 REVERT JUMPDEST POP POP PUSH1 0x3 SLOAD PUSH1 0x1 DUP1 SLOAD PUSH1 0x40 MLOAD PUSH4 0x21421707 PUSH1 0xE1 SHL DUP2 MSTORE PUSH1 0x1 PUSH1 0x1 PUSH1 0xA0 SHL SUB PUSH2 0x100 SWAP1 SWAP5 DIV DUP5 AND SWAP6 POP PUSH4 0x42842E0E SWAP5 POP PUSH2 0x7A1 SWAP4 ADDRESS SWAP4 SWAP3 AND SWAP2 SWAP1 PUSH1 0x4 ADD PUSH2 0x1B86 JUMP JUMPDEST PUSH1 0x0 PUSH1 0x40 MLOAD DUP1 DUP4 SUB DUP2 PUSH1 0x0 DUP8 DUP1 EXTCODESIZE ISZERO DUP1 ISZERO PUSH2 0x7BB JUMPI PUSH1 0x0 DUP1 REVERT JUMPDEST POP GAS CALL ISZERO DUP1 ISZERO PUSH2 0x7CF JUMPI RETURNDATASIZE PUSH1 0x0 DUP1 RETURNDATACOPY RETURNDATASIZE PUSH1 0x0 REVERT JUMPDEST POP POP PUSH1 0x3 SLOAD PUSH1 0x1 SLOAD PUSH1 0x40 MLOAD PUSH4 0x21421707 PUSH1 0xE1 SHL DUP2 MSTORE PUSH1 0x1 PUSH1 0x1 PUSH1 0xA0 SHL SUB PUSH2 0x100 SWAP1 SWAP4 DIV DUP4 AND SWAP5 POP PUSH4 0x42842E0E SWAP4 POP PUSH2 0x810 SWAP3 ADDRESS SWAP3 AND SWAP1 PUSH1 0x2 SWAP1 PUSH1 0x4 ADD PUSH2 0x1B86 JUMP JUMPDEST PUSH1 0x0 PUSH1 0x40 MLOAD DUP1 DUP4 SUB DUP2 PUSH1 0x0 DUP8 DUP1 EXTCODESIZE ISZERO DUP1 ISZERO PUSH2 0x82A JUMPI PUSH1 0x0 DUP1 REVERT JUMPDEST POP GAS CALL ISZERO DUP1 ISZERO PUSH2 0x83E JUMPI RETURNDATASIZE PUSH1 0x0 DUP1 RETURNDATACOPY RETURNDATASIZE PUSH1 0x0 REVERT JUMPDEST POP POP PUSH1 0x3 DUP1 SLOAD PUSH1 0x1 SLOAD PUSH1 0x40 MLOAD PUSH4 0x21421707 PUSH1 0xE1 SHL DUP2 MSTORE PUSH1 0x1 PUSH1 0x1 PUSH1 0xA0 SHL SUB PUSH2 0x100 SWAP1 SWAP4 DIV DUP4 AND SWAP6 POP PUSH4 0x42842E0E SWAP5 POP PUSH2 0x881 SWAP4 ADDRESS SWAP4 SWAP3 SWAP1 SWAP3 AND SWAP2 SWAP1 PUSH1 0x4 ADD PUSH2 0x1B86 JUMP JUMPDEST PUSH1 0x0 PUSH1 0x40 MLOAD DUP1 DUP4 SUB DUP2 PUSH1 0x0 DUP8 DUP1 EXTCODESIZE ISZERO DUP1 ISZERO PUSH2 0x89B JUMPI PUSH1 0x0 DUP1 REVERT JUMPDEST POP GAS CALL ISZERO DUP1 ISZERO PUSH2 0x8AF JUMPI RETURNDATASIZE PUSH1 0x0 DUP1 RETURNDATACOPY RETURNDATASIZE PUSH1 0x0 REVERT JUMPDEST POP POP PUSH1 0x1 SLOAD PUSH1 0x40 MLOAD PUSH32 0x8B78BCE071B02F296D7EFEE39B7CA0F3180FB1212DF820D3F4C28BFD5DBA5C4A SWAP4 POP PUSH2 0x8F2 SWAP3 POP PUSH1 0x1 PUSH1 0x1 PUSH1 0xA0 SHL SUB SWAP1 SWAP2 AND SWAP1 DUP5 SWAP1 PUSH2 0x1BAA JUMP JUMPDEST PUSH1 0x40 MLOAD DUP1 SWAP2 SUB SWAP1 LOG1 POP POP POP JUMP JUMPDEST PUSH1 0x0 SLOAD PUSH1 0x1 PUSH1 0x1 PUSH1 0xA0 SHL SUB AND CALLER EQ PUSH2 0x4BB JUMPI PUSH1 0x40 MLOAD PUSH4 0x118CDAA7 PUSH1 0xE0 SHL DUP2 MSTORE CALLER PUSH1 0x4 DUP3 ADD MSTORE PUSH1 0x24 ADD PUSH2 0x696 JUMP JUMPDEST PUSH1 0x3 DUP1 SLOAD PUSH1 0xFF NOT AND PUSH1 0x1 OR SWAP1 SSTORE PUSH2 0x97A PUSH1 0x40 DUP1 MLOAD PUSH1 0xE0 DUP2 ADD SWAP1 SWAP2 MSTORE DUP1 PUSH1 0x0 DUP2 MSTORE PUSH1 0x20 ADD PUSH1 0x0 DUP2 MSTORE PUSH1 0x20 ADD PUSH1 0x0 DUP2 MSTORE PUSH1 0x20 ADD PUSH1 0x60 DUP2 MSTORE PUSH1 0x20 ADD PUSH1 0x60 DUP2 MSTORE PUSH1 0x20 ADD PUSH1 0x60 DUP2 MSTORE PUSH1 0x20 ADD PUSH1 0x60 DUP2 MSTORE POP SWAP1 JUMP JUMPDEST PUSH2 0xA17 PUSH1 0x9 DUP1 SLOAD PUSH2 0x98A SWAP1 PUSH2 0x1A3F JUMP JUMPDEST DUP1 PUSH1 0x1F ADD PUSH1 0x20 DUP1 SWAP2 DIV MUL PUSH1 0x20 ADD PUSH1 0x40 MLOAD SWAP1 DUP2 ADD PUSH1 0x40 MSTORE DUP1 SWAP3 SWAP2 SWAP1 DUP2 DUP2 MSTORE PUSH1 0x20 ADD DUP3 DUP1 SLOAD PUSH2 0x9B6 SWAP1 PUSH2 0x1A3F JUMP JUMPDEST DUP1 ISZERO PUSH2 0xA03 JUMPI DUP1 PUSH1 0x1F LT PUSH2 0x9D8 JUMPI PUSH2 0x100 DUP1 DUP4 SLOAD DIV MUL DUP4 MSTORE SWAP2 PUSH1 0x20 ADD SWAP2 PUSH2 0xA03 JUMP JUMPDEST DUP3 ADD SWAP2 SWAP1 PUSH1 0x0 MSTORE PUSH1 0x20 PUSH1 0x0 KECCAK256 SWAP1 JUMPDEST DUP2 SLOAD DUP2 MSTORE SWAP1 PUSH1 0x1 ADD SWAP1 PUSH1 0x20 ADD DUP1 DUP4 GT PUSH2 0x9E6 JUMPI DUP3 SWAP1 SUB PUSH1 0x1F AND DUP3 ADD SWAP2 JUMPDEST POP POP POP POP POP DUP3 PUSH2 0xB9A SWAP1 SWAP2 SWAP1 PUSH4 0xFFFFFFFF AND JUMP JUMPDEST PUSH2 0xAB4 PUSH1 0x4 DUP1 SLOAD PUSH2 0xA27 SWAP1 PUSH2 0x1A3F JUMP JUMPDEST DUP1 PUSH1 0x1F ADD PUSH1 0x20 DUP1 SWAP2 DIV MUL PUSH1 0x20 ADD PUSH1 0x40 MLOAD SWAP1 DUP2 ADD PUSH1 0x40 MSTORE DUP1 SWAP3 SWAP2 SWAP1 DUP2 DUP2 MSTORE PUSH1 0x20 ADD DUP3 DUP1 SLOAD PUSH2 0xA53 SWAP1 PUSH2 0x1A3F JUMP JUMPDEST DUP1 ISZERO PUSH2 0xAA0 JUMPI DUP1 PUSH1 0x1F LT PUSH2 0xA75 JUMPI PUSH2 0x100 DUP1 DUP4 SLOAD DIV MUL DUP4 MSTORE SWAP2 PUSH1 0x20 ADD SWAP2 PUSH2 0xAA0 JUMP JUMPDEST DUP3 ADD SWAP2 SWAP1 PUSH1 0x0 MSTORE PUSH1 0x20 PUSH1 0x0 KECCAK256 SWAP1 JUMPDEST DUP2 SLOAD DUP2 MSTORE SWAP1 PUSH1 0x1 ADD SWAP1 PUSH1 0x20 ADD DUP1 DUP4 GT PUSH2 0xA83 JUMPI DUP3 SWAP1 SUB PUSH1 0x1F AND DUP3 ADD SWAP2 JUMPDEST POP POP POP POP POP DUP3 PUSH2 0xBA7 SWAP1 SWAP2 SWAP1 PUSH4 0xFFFFFFFF AND JUMP JUMPDEST PUSH2 0x502 PUSH2 0xAC0 DUP3 PUSH2 0xBD8 JUMP JUMPDEST PUSH1 0x3 SLOAD PUSH1 0x7 SLOAD PUSH1 0x6 SLOAD PUSH1 0x1 PUSH1 0xA8 SHL SWAP1 SWAP3 DIV PUSH1 0x1 PUSH1 0x1 PUSH1 0x40 SHL SUB AND SWAP2 PUSH4 0xFFFFFFFF SWAP1 SWAP2 AND SWAP1 PUSH2 0xEB0 JUMP JUMPDEST PUSH1 0x0 DUP1 SLOAD PUSH1 0x1 PUSH1 0x1 PUSH1 0xA0 SHL SUB DUP4 DUP2 AND PUSH1 0x1 PUSH1 0x1 PUSH1 0xA0 SHL SUB NOT DUP4 AND DUP2 OR DUP5 SSTORE PUSH1 0x40 MLOAD SWAP2 SWAP1 SWAP3 AND SWAP3 DUP4 SWAP2 PUSH32 0x8BE0079C531659141344CD1FD0A4F28419497F9722A3DAAFE3B4186F6B6457E0 SWAP2 SWAP1 LOG3 POP POP JUMP JUMPDEST PUSH1 0x0 DUP1 PUSH2 0xB45 DUP4 PUSH2 0xF82 JUMP JUMPDEST SWAP1 POP PUSH1 0x15 DUP2 MLOAD LT ISZERO PUSH2 0xB89 JUMPI PUSH1 0x40 MLOAD PUSH3 0x461BCD PUSH1 0xE5 SHL DUP2 MSTORE PUSH1 0x20 PUSH1 0x4 DUP3 ADD MSTORE PUSH1 0xD PUSH1 0x24 DUP3 ADD MSTORE PUSH13 0x4F7574206F6620626F756E6473 PUSH1 0x98 SHL PUSH1 0x44 DUP3 ADD MSTORE PUSH1 0x64 ADD PUSH2 0x696 JUMP JUMPDEST PUSH1 0x21 ADD MLOAD PUSH1 0x1 PUSH1 0x60 SHL SWAP1 DIV SWAP3 SWAP2 POP POP JUMP JUMPDEST PUSH2 0x502 DUP3 PUSH1 0x0 DUP1 DUP5 PUSH2 0x10AA JUMP JUMPDEST DUP1 MLOAD PUSH1 0x0 SUB PUSH2 0xBC9 JUMPI PUSH1 0x40 MLOAD PUSH4 0xE889636F PUSH1 0xE0 SHL DUP2 MSTORE PUSH1 0x4 ADD PUSH1 0x40 MLOAD DUP1 SWAP2 SUB SWAP1 REVERT JUMPDEST PUSH1 0x1 PUSH1 0x20 DUP4 ADD MSTORE PUSH1 0x80 SWAP1 SWAP2 ADD MSTORE JUMP JUMPDEST PUSH1 0x60 PUSH1 0x0 PUSH2 0xBE7 PUSH2 0x100 PUSH2 0x1128 JUMP JUMPDEST SWAP1 POP PUSH2 0xC20 PUSH1 0x40 MLOAD DUP1 PUSH1 0x40 ADD PUSH1 0x40 MSTORE DUP1 PUSH1 0xC DUP2 MSTORE PUSH1 0x20 ADD PUSH12 0x31B7B232A637B1B0BA34B7B7 PUSH1 0xA1 SHL DUP2 MSTORE POP DUP3 PUSH2 0x1149 SWAP1 SWAP2 SWAP1 PUSH4 0xFFFFFFFF AND JUMP JUMPDEST DUP3 MLOAD PUSH2 0xC3E SWAP1 PUSH1 0x2 DUP2 GT ISZERO PUSH2 0xC37 JUMPI PUSH2 0xC37 PUSH2 0x1BCE JUMP JUMPDEST DUP3 SWAP1 PUSH2 0x1167 JUMP JUMPDEST PUSH1 0x40 DUP1 MLOAD DUP1 DUP3 ADD SWAP1 SWAP2 MSTORE PUSH1 0x8 DUP2 MSTORE PUSH8 0x6C616E6775616765 PUSH1 0xC0 SHL PUSH1 0x20 DUP3 ADD MSTORE PUSH2 0xC68 SWAP1 DUP3 SWAP1 PUSH2 0x1149 JUMP JUMPDEST PUSH1 0x40 DUP4 ADD MLOAD PUSH2 0xC7F SWAP1 DUP1 ISZERO PUSH2 0xC37 JUMPI PUSH2 0xC37 PUSH2 0x1BCE JUMP JUMPDEST PUSH1 0x40 DUP1 MLOAD DUP1 DUP3 ADD SWAP1 SWAP2 MSTORE PUSH1 0x6 DUP2 MSTORE PUSH6 0x736F75726365 PUSH1 0xD0 SHL PUSH1 0x20 DUP3 ADD MSTORE PUSH2 0xCA7 SWAP1 DUP3 SWAP1 PUSH2 0x1149 JUMP JUMPDEST PUSH1 0x60 DUP4 ADD MLOAD PUSH2 0xCB7 SWAP1 DUP3 SWAP1 PUSH2 0x1149 JUMP JUMPDEST PUSH1 0xA0 DUP4 ADD MLOAD MLOAD ISZERO PUSH2 0xD4B JUMPI PUSH1 0x40 DUP1 MLOAD DUP1 DUP3 ADD SWAP1 SWAP2 MSTORE PUSH1 0x4 DUP2 MSTORE PUSH4 0x61726773 PUSH1 0xE0 SHL PUSH1 0x20 DUP3 ADD MSTORE PUSH2 0xCE8 SWAP1 DUP3 SWAP1 PUSH2 0x1149 JUMP JUMPDEST PUSH2 0xCF1 DUP2 PUSH2 0x11A0 JUMP JUMPDEST PUSH1 0x0 JUMPDEST DUP4 PUSH1 0xA0 ADD MLOAD MLOAD DUP2 LT ISZERO PUSH2 0xD41 JUMPI PUSH2 0xD31 DUP5 PUSH1 0xA0 ADD MLOAD DUP3 DUP2 MLOAD DUP2 LT PUSH2 0xD1A JUMPI PUSH2 0xD1A PUSH2 0x1BE4 JUMP JUMPDEST PUSH1 0x20 MUL PUSH1 0x20 ADD ADD MLOAD DUP4 PUSH2 0x1149 SWAP1 SWAP2 SWAP1 PUSH4 0xFFFFFFFF AND JUMP JUMPDEST PUSH2 0xD3A DUP2 PUSH2 0x1C10 JUMP JUMPDEST SWAP1 POP PUSH2 0xCF4 JUMP JUMPDEST POP PUSH2 0xD4B DUP2 PUSH2 0x11C4 JUMP JUMPDEST PUSH1 0x80 DUP4 ADD MLOAD MLOAD ISZERO PUSH2 0xE0F JUMPI PUSH1 0x0 DUP4 PUSH1 0x20 ADD MLOAD PUSH1 0x2 DUP2 GT ISZERO PUSH2 0xD6E JUMPI PUSH2 0xD6E PUSH2 0x1BCE JUMP JUMPDEST SUB PUSH2 0xD8C JUMPI PUSH1 0x40 MLOAD PUSH4 0xA80D31F7 PUSH1 0xE0 SHL DUP2 MSTORE PUSH1 0x4 ADD PUSH1 0x40 MLOAD DUP1 SWAP2 SUB SWAP1 REVERT JUMPDEST PUSH1 0x40 DUP1 MLOAD DUP1 DUP3 ADD SWAP1 SWAP2 MSTORE PUSH1 0xF DUP2 MSTORE PUSH15 0x39B2B1B932BA39A637B1B0BA34B7B7 PUSH1 0x89 SHL PUSH1 0x20 DUP3 ADD MSTORE PUSH2 0xDBD SWAP1 DUP3 SWAP1 PUSH2 0x1149 JUMP JUMPDEST PUSH2 0xDD6 DUP4 PUSH1 0x20 ADD MLOAD PUSH1 0x2 DUP2 GT ISZERO PUSH2 0xC37 JUMPI PUSH2 0xC37 PUSH2 0x1BCE JUMP JUMPDEST PUSH1 0x40 DUP1 MLOAD DUP1 DUP3 ADD SWAP1 SWAP2 MSTORE PUSH1 0x7 DUP2 MSTORE PUSH7 0x73656372657473 PUSH1 0xC8 SHL PUSH1 0x20 DUP3 ADD MSTORE PUSH2 0xDFF SWAP1 DUP3 SWAP1 PUSH2 0x1149 JUMP JUMPDEST PUSH1 0x80 DUP4 ADD MLOAD PUSH2 0xE0F SWAP1 DUP3 SWAP1 PUSH2 0x11E2 JUMP JUMPDEST PUSH1 0xC0 DUP4 ADD MLOAD MLOAD ISZERO PUSH2 0xEA8 JUMPI PUSH1 0x40 DUP1 MLOAD DUP1 DUP3 ADD SWAP1 SWAP2 MSTORE PUSH1 0x9 DUP2 MSTORE PUSH9 0x627974657341726773 PUSH1 0xB8 SHL PUSH1 0x20 DUP3 ADD MSTORE PUSH2 0xE45 SWAP1 DUP3 SWAP1 PUSH2 0x1149 JUMP JUMPDEST PUSH2 0xE4E DUP2 PUSH2 0x11A0 JUMP JUMPDEST PUSH1 0x0 JUMPDEST DUP4 PUSH1 0xC0 ADD MLOAD MLOAD DUP2 LT ISZERO PUSH2 0xE9E JUMPI PUSH2 0xE8E DUP5 PUSH1 0xC0 ADD MLOAD DUP3 DUP2 MLOAD DUP2 LT PUSH2 0xE77 JUMPI PUSH2 0xE77 PUSH2 0x1BE4 JUMP JUMPDEST PUSH1 0x20 MUL PUSH1 0x20 ADD ADD MLOAD DUP4 PUSH2 0x11E2 SWAP1 SWAP2 SWAP1 PUSH4 0xFFFFFFFF AND JUMP JUMPDEST PUSH2 0xE97 DUP2 PUSH2 0x1C10 JUMP JUMPDEST SWAP1 POP PUSH2 0xE51 JUMP JUMPDEST POP PUSH2 0xEA8 DUP2 PUSH2 0x11C4 JUMP JUMPDEST MLOAD MLOAD SWAP3 SWAP2 POP POP JUMP JUMPDEST PUSH1 0x0 DUP1 PUSH32 0x0 PUSH1 0x1 PUSH1 0x1 PUSH1 0xA0 SHL SUB AND PUSH4 0x461D2762 DUP7 DUP9 PUSH1 0x1 DUP9 DUP9 PUSH1 0x40 MLOAD DUP7 PUSH4 0xFFFFFFFF AND PUSH1 0xE0 SHL DUP2 MSTORE PUSH1 0x4 ADD PUSH2 0xF08 SWAP6 SWAP5 SWAP4 SWAP3 SWAP2 SWAP1 PUSH2 0x1C29 JUMP JUMPDEST PUSH1 0x20 PUSH1 0x40 MLOAD DUP1 DUP4 SUB DUP2 PUSH1 0x0 DUP8 GAS CALL ISZERO DUP1 ISZERO PUSH2 0xF27 JUMPI RETURNDATASIZE PUSH1 0x0 DUP1 RETURNDATACOPY RETURNDATASIZE PUSH1 0x0 REVERT JUMPDEST POP POP POP POP PUSH1 0x40 MLOAD RETURNDATASIZE PUSH1 0x1F NOT PUSH1 0x1F DUP3 ADD AND DUP3 ADD DUP1 PUSH1 0x40 MSTORE POP DUP2 ADD SWAP1 PUSH2 0xF4B SWAP2 SWAP1 PUSH2 0x1C72 JUMP JUMPDEST PUSH1 0x40 MLOAD SWAP1 SWAP2 POP DUP2 SWAP1 PUSH32 0x1131472297A800FEE664D1D89CFA8F7676FF07189ECC53F80BBB5F4969099DB8 SWAP1 PUSH1 0x0 SWAP1 LOG2 SWAP6 SWAP5 POP POP POP POP POP JUMP JUMPDEST DUP1 MLOAD PUSH1 0x60 SWAP1 DUP3 SWAP1 PUSH2 0xF95 SWAP1 PUSH1 0x2 SWAP1 PUSH2 0x1CA1 JUMP JUMPDEST ISZERO PUSH2 0xF9F JUMPI PUSH1 0x0 DUP1 REVERT JUMPDEST PUSH1 0x0 PUSH1 0x2 DUP3 MLOAD PUSH2 0xFAF SWAP2 SWAP1 PUSH2 0x1CB5 JUMP JUMPDEST PUSH1 0x1 PUSH1 0x1 PUSH1 0x40 SHL SUB DUP2 GT ISZERO PUSH2 0xFC6 JUMPI PUSH2 0xFC6 PUSH2 0x16B9 JUMP JUMPDEST PUSH1 0x40 MLOAD SWAP1 DUP1 DUP3 MSTORE DUP1 PUSH1 0x1F ADD PUSH1 0x1F NOT AND PUSH1 0x20 ADD DUP3 ADD PUSH1 0x40 MSTORE DUP1 ISZERO PUSH2 0xFF0 JUMPI PUSH1 0x20 DUP3 ADD DUP2 DUP1 CALLDATASIZE DUP4 CALLDATACOPY ADD SWAP1 POP JUMPDEST POP SWAP1 POP PUSH1 0x0 JUMPDEST PUSH1 0x2 DUP4 MLOAD PUSH2 0x1004 SWAP2 SWAP1 PUSH2 0x1CB5 JUMP JUMPDEST DUP2 LT ISZERO PUSH2 0x10A2 JUMPI PUSH2 0x1042 DUP4 PUSH2 0x101A DUP4 PUSH1 0x2 PUSH2 0x1CC9 JUMP JUMPDEST PUSH2 0x1025 SWAP1 PUSH1 0x1 PUSH2 0x1CE0 JUMP JUMPDEST DUP2 MLOAD DUP2 LT PUSH2 0x1035 JUMPI PUSH2 0x1035 PUSH2 0x1BE4 JUMP JUMPDEST ADD PUSH1 0x20 ADD MLOAD PUSH1 0xF8 SHR PUSH2 0x11EF JUMP JUMPDEST PUSH2 0x1051 DUP5 PUSH2 0x1025 DUP5 PUSH1 0x2 PUSH2 0x1CC9 JUMP JUMPDEST PUSH2 0x105C SWAP1 PUSH1 0x10 PUSH2 0x1CF3 JUMP JUMPDEST PUSH2 0x1066 SWAP2 SWAP1 PUSH2 0x1D16 JUMP JUMPDEST PUSH1 0xF8 SHL DUP3 DUP3 DUP2 MLOAD DUP2 LT PUSH2 0x107B JUMPI PUSH2 0x107B PUSH2 0x1BE4 JUMP JUMPDEST PUSH1 0x20 ADD ADD SWAP1 PUSH1 0x1 PUSH1 0x1 PUSH1 0xF8 SHL SUB NOT AND SWAP1 DUP2 PUSH1 0x0 BYTE SWAP1 MSTORE8 POP PUSH2 0x109B DUP2 PUSH2 0x1C10 JUMP JUMPDEST SWAP1 POP PUSH2 0xFF6 JUMP JUMPDEST POP SWAP4 SWAP3 POP POP POP JUMP JUMPDEST DUP1 MLOAD PUSH1 0x0 SUB PUSH2 0x10CC JUMPI PUSH1 0x40 MLOAD PUSH4 0x22CE3EDD PUSH1 0xE0 SHL DUP2 MSTORE PUSH1 0x4 ADD PUSH1 0x40 MLOAD DUP1 SWAP2 SUB SWAP1 REVERT JUMPDEST DUP4 DUP4 PUSH1 0x2 DUP2 GT ISZERO PUSH2 0x10DF JUMPI PUSH2 0x10DF PUSH2 0x1BCE JUMP JUMPDEST SWAP1 DUP2 PUSH1 0x2 DUP2 GT ISZERO PUSH2 0x10F2 JUMPI PUSH2 0x10F2 PUSH2 0x1BCE JUMP JUMPDEST SWAP1 MSTORE POP PUSH1 0x40 DUP5 ADD DUP3 DUP1 ISZERO PUSH2 0x1108 JUMPI PUSH2 0x1108 PUSH2 0x1BCE JUMP JUMPDEST SWAP1 DUP2 DUP1 ISZERO PUSH2 0x1118 JUMPI PUSH2 0x1118 PUSH2 0x1BCE JUMP JUMPDEST SWAP1 MSTORE POP PUSH1 0x60 SWAP1 SWAP4 ADD SWAP3 SWAP1 SWAP3 MSTORE POP POP JUMP JUMPDEST PUSH2 0x1130 PUSH2 0x1684 JUMP JUMPDEST DUP1 MLOAD PUSH2 0x113C SWAP1 DUP4 PUSH2 0x12D9 JUMP JUMPDEST POP PUSH1 0x0 PUSH1 0x20 DUP3 ADD MSTORE SWAP2 SWAP1 POP JUMP JUMPDEST PUSH2 0x1156 DUP3 PUSH1 0x3 DUP4 MLOAD PUSH2 0x1350 JUMP JUMPDEST DUP2 MLOAD PUSH2 0x1162 SWAP1 DUP3 PUSH2 0x146F JUMP JUMPDEST POP POP POP JUMP JUMPDEST DUP2 MLOAD PUSH2 0x1174 SWAP1 PUSH1 0xC2 PUSH2 0x1497 JUMP JUMPDEST POP PUSH2 0x502 DUP3 DUP3 PUSH1 0x40 MLOAD PUSH1 0x20 ADD PUSH2 0x118C SWAP2 DUP2 MSTORE PUSH1 0x20 ADD SWAP1 JUMP JUMPDEST PUSH1 0x40 MLOAD PUSH1 0x20 DUP2 DUP4 SUB SUB DUP2 MSTORE SWAP1 PUSH1 0x40 MSTORE PUSH2 0x11E2 JUMP JUMPDEST PUSH2 0x11AB DUP2 PUSH1 0x4 PUSH2 0x1500 JUMP JUMPDEST PUSH1 0x1 DUP2 PUSH1 0x20 ADD DUP2 DUP2 MLOAD PUSH2 0x11BE SWAP2 SWAP1 PUSH2 0x1CE0 JUMP JUMPDEST SWAP1 MSTORE POP POP JUMP JUMPDEST PUSH2 0x11CF DUP2 PUSH1 0x7 PUSH2 0x1500 JUMP JUMPDEST PUSH1 0x1 DUP2 PUSH1 0x20 ADD DUP2 DUP2 MLOAD PUSH2 0x11BE SWAP2 SWAP1 PUSH2 0x1D2F JUMP JUMPDEST PUSH2 0x1156 DUP3 PUSH1 0x2 DUP4 MLOAD PUSH2 0x1350 JUMP JUMPDEST PUSH1 0x0 PUSH1 0x3 PUSH1 0xFC SHL PUSH1 0xF8 DUP4 SWAP1 SHL PUSH1 0x1 PUSH1 0x1 PUSH1 0xF8 SHL SUB NOT AND LT DUP1 ISZERO SWAP1 PUSH2 0x1225 JUMPI POP PUSH1 0x39 PUSH1 0xF8 SHL PUSH1 0xF8 DUP4 SWAP1 SHL PUSH1 0x1 PUSH1 0x1 PUSH1 0xF8 SHL SUB NOT AND GT ISZERO JUMPDEST ISZERO PUSH2 0x123B JUMPI PUSH2 0x1235 PUSH1 0x30 DUP4 PUSH2 0x1D42 JUMP JUMPDEST SWAP3 SWAP2 POP POP JUMP JUMPDEST PUSH1 0x61 PUSH1 0xF8 SHL PUSH1 0xF8 DUP4 SWAP1 SHL PUSH1 0x1 PUSH1 0x1 PUSH1 0xF8 SHL SUB NOT AND LT DUP1 ISZERO SWAP1 PUSH2 0x126F JUMPI POP PUSH1 0x33 PUSH1 0xF9 SHL PUSH1 0xF8 DUP4 SWAP1 SHL PUSH1 0x1 PUSH1 0x1 PUSH1 0xF8 SHL SUB NOT AND GT ISZERO JUMPDEST ISZERO PUSH2 0x128B JUMPI PUSH1 0x61 PUSH2 0x1281 DUP4 PUSH1 0xA PUSH2 0x1D16 JUMP JUMPDEST PUSH2 0x1235 SWAP2 SWAP1 PUSH2 0x1D42 JUMP JUMPDEST PUSH1 0x41 PUSH1 0xF8 SHL PUSH1 0xF8 DUP4 SWAP1 SHL PUSH1 0x1 PUSH1 0x1 PUSH1 0xF8 SHL SUB NOT AND LT DUP1 ISZERO SWAP1 PUSH2 0x12BF JUMPI POP PUSH1 0x23 PUSH1 0xF9 SHL PUSH1 0xF8 DUP4 SWAP1 SHL PUSH1 0x1 PUSH1 0x1 PUSH1 0xF8 SHL SUB NOT AND GT ISZERO JUMPDEST ISZERO PUSH2 0x12D1 JUMPI PUSH1 0x41 PUSH2 0x1281 DUP4 PUSH1 0xA PUSH2 0x1D16 JUMP JUMPDEST POP PUSH1 0x0 SWAP2 SWAP1 POP JUMP JUMPDEST PUSH1 0x40 DUP1 MLOAD DUP1 DUP3 ADD SWAP1 SWAP2 MSTORE PUSH1 0x60 DUP2 MSTORE PUSH1 0x0 PUSH1 0x20 DUP3 ADD MSTORE PUSH2 0x12F9 PUSH1 0x20 DUP4 PUSH2 0x1CA1 JUMP JUMPDEST ISZERO PUSH2 0x1321 JUMPI PUSH2 0x1309 PUSH1 0x20 DUP4 PUSH2 0x1CA1 JUMP JUMPDEST PUSH2 0x1314 SWAP1 PUSH1 0x20 PUSH2 0x1D2F JUMP JUMPDEST PUSH2 0x131E SWAP1 DUP4 PUSH2 0x1CE0 JUMP JUMPDEST SWAP2 POP JUMPDEST PUSH1 0x20 DUP1 DUP5 ADD DUP4 SWAP1 MSTORE PUSH1 0x40 MLOAD DUP1 DUP6 MSTORE PUSH1 0x0 DUP2 MSTORE SWAP1 DUP2 DUP5 ADD ADD DUP2 DUP2 LT ISZERO PUSH2 0x1345 JUMPI PUSH1 0x0 DUP1 REVERT JUMPDEST PUSH1 0x40 MSTORE POP SWAP2 SWAP3 SWAP2 POP POP JUMP JUMPDEST PUSH1 0x17 DUP2 PUSH1 0x1 PUSH1 0x1 PUSH1 0x40 SHL SUB AND GT PUSH2 0x137C JUMPI DUP3 MLOAD PUSH2 0x1376 SWAP1 PUSH1 0xE0 PUSH1 0x5 DUP6 SWAP1 SHL AND DUP4 OR PUSH2 0x1497 JUMP JUMPDEST POP POP POP POP JUMP JUMPDEST PUSH1 0xFF DUP2 PUSH1 0x1 PUSH1 0x1 PUSH1 0x40 SHL SUB AND GT PUSH2 0x13BC JUMPI DUP3 MLOAD PUSH2 0x13A4 SWAP1 PUSH1 0x18 PUSH2 0x1FE0 PUSH1 0x5 DUP7 SWAP1 SHL AND OR PUSH2 0x1497 JUMP JUMPDEST POP DUP3 MLOAD PUSH2 0x1376 SWAP1 PUSH1 0x1 PUSH1 0x1 PUSH1 0x40 SHL SUB DUP4 AND PUSH1 0x1 PUSH2 0x1517 JUMP JUMPDEST PUSH2 0xFFFF DUP2 PUSH1 0x1 PUSH1 0x1 PUSH1 0x40 SHL SUB AND GT PUSH2 0x13FD JUMPI DUP3 MLOAD PUSH2 0x13E5 SWAP1 PUSH1 0x19 PUSH2 0x1FE0 PUSH1 0x5 DUP7 SWAP1 SHL AND OR PUSH2 0x1497 JUMP JUMPDEST POP DUP3 MLOAD PUSH2 0x1376 SWAP1 PUSH1 0x1 PUSH1 0x1 PUSH1 0x40 SHL SUB DUP4 AND PUSH1 0x2 PUSH2 0x1517 JUMP JUMPDEST PUSH4 0xFFFFFFFF DUP2 PUSH1 0x1 PUSH1 0x1 PUSH1 0x40 SHL SUB AND GT PUSH2 0x1440 JUMPI DUP3 MLOAD PUSH2 0x1428 SWAP1 PUSH1 0x1A PUSH2 0x1FE0 PUSH1 0x5 DUP7 SWAP1 SHL AND OR PUSH2 0x1497 JUMP JUMPDEST POP DUP3 MLOAD PUSH2 0x1376 SWAP1 PUSH1 0x1 PUSH1 0x1 PUSH1 0x40 SHL SUB DUP4 AND PUSH1 0x4 PUSH2 0x1517 JUMP JUMPDEST DUP3 MLOAD PUSH2 0x1457 SWAP1 PUSH1 0x1B PUSH2 0x1FE0 PUSH1 0x5 DUP7 SWAP1 SHL AND OR PUSH2 0x1497 JUMP JUMPDEST POP DUP3 MLOAD PUSH2 0x1376 SWAP1 PUSH1 0x1 PUSH1 0x1 PUSH1 0x40 SHL SUB DUP4 AND PUSH1 0x8 PUSH2 0x1517 JUMP JUMPDEST PUSH1 0x40 DUP1 MLOAD DUP1 DUP3 ADD SWAP1 SWAP2 MSTORE PUSH1 0x60 DUP2 MSTORE PUSH1 0x0 PUSH1 0x20 DUP3 ADD MSTORE PUSH2 0x1490 DUP4 DUP4 DUP5 MLOAD PUSH2 0x159C JUMP JUMPDEST SWAP4 SWAP3 POP POP POP JUMP JUMPDEST PUSH1 0x40 DUP1 MLOAD DUP1 DUP3 ADD SWAP1 SWAP2 MSTORE PUSH1 0x60 DUP2 MSTORE PUSH1 0x0 PUSH1 0x20 DUP3 ADD MSTORE DUP3 MLOAD MLOAD PUSH1 0x0 PUSH2 0x14BC DUP3 PUSH1 0x1 PUSH2 0x1CE0 JUMP JUMPDEST SWAP1 POP DUP5 PUSH1 0x20 ADD MLOAD DUP3 LT PUSH2 0x14DD JUMPI PUSH2 0x14DD DUP6 PUSH2 0x14D8 DUP4 PUSH1 0x2 PUSH2 0x1CC9 JUMP JUMPDEST PUSH2 0x166D JUMP JUMPDEST DUP5 MLOAD PUSH1 0x20 DUP4 DUP3 ADD ADD DUP6 DUP2 MSTORE8 POP DUP1 MLOAD DUP3 GT ISZERO PUSH2 0x14F6 JUMPI DUP2 DUP2 MSTORE JUMPDEST POP SWAP4 SWAP5 SWAP4 POP POP POP POP JUMP JUMPDEST DUP2 MLOAD PUSH2 0x1162 SWAP1 PUSH1 0x1F PUSH2 0x1FE0 PUSH1 0x5 DUP6 SWAP1 SHL AND OR PUSH2 0x1497 JUMP JUMPDEST PUSH1 0x40 DUP1 MLOAD DUP1 DUP3 ADD SWAP1 SWAP2 MSTORE PUSH1 0x60 DUP2 MSTORE PUSH1 0x0 PUSH1 0x20 DUP3 ADD MSTORE DUP4 MLOAD MLOAD PUSH1 0x0 PUSH2 0x153B DUP3 DUP6 PUSH2 0x1CE0 JUMP JUMPDEST SWAP1 POP DUP6 PUSH1 0x20 ADD MLOAD DUP2 GT ISZERO PUSH2 0x1558 JUMPI PUSH2 0x1558 DUP7 PUSH2 0x14D8 DUP4 PUSH1 0x2 PUSH2 0x1CC9 JUMP JUMPDEST PUSH1 0x0 PUSH1 0x1 PUSH2 0x1568 DUP7 PUSH2 0x100 PUSH2 0x1E3F JUMP JUMPDEST PUSH2 0x1572 SWAP2 SWAP1 PUSH2 0x1D2F JUMP JUMPDEST SWAP1 POP DUP7 MLOAD DUP3 DUP2 ADD DUP8 DUP4 NOT DUP3 MLOAD AND OR DUP2 MSTORE POP DUP1 MLOAD DUP4 GT ISZERO PUSH2 0x1590 JUMPI DUP3 DUP2 MSTORE JUMPDEST POP SWAP6 SWAP7 SWAP6 POP POP POP POP POP POP JUMP JUMPDEST PUSH1 0x40 DUP1 MLOAD DUP1 DUP3 ADD SWAP1 SWAP2 MSTORE PUSH1 0x60 DUP2 MSTORE PUSH1 0x0 PUSH1 0x20 DUP3 ADD MSTORE DUP3 MLOAD DUP3 GT ISZERO PUSH2 0x15BF JUMPI PUSH1 0x0 DUP1 REVERT JUMPDEST DUP4 MLOAD MLOAD PUSH1 0x0 PUSH2 0x15CE DUP5 DUP4 PUSH2 0x1CE0 JUMP JUMPDEST SWAP1 POP DUP6 PUSH1 0x20 ADD MLOAD DUP2 GT ISZERO PUSH2 0x15EB JUMPI PUSH2 0x15EB DUP7 PUSH2 0x14D8 DUP4 PUSH1 0x2 PUSH2 0x1CC9 JUMP JUMPDEST DUP6 MLOAD DUP1 MLOAD DUP4 DUP3 ADD PUSH1 0x20 ADD SWAP2 PUSH1 0x0 SWAP2 DUP1 DUP6 GT ISZERO PUSH2 0x1605 JUMPI DUP5 DUP3 MSTORE JUMPDEST POP POP POP PUSH1 0x20 DUP7 ADD JUMPDEST PUSH1 0x20 DUP7 LT PUSH2 0x1645 JUMPI DUP1 MLOAD DUP3 MSTORE PUSH2 0x1624 PUSH1 0x20 DUP4 PUSH2 0x1CE0 JUMP JUMPDEST SWAP2 POP PUSH2 0x1631 PUSH1 0x20 DUP3 PUSH2 0x1CE0 JUMP JUMPDEST SWAP1 POP PUSH2 0x163E PUSH1 0x20 DUP8 PUSH2 0x1D2F JUMP JUMPDEST SWAP6 POP PUSH2 0x160D JUMP JUMPDEST MLOAD DUP2 MLOAD PUSH1 0x0 NOT PUSH1 0x20 DUP9 SWAP1 SUB PUSH2 0x100 EXP ADD SWAP1 DUP2 AND SWAP1 NOT SWAP2 SWAP1 SWAP2 AND OR SWAP1 MSTORE POP DUP5 SWAP2 POP POP SWAP4 SWAP3 POP POP POP JUMP JUMPDEST DUP2 MLOAD PUSH2 0x1679 DUP4 DUP4 PUSH2 0x12D9 JUMP JUMPDEST POP PUSH2 0x1376 DUP4 DUP3 PUSH2 0x146F JUMP JUMPDEST PUSH1 0x40 MLOAD DUP1 PUSH1 0x40 ADD PUSH1 0x40 MSTORE DUP1 PUSH2 0x16AC PUSH1 0x40 MLOAD DUP1 PUSH1 0x40 ADD PUSH1 0x40 MSTORE DUP1 PUSH1 0x60 DUP2 MSTORE PUSH1 0x20 ADD PUSH1 0x0 DUP2 MSTORE POP SWAP1 JUMP JUMPDEST DUP2 MSTORE PUSH1 0x20 ADD PUSH1 0x0 DUP2 MSTORE POP SWAP1 JUMP JUMPDEST PUSH4 0x4E487B71 PUSH1 0xE0 SHL PUSH1 0x0 MSTORE PUSH1 0x41 PUSH1 0x4 MSTORE PUSH1 0x24 PUSH1 0x0 REVERT JUMPDEST PUSH1 0x0 PUSH1 0x1 PUSH1 0x1 PUSH1 0x40 SHL SUB DUP1 DUP5 GT ISZERO PUSH2 0x16E9 JUMPI PUSH2 0x16E9 PUSH2 0x16B9 JUMP JUMPDEST PUSH1 0x40 MLOAD PUSH1 0x1F DUP6 ADD PUSH1 0x1F NOT SWAP1 DUP2 AND PUSH1 0x3F ADD AND DUP2 ADD SWAP1 DUP3 DUP3 GT DUP2 DUP4 LT OR ISZERO PUSH2 0x1711 JUMPI PUSH2 0x1711 PUSH2 0x16B9 JUMP JUMPDEST DUP2 PUSH1 0x40 MSTORE DUP1 SWAP4 POP DUP6 DUP2 MSTORE DUP7 DUP7 DUP7 ADD GT ISZERO PUSH2 0x172A JUMPI PUSH1 0x0 DUP1 REVERT JUMPDEST DUP6 DUP6 PUSH1 0x20 DUP4 ADD CALLDATACOPY PUSH1 0x0 PUSH1 0x20 DUP8 DUP4 ADD ADD MSTORE POP POP POP SWAP4 SWAP3 POP POP POP JUMP JUMPDEST PUSH1 0x0 DUP3 PUSH1 0x1F DUP4 ADD SLT PUSH2 0x1755 JUMPI PUSH1 0x0 DUP1 REVERT JUMPDEST PUSH2 0x1490 DUP4 DUP4 CALLDATALOAD PUSH1 0x20 DUP6 ADD PUSH2 0x16CF JUMP JUMPDEST PUSH1 0x0 DUP1 PUSH1 0x0 PUSH1 0x60 DUP5 DUP7 SUB SLT ISZERO PUSH2 0x1779 JUMPI PUSH1 0x0 DUP1 REVERT JUMPDEST DUP4 CALLDATALOAD SWAP3 POP PUSH1 0x20 DUP5 ADD CALLDATALOAD PUSH1 0x1 PUSH1 0x1 PUSH1 0x40 SHL SUB DUP1 DUP3 GT ISZERO PUSH2 0x1797 JUMPI PUSH1 0x0 DUP1 REVERT JUMPDEST PUSH2 0x17A3 DUP8 DUP4 DUP9 ADD PUSH2 0x1744 JUMP JUMPDEST SWAP4 POP PUSH1 0x40 DUP7 ADD CALLDATALOAD SWAP2 POP DUP1 DUP3 GT ISZERO PUSH2 0x17B9 JUMPI PUSH1 0x0 DUP1 REVERT JUMPDEST POP PUSH2 0x17C6 DUP7 DUP3 DUP8 ADD PUSH2 0x1744 JUMP JUMPDEST SWAP2 POP POP SWAP3 POP SWAP3 POP SWAP3 JUMP JUMPDEST PUSH1 0x0 PUSH1 0x20 DUP3 DUP5 SUB SLT ISZERO PUSH2 0x17E2 JUMPI PUSH1 0x0 DUP1 REVERT JUMPDEST DUP2 CALLDATALOAD PUSH1 0x1 PUSH1 0x1 PUSH1 0x40 SHL SUB DUP2 AND DUP2 EQ PUSH2 0x1490 JUMPI PUSH1 0x0 DUP1 REVERT JUMPDEST DUP1 CALLDATALOAD PUSH1 0x1 PUSH1 0x1 PUSH1 0xA0 SHL SUB DUP2 AND DUP2 EQ PUSH2 0x1810 JUMPI PUSH1 0x0 DUP1 REVERT JUMPDEST SWAP2 SWAP1 POP JUMP JUMPDEST PUSH1 0x0 DUP1 PUSH1 0x0 DUP1 PUSH1 0x80 DUP6 DUP8 SUB SLT ISZERO PUSH2 0x182B JUMPI PUSH1 0x0 DUP1 REVERT JUMPDEST PUSH2 0x1834 DUP6 PUSH2 0x17F9 JUMP JUMPDEST SWAP4 POP PUSH2 0x1842 PUSH1 0x20 DUP7 ADD PUSH2 0x17F9 JUMP JUMPDEST SWAP3 POP PUSH1 0x40 DUP6 ADD CALLDATALOAD SWAP2 POP PUSH1 0x60 DUP6 ADD CALLDATALOAD PUSH1 0x1 PUSH1 0x1 PUSH1 0x40 SHL SUB DUP2 GT ISZERO PUSH2 0x1864 JUMPI PUSH1 0x0 DUP1 REVERT JUMPDEST PUSH2 0x1870 DUP8 DUP3 DUP9 ADD PUSH2 0x1744 JUMP JUMPDEST SWAP2 POP POP SWAP3 SWAP6 SWAP2 SWAP5 POP SWAP3 POP JUMP JUMPDEST PUSH1 0x0 PUSH1 0x20 DUP3 DUP5 SUB SLT ISZERO PUSH2 0x188E JUMPI PUSH1 0x0 DUP1 REVERT JUMPDEST DUP2 CALLDATALOAD PUSH4 0xFFFFFFFF DUP2 AND DUP2 EQ PUSH2 0x1490 JUMPI PUSH1 0x0 DUP1 REVERT JUMPDEST PUSH1 0x0 DUP1 PUSH1 0x20 DUP4 DUP6 SUB SLT ISZERO PUSH2 0x18B5 JUMPI PUSH1 0x0 DUP1 REVERT JUMPDEST DUP3 CALLDATALOAD PUSH1 0x1 PUSH1 0x1 PUSH1 0x40 SHL SUB DUP1 DUP3 GT ISZERO PUSH2 0x18CC JUMPI PUSH1 0x0 DUP1 REVERT JUMPDEST DUP2 DUP6 ADD SWAP2 POP DUP6 PUSH1 0x1F DUP4 ADD SLT PUSH2 0x18E0 JUMPI PUSH1 0x0 DUP1 REVERT JUMPDEST DUP2 CALLDATALOAD DUP2 DUP2 GT ISZERO PUSH2 0x18EF JUMPI PUSH1 0x0 DUP1 REVERT JUMPDEST DUP7 PUSH1 0x20 DUP3 DUP6 ADD ADD GT ISZERO PUSH2 0x1901 JUMPI PUSH1 0x0 DUP1 REVERT JUMPDEST PUSH1 0x20 SWAP3 SWAP1 SWAP3 ADD SWAP7 SWAP2 SWAP6 POP SWAP1 SWAP4 POP POP POP POP JUMP JUMPDEST PUSH1 0x0 PUSH1 0x20 DUP3 DUP5 SUB SLT ISZERO PUSH2 0x1925 JUMPI PUSH1 0x0 DUP1 REVERT JUMPDEST POP CALLDATALOAD SWAP2 SWAP1 POP JUMP JUMPDEST PUSH1 0x0 DUP2 MLOAD DUP1 DUP5 MSTORE PUSH1 0x0 JUMPDEST DUP2 DUP2 LT ISZERO PUSH2 0x1952 JUMPI PUSH1 0x20 DUP2 DUP6 ADD DUP2 ADD MLOAD DUP7 DUP4 ADD DUP3 ADD MSTORE ADD PUSH2 0x1936 JUMP JUMPDEST POP PUSH1 0x0 PUSH1 0x20 DUP3 DUP7 ADD ADD MSTORE PUSH1 0x20 PUSH1 0x1F NOT PUSH1 0x1F DUP4 ADD AND DUP6 ADD ADD SWAP2 POP POP SWAP3 SWAP2 POP POP JUMP JUMPDEST DUP3 ISZERO ISZERO DUP2 MSTORE PUSH1 0x40 PUSH1 0x20 DUP3 ADD MSTORE PUSH1 0x0 PUSH2 0x198D PUSH1 0x40 DUP4 ADD DUP5 PUSH2 0x192C JUMP JUMPDEST SWAP5 SWAP4 POP POP POP POP JUMP JUMPDEST PUSH1 0x0 PUSH1 0x20 DUP3 DUP5 SUB SLT ISZERO PUSH2 0x19A7 JUMPI PUSH1 0x0 DUP1 REVERT JUMPDEST DUP2 CALLDATALOAD PUSH1 0x1 PUSH1 0x1 PUSH1 0x40 SHL SUB DUP2 GT ISZERO PUSH2 0x19BD JUMPI PUSH1 0x0 DUP1 REVERT JUMPDEST PUSH2 0x198D DUP5 DUP3 DUP6 ADD PUSH2 0x1744 JUMP JUMPDEST PUSH1 0x20 DUP2 MSTORE PUSH1 0x0 PUSH2 0x1490 PUSH1 0x20 DUP4 ADD DUP5 PUSH2 0x192C JUMP JUMPDEST PUSH1 0x0 PUSH1 0x20 DUP3 DUP5 SUB SLT ISZERO PUSH2 0x19EE JUMPI PUSH1 0x0 DUP1 REVERT JUMPDEST PUSH2 0x1490 DUP3 PUSH2 0x17F9 JUMP JUMPDEST PUSH1 0x0 PUSH1 0x20 DUP3 DUP5 SUB SLT ISZERO PUSH2 0x1A09 JUMPI PUSH1 0x0 DUP1 REVERT JUMPDEST DUP2 CALLDATALOAD PUSH1 0x1 PUSH1 0x1 PUSH1 0x40 SHL SUB DUP2 GT ISZERO PUSH2 0x1A1F JUMPI PUSH1 0x0 DUP1 REVERT JUMPDEST DUP3 ADD PUSH1 0x1F DUP2 ADD DUP5 SGT PUSH2 0x1A30 JUMPI PUSH1 0x0 DUP1 REVERT JUMPDEST PUSH2 0x198D DUP5 DUP3 CALLDATALOAD PUSH1 0x20 DUP5 ADD PUSH2 0x16CF JUMP JUMPDEST PUSH1 0x1 DUP2 DUP2 SHR SWAP1 DUP3 AND DUP1 PUSH2 0x1A53 JUMPI PUSH1 0x7F DUP3 AND SWAP2 POP JUMPDEST PUSH1 0x20 DUP3 LT DUP2 SUB PUSH2 0x1A73 JUMPI PUSH4 0x4E487B71 PUSH1 0xE0 SHL PUSH1 0x0 MSTORE PUSH1 0x22 PUSH1 0x4 MSTORE PUSH1 0x24 PUSH1 0x0 REVERT JUMPDEST POP SWAP2 SWAP1 POP JUMP JUMPDEST PUSH1 0x1F DUP3 GT ISZERO PUSH2 0x1162 JUMPI PUSH1 0x0 DUP2 DUP2 MSTORE PUSH1 0x20 DUP2 KECCAK256 PUSH1 0x1F DUP6 ADD PUSH1 0x5 SHR DUP2 ADD PUSH1 0x20 DUP7 LT ISZERO PUSH2 0x1AA0 JUMPI POP DUP1 JUMPDEST PUSH1 0x1F DUP6 ADD PUSH1 0x5 SHR DUP3 ADD SWAP2 POP JUMPDEST DUP2 DUP2 LT ISZERO PUSH2 0x1ABF JUMPI DUP3 DUP2 SSTORE PUSH1 0x1 ADD PUSH2 0x1AAC JUMP JUMPDEST POP POP POP POP POP POP JUMP JUMPDEST DUP2 MLOAD PUSH1 0x1 PUSH1 0x1 PUSH1 0x40 SHL SUB DUP2 GT ISZERO PUSH2 0x1AE0 JUMPI PUSH2 0x1AE0 PUSH2 0x16B9 JUMP JUMPDEST PUSH2 0x1AF4 DUP2 PUSH2 0x1AEE DUP5 SLOAD PUSH2 0x1A3F JUMP JUMPDEST DUP5 PUSH2 0x1A79 JUMP JUMPDEST PUSH1 0x20 DUP1 PUSH1 0x1F DUP4 GT PUSH1 0x1 DUP2 EQ PUSH2 0x1B29 JUMPI PUSH1 0x0 DUP5 ISZERO PUSH2 0x1B11 JUMPI POP DUP6 DUP4 ADD MLOAD JUMPDEST PUSH1 0x0 NOT PUSH1 0x3 DUP7 SWAP1 SHL SHR NOT AND PUSH1 0x1 DUP6 SWAP1 SHL OR DUP6 SSTORE PUSH2 0x1ABF JUMP JUMPDEST PUSH1 0x0 DUP6 DUP2 MSTORE PUSH1 0x20 DUP2 KECCAK256 PUSH1 0x1F NOT DUP7 AND SWAP2 JUMPDEST DUP3 DUP2 LT ISZERO PUSH2 0x1B58 JUMPI DUP9 DUP7 ADD MLOAD DUP3 SSTORE SWAP5 DUP5 ADD SWAP5 PUSH1 0x1 SWAP1 SWAP2 ADD SWAP1 DUP5 ADD PUSH2 0x1B39 JUMP JUMPDEST POP DUP6 DUP3 LT ISZERO PUSH2 0x1B76 JUMPI DUP8 DUP6 ADD MLOAD PUSH1 0x0 NOT PUSH1 0x3 DUP9 SWAP1 SHL PUSH1 0xF8 AND SHR NOT AND DUP2 SSTORE JUMPDEST POP POP POP POP POP PUSH1 0x1 SWAP1 DUP2 SHL ADD SWAP1 SSTORE POP JUMP JUMPDEST PUSH1 0x1 PUSH1 0x1 PUSH1 0xA0 SHL SUB SWAP4 DUP5 AND DUP2 MSTORE SWAP2 SWAP1 SWAP3 AND PUSH1 0x20 DUP3 ADD MSTORE PUSH1 0x40 DUP2 ADD SWAP2 SWAP1 SWAP2 MSTORE PUSH1 0x60 ADD SWAP1 JUMP JUMPDEST PUSH1 0x1 PUSH1 0x1 PUSH1 0xA0 SHL SUB DUP4 AND DUP2 MSTORE PUSH1 0x40 PUSH1 0x20 DUP3 ADD DUP2 SWAP1 MSTORE PUSH1 0x0 SWAP1 PUSH2 0x198D SWAP1 DUP4 ADD DUP5 PUSH2 0x192C JUMP JUMPDEST PUSH4 0x4E487B71 PUSH1 0xE0 SHL PUSH1 0x0 MSTORE PUSH1 0x21 PUSH1 0x4 MSTORE PUSH1 0x24 PUSH1 0x0 REVERT JUMPDEST PUSH4 0x4E487B71 PUSH1 0xE0 SHL PUSH1 0x0 MSTORE PUSH1 0x32 PUSH1 0x4 MSTORE PUSH1 0x24 PUSH1 0x0 REVERT JUMPDEST PUSH4 0x4E487B71 PUSH1 0xE0 SHL PUSH1 0x0 MSTORE PUSH1 0x11 PUSH1 0x4 MSTORE PUSH1 0x24 PUSH1 0x0 REVERT JUMPDEST PUSH1 0x0 PUSH1 0x1 DUP3 ADD PUSH2 0x1C22 JUMPI PUSH2 0x1C22 PUSH2 0x1BFA JUMP JUMPDEST POP PUSH1 0x1 ADD SWAP1 JUMP JUMPDEST PUSH1 0x1 PUSH1 0x1 PUSH1 0x40 SHL SUB DUP7 AND DUP2 MSTORE PUSH1 0xA0 PUSH1 0x20 DUP3 ADD MSTORE PUSH1 0x0 PUSH2 0x1C4B PUSH1 0xA0 DUP4 ADD DUP8 PUSH2 0x192C JUMP JUMPDEST PUSH2 0xFFFF SWAP6 SWAP1 SWAP6 AND PUSH1 0x40 DUP4 ADD MSTORE POP PUSH4 0xFFFFFFFF SWAP3 SWAP1 SWAP3 AND PUSH1 0x60 DUP4 ADD MSTORE PUSH1 0x80 SWAP1 SWAP2 ADD MSTORE SWAP3 SWAP2 POP POP JUMP JUMPDEST PUSH1 0x0 PUSH1 0x20 DUP3 DUP5 SUB SLT ISZERO PUSH2 0x1C84 JUMPI PUSH1 0x0 DUP1 REVERT JUMPDEST POP MLOAD SWAP2 SWAP1 POP JUMP JUMPDEST PUSH4 0x4E487B71 PUSH1 0xE0 SHL PUSH1 0x0 MSTORE PUSH1 0x12 PUSH1 0x4 MSTORE PUSH1 0x24 PUSH1 0x0 REVERT JUMPDEST PUSH1 0x0 DUP3 PUSH2 0x1CB0 JUMPI PUSH2 0x1CB0 PUSH2 0x1C8B JUMP JUMPDEST POP MOD SWAP1 JUMP JUMPDEST PUSH1 0x0 DUP3 PUSH2 0x1CC4 JUMPI PUSH2 0x1CC4 PUSH2 0x1C8B JUMP JUMPDEST POP DIV SWAP1 JUMP JUMPDEST DUP1 DUP3 MUL DUP2 ISZERO DUP3 DUP3 DIV DUP5 EQ OR PUSH2 0x1235 JUMPI PUSH2 0x1235 PUSH2 0x1BFA JUMP JUMPDEST DUP1 DUP3 ADD DUP1 DUP3 GT ISZERO PUSH2 0x1235 JUMPI PUSH2 0x1235 PUSH2 0x1BFA JUMP JUMPDEST PUSH1 0xFF DUP2 DUP2 AND DUP4 DUP3 AND MUL SWAP1 DUP2 AND SWAP1 DUP2 DUP2 EQ PUSH2 0x1D0F JUMPI PUSH2 0x1D0F PUSH2 0x1BFA JUMP JUMPDEST POP SWAP3 SWAP2 POP POP JUMP JUMPDEST PUSH1 0xFF DUP2 DUP2 AND DUP4 DUP3 AND ADD SWAP1 DUP2 GT ISZERO PUSH2 0x1235 JUMPI PUSH2 0x1235 PUSH2 0x1BFA JUMP JUMPDEST DUP2 DUP2 SUB DUP2 DUP2 GT ISZERO PUSH2 0x1235 JUMPI PUSH2 0x1235 PUSH2 0x1BFA JUMP JUMPDEST PUSH1 0xFF DUP3 DUP2 AND DUP3 DUP3 AND SUB SWAP1 DUP2 GT ISZERO PUSH2 0x1235 JUMPI PUSH2 0x1235 PUSH2 0x1BFA JUMP JUMPDEST PUSH1 0x1 DUP2 DUP2 JUMPDEST DUP1 DUP6 GT ISZERO PUSH2 0x1D96 JUMPI DUP2 PUSH1 0x0 NOT DIV DUP3 GT ISZERO PUSH2 0x1D7C JUMPI PUSH2 0x1D7C PUSH2 0x1BFA JUMP JUMPDEST DUP1 DUP6 AND ISZERO PUSH2 0x1D89 JUMPI SWAP2 DUP2 MUL SWAP2 JUMPDEST SWAP4 DUP5 SHR SWAP4 SWAP1 DUP1 MUL SWAP1 PUSH2 0x1D60 JUMP JUMPDEST POP SWAP3 POP SWAP3 SWAP1 POP JUMP JUMPDEST PUSH1 0x0 DUP3 PUSH2 0x1DAD JUMPI POP PUSH1 0x1 PUSH2 0x1235 JUMP JUMPDEST DUP2 PUSH2 0x1DBA JUMPI POP PUSH1 0x0 PUSH2 0x1235 JUMP JUMPDEST DUP2 PUSH1 0x1 DUP2 EQ PUSH2 0x1DD0 JUMPI PUSH1 0x2 DUP2 EQ PUSH2 0x1DDA JUMPI PUSH2 0x1DF6 JUMP JUMPDEST PUSH1 0x1 SWAP2 POP POP PUSH2 0x1235 JUMP JUMPDEST PUSH1 0xFF DUP5 GT ISZERO PUSH2 0x1DEB JUMPI PUSH2 0x1DEB PUSH2 0x1BFA JUMP JUMPDEST POP POP PUSH1 0x1 DUP3 SHL PUSH2 0x1235 JUMP JUMPDEST POP PUSH1 0x20 DUP4 LT PUSH2 0x133 DUP4 LT AND PUSH1 0x4E DUP5 LT PUSH1 0xB DUP5 LT AND OR ISZERO PUSH2 0x1E19 JUMPI POP DUP2 DUP2 EXP PUSH2 0x1235 JUMP JUMPDEST PUSH2 0x1E23 DUP4 DUP4 PUSH2 0x1D5B JUMP JUMPDEST DUP1 PUSH1 0x0 NOT DIV DUP3 GT ISZERO PUSH2 0x1E37 JUMPI PUSH2 0x1E37 PUSH2 0x1BFA JUMP JUMPDEST MUL SWAP4 SWAP3 POP POP POP JUMP JUMPDEST PUSH1 0x0 PUSH2 0x1490 DUP4 DUP4 PUSH2 0x1D9E JUMP INVALID LOG2 PUSH5 0x6970667358 0x22 SLT KECCAK256 CALLER 0xBC 0x26 0xE 0xAE ADDRESS DIV 0xD3 PUSH26 0xF2042C1C92F43766CE795C2B910A4EE57BBE73D260CD0E64736F PUSH13 0x63430008140033636F6E737420 PUSH21 0x69746C654964203D20273345413434273B636F6E73 PUSH21 0x207374617469737469634E616D65203D20276C6576 PUSH6 0x6C273B636F6E PUSH20 0x74207374617274506F736974696F6E203D20303B PUSH4 0x6F6E7374 KECCAK256 PUSH14 0x6178526573756C7473436F756E74 KECCAK256 RETURNDATASIZE KECCAK256 BALANCE EXTCODESIZE PUSH4 0x6F6E7374 KECCAK256 PUSH8 0x65744C6561646572 PUSH3 0x6F6172 PUSH5 0x55726C203D KECCAK256 PUSH1 0x68 PUSH21 0x7470733A2F2F247B7469746C6549647D2E706C6179 PUSH7 0x61626170692E63 PUSH16 0x6D2F5365727665722F4765744C656164 PUSH6 0x72626F617264 EXTCODEHASH MSTORE8 PUSH21 0x617469737469634E616D653D247B73746174697374 PUSH10 0x634E616D657D26537461 PUSH19 0x74506F736974696F6E3D247B7374617274506F PUSH20 0x6974696F6E7D264D6178526573756C7473436F75 PUSH15 0x743D247B6D6178526573756C747343 PUSH16 0x756E747D603B636F6E73742067657455 PUSH20 0x65724163636F756E74496E666F55726C203D2060 PUSH9 0x747470733A2F2F247B PUSH21 0x69746C6549647D2E706C61796661626170692E636F PUSH14 0x2F5365727665722F476574557365 PUSH19 0x4163636F756E74496E666F603B636F6E737420 PUSH13 0x6561646572626F617264526571 KECCAK256 RETURNDATASIZE KECCAK256 PUSH2 0x7761 PUSH10 0x742046756E6374696F6E PUSH20 0x2E6D616B654874747052657175657374287B7572 PUSH13 0x3A206765744C6561646572626F PUSH2 0x7264 SSTORE PUSH19 0x6C2C6D6574686F643A2027504F5354272C6865 PUSH2 0x6465 PUSH19 0x733A207B27436F6E74656E742D54797065273A KECCAK256 0x27 PUSH2 0x7070 PUSH13 0x69636174696F6E2F6A736F6E27 0x2C 0x27 COINBASE PUSH4 0x63657074 0x2D GASLIMIT PUSH15 0x636F64696E67273A20276964656E74 PUSH10 0x7479272C27582D536563 PUSH19 0x65744B6579273A20736563726574732E706C61 PUSH26 0x6661624170694B65797D2C7D293B696620286C6561646572626F PUSH2 0x7264 MSTORE PUSH6 0x712E6572726F PUSH19 0x29207468726F77206E6577204572726F722860 0x24 PUSH28 0x6C6561646572626F6172645265712E6D6573736167657D60293B636F PUSH15 0x737420706C61794661624964203D20 PUSH13 0x6561646572626F617264526571 0x2E PUSH5 0x6174612E64 PUSH2 0x7461 0x2E 0x4C PUSH6 0x61646572626F PUSH2 0x7264 JUMPDEST ADDRESS 0x5D 0x2E POP PUSH13 0x617946616249643B636F6E7374 KECCAK256 PUSH2 0x7069 MSTORE PUSH6 0x73706F6E7365 KECCAK256 RETURNDATASIZE KECCAK256 PUSH2 0x7761 PUSH10 0x742046756E6374696F6E PUSH20 0x2E6D616B654874747052657175657374287B7572 PUSH13 0x3A20676574557365724163636F PUSH22 0x6E74496E666F55726C2C6D6574686F643A2027504F53 SLOAD 0x27 0x2C PUSH9 0x6561646572733A207B 0x27 NUMBER PUSH16 0x6E74656E742D54797065273A20276170 PUSH17 0x6C69636174696F6E2F6A736F6E272C2741 PUSH4 0x63657074 0x2D GASLIMIT PUSH15 0x636F64696E67273A20276964656E74 PUSH10 0x7479272C27582D536563 PUSH19 0x65744B6579273A20736563726574732E706C61 PUSH26 0x6661624170694B65797D2C706172616D733A7B27506C61794661 PUSH3 0x494427 GASPRICE KECCAK256 PUSH17 0x6C617946616249642C7D7D293B69662028 PUSH2 0x7069 MSTORE PUSH6 0x73706F6E7365 0x2E PUSH6 0x72726F722920 PUSH21 0x68726F77206E6577204572726F722860247B617069 MSTORE PUSH6 0x73706F6E7365 0x2E PUSH14 0x6573736167657D60293B72657475 PUSH19 0x6E2046756E6374696F6E732E656E636F646553 PUSH21 0x72696E6728617069526573706F6E73652E64617461 0x2E PUSH5 0x6174612E55 PUSH20 0x6572496E666F2E437573746F6D4964496E666F2E NUMBER PUSH22 0x73746F6D4964293B1E9CE0FE8DC86FFBB0E3511F190D DUP16 PUSH24 0x3F26B8A425447B37518E52A69F30EE69395D5D5613761EE ADD SWAP16 LOG1 CODECOPY 0x49 0xAE 0xA7 0xCD PUSH13 0xA33C7E784895E7229642C52F55 PUSH3 0x97FE4B CHAINID PUSH30 0xC2014656D4642A7D358FC50735CD038D22AA01B56B3CD1AB3F40C1E472A1 SWAP12 0xA5 SAR SWAP8 0x27 0xCA 0xEE MULMOD CALL SELFDESTRUCT PUSH17 0x586F589205B8EB9D27788488253E5F74 SMOD PUSH17 0xD54CCB9443A8C78B6143C4FD917BBF161A "},"methodIdentifiers":{"checkUpkeep(bytes)":"6e04ff0d","donId()":"8dbe7b9d","encryptedSecretsUrls()":"dab79c40","endDate()":"c24a0f8b","errors(bytes32)":"be41cee3","factory()":"c45a0155","gasLimit()":"f68016b7","handleOracleFulfillment(bytes32,bytes,bytes)":"0ca76175","nftsSended()":"f6feca37","onERC721Received(address,address,uint256,bytes)":"150b7a02","owner()":"8da5cb5b","performUpkeep(bytes)":"4585e33b","renounceOwnership()":"715018a6","router()":"f887ea40","sendRequest()":"1bee2f2a","subscriptionId()":"09c1ba2e","transferOwnership(address)":"f2fde38b","updateDonId(bytes32)":"6df0c747","updateEncryptedSecretsUrls(bytes)":"a42f3b2f","updateEndDate(uint256)":"ef2bbbdf","updateFactory(address)":"d9f165dc","updateGasLimit(uint32)":"34303bcd","updateRouter(address)":"c851cc32","updateSource(string)":"f60ce3c4","updateSubscriptionId(uint64)":"14b1dd1b","winner()":"dfbf53ae"}}}}}